:100000000C94FA050C9417060C9417060C9417061A
:100010000C9417060C9417060C9417060C941706EC
:100020000C9417060C9417060C94CC0E0C940E0E20
:100030000C943A200C9417060C9417060C9417068F
:100040000C9417060C9417060C9417060C941706BC
:100050000C9417060C94F91F0C9417060C941706B1
:100060000C9417060C9417060C9417060C9417069C
:100070000C9417060C9417060C9417060C9417068C
:100080000C9417060C9417060C9417060C9417067C
:100090000C9417060C9417060C9417060C9417066C
:1000A0000C9417060C9417060C9417060E071407E9
:1000B0001A07200726072C07320738073E07440790
:1000C0004A07500756075C0762076A0770077607FA
:1000D0007B07800785078A078F07940799079E0784
:1000E000A307A807AD0788088808BB08BB0826092E
:1000F00044094E0A4E0A4F09C309D409D409210CF8
:10010000480CF60D480CF60D940CB70CF60DAC0D22
:10011000BC0DC91DCE1DD81DCC1DD11DD61DD41D95
:10012000021F051F081F0B1F0E1F111F141F0102A6
:10013000E00102E10101180103E10103E0010431E2
:1001400030307C01011E01043130307C010121017D
:10015000043130307C01012101043130307C010157
:1001600028000102E00102E10101180103E101039D
:10017000E001043130307C01011F01043130307C5A
:1001800001012401043130307C01010801043130C7
:10019000307C01012701043130307C01012800014D
:1001A00002E00102E10101180103E10103E00104A1
:1001B0003130307C01010901043130307C010121F2
:1001C00001043130307C010128000102E00102E12C
:1001D0000101180103E10103E001043130307C0129
:1001E000011E01043130307C010121010431303025
:1001F0007C01011F01043130307C01012800010223
:10020000E00102E10101180103E10103E001043111
:1002100030307C01010801043130307C01010601DD
:10022000043130307C010128000102E00102E101CB
:1002300001180103E10103E001043130307C0101C8
:100240000801043130307C01010901043130307C77
:10025000010128000102E00102E10101180103E1AE
:100260000103E001043130307C0101090104313027
:10027000307C01012001043130307C010128000173
:1002800002E00102E10101180103E10103E00104C0
:100290003130307C01010901043130307C01011F13
:1002A00001043130307C010128000102E00102E14B
:1002B0000101180103E10103E001043130307C0148
:1002C000010801043130307C010108010431303073
:1002D0007C010128000102E00102E1010118010393
:1002E000E10103E001043130307C010109010431F6
:1002F00030307C01012601043130307C01012800BE
:100300000102E00102E10101180103E10103E00142
:10031000043130307C01011F01043130307C010197
:100320002701043130307C01010401043130307C7C
:1003300001010801043130307C010128000102E094
:100340000102E10101180103E10103E00104313080
:10035000307C01010401043130307C0101200104B2
:100360003130307C010128000102E00102E101018D
:10037000180103E10103E001043130307C01011F69
:1003800001043130307C01012701043130307C011F
:10039000010501043130307C0101090104313030A4
:1003A0007C010128000102E00102E10101180103C2
:1003B000E10103E001043130307C01011F0104310F
:1003C00030307C01011E01043130307C01011F01FD
:1003D000043130307C01010601043130307C0101F0
:1003E00028000102E00102E10101180103E101031B
:1003F000E001043130307C01010801043130307CEF
:1004000001012401043130307C010128000102E0A7
:100410000102E10101180103E10103E001043130AF
:10042000307C01011E01043130307C0101270104C0
:100430003130307C01012401043130307C0101284D
:10044000000102E00102E10101180103E10103E002
:1004500001043130307C01011E01043130307C0157
:10046000012401043130307C0101040104313030B9
:100470007C010128000102E00102E10101180103F1
:10048000E10103E001043130307C01011E0104313F
:1004900030307C01012401043130307C010106013F
:1004A000043130307C010128000102E00102E10149
:1004B00001180103E10103E001043130307C010146
:1004C0000801043130307C01011F01043130307CDF
:1004D000010128000102E00102E10101180103E12C
:1004E0000103E001043130307C01011F010431308F
:1004F000307C01011E01043130307C0101200104F7
:100500003130307C01011E01043130307C01012882
:10051000000102E00102E10101180103E10103E031
:1005200001043130307C01010801043130307C019C
:10053000012701043130307C010128000102E00173
:1005400002E10101180103E10103E001043130304F
:100550007C01011E01043130307C01012201043193
:1005600030307C01010501043130307C010128006C
:100570000102E00102E10101180103E10103E001D0
:10058000043130307C01011E01043130307C010126
:100590002701043130307C01012201043130307CEC
:1005A000010128000102E00102E10101180103E15B
:1005B0000103E001043130307C01011F01043130BE
:1005C000307C01012701043130307C010104010439
:1005D0003130307C01010601043130307C010128CA
:1005E000000102E00102E10101180103E10103E061
:1005F00001043130307C01010801043130307C01CC
:10060000010501043130307C010128000102E001C4
:1006100002E10101180103E10103E001043130307E
:100620007C01010801043130307C010104010431F6
:1006300030307C010128000102E00102E1010118D3
:100640000103E10103E001043130307C01011E01AE
:10065000043130307C01011E01043130307C010155
:100660002601043130307C010128000102E0010242
:10067000E10101180103E10103E001043130307CA4
:1006800001010801043130307C01012501043130C1
:10069000307C010128000102E00102E101011801A2
:1006A00003E10103E001043130307C010108010461
:1006B0003130307C01012601043130307C010128C9
:1006C0000005010980A101850319012AB700150160
:1006D00026B700950175108100C0050C0901A10124
:1006E000850419012AA002150126A00295017510A2
:1006F0008100C005010906A1018506050719E02949
:10070000E7150025019508750181020507190029E3
:10071000EF1500250195F0750181020508190129E1
:1007200005950575019102950175039101C00501BB
:100730000902A1010901A1000509190129081500F3
:1007400025019508750181020501093009311581DE
:10075000257F95027508810609381581257F950149
:1007600075088106050C0A38021581257F950175EB
:10077000088106C0C00660FF0961A1010962150079
:1007800026FF009520750881020963150026FF00E9
:10079000952075089102C005010906A101050719F8
:1007A000E029E7150025019508750181029501757D
:1007B0000881010507190029FF150026FF0095068D
:1007C0007508810005081901290595057501910233
:1007D000950175039101C009027400040100A0FA9B
:1007E0000904000001030101000921110100012297
:1007F000400007058103080001090401000203000D
:1008000000000921110100012222000705830320B5
:10081000000107050403200001090402000103018F
:100820000200092111010001224700070582030887
:100830000001090403000103000000092111010067
:1008400001226D000705850320000112010002004E
:1008500000000897327449010001020001160345A7
:1008600000720067006F0044006F007800200045B0
:10087000005A00000028035A005300410020005491
:10088000006500630068006E006F006C006F006719
:1008900000790020004C0061006200730000000439
:1008A0000309042E002B002900E100015300001E63
:1008B00000140004001D003500E0001F001A00169F
:1008C000001B0039004C0020000800070006005003
:1008D000002C0021001500090019004F004D0022D6
:1008E0000017000A0005000000E2002F002F0200A0
:1008F00000260200004A00300030020000270200FB
:10090000004B0023001C000B0011000000E300243A
:100910000018000D00100051004E0025000C000EC4
:1009200000360052002800260012000F0037000099
:10093000072A002700130033003800000FE4002DC1
:100940000031003400E500025300003A00010001CC
:10095000000100010000003B00B25DB85DBD5D46D6
:100960000001003C00B35DB95DBE5DAC0001003D1F
:1009700000B45DBA5DBF5DAE0001003E00B55DBB79
:100980005DC05DAB0001003F00B65DBC5DC15D00B8
:100990000001002102B75D0000C25D00000100C33C
:1009A0005DC45D0000CD5D0000010040000100015C
:1009B00000CE5D000001004100C55DC95D0100AAD7
:1009C0000001004200C65DCA5D0100A900010043AC
:1009D00000C75DCB5D0100BE0001004400C85DCCD6
:1009E0005D0100BD000100450001000100010001A2
:1009F000000000010001000100010003530000019C
:100A0000000100010001000100010001000100EFF0
:100A100000F100010001000100ED00EE00F3000113
:100A200000010001000100F000F2000100010001DE
:100A300000010001000100000001000100010000B0
:100A400000010000000100010001000000010000A1
:100A5000000100010001000100010000000100533D
:100A6000005F005C00590001000100540060005D5F
:100A7000005A0062000100550061005E005B0063E7
:100A8000000100560057002E0058002A0001000106
:100A9000000100010001000100000001000100014F
:100AA000000100010000000100010001000100013F
:100AB00000E002010001000100010001000100014D
:100AC000000100010001000100010001000100011E
:100AD000000100010001000100010001000100000F
:100AE0000001000100010000000100000001000100
:100AF00000010000000100000001000100010001F0
:100B000000010000000100010001000100010001DE
:100B100000010001000100010001000100010001CD
:100B200000010001000100010001000100010001BD
:100B3000000100010001000100010001000100109E
:100B40005000000000000000000000000000000055
:100B50000000000000000000000000000000000095
:100B6000000000000000007E0F00D4FFFFFFC70060
:100B700000007800000000000000002A2B28000080
:100B8000000000000000000000000000000029003C
:100B90000000002C1E3420212224342627252E3646
:100BA0002D3738271E1F20212223242526333336B4
:100BB0002E37381F0405060708090A0B0C0D0E0F07
:100BC000101112131415161718191A1B1C1D2F318A
:100BD00030232D350405060708090A0B0C0D0E0FEE
:100BE000101112131415161718191A1B1C1D2F316A
:100BF00030354C0011241FBECFEFDAE0DEBFCDBF91
:100C000011E0A0E0B1E0E0E4FBE402C005900D9249
:100C1000AA36B107D9F722E0AAE6B1E001C01D92D9
:100C2000A43AB207E1F70E942C100C949E250C9474
:100C30000000A5E2B0E0EFE1F6E00C940F23FC0128
:100C40008081918123813481232B31F09F3F31F4C6
:100C500091E08F3F19F403C091E001C090E090FD56
:100C60004AC47F0185E0DE01919601900D928A953C
:100C7000E1F7D70112962C9189A19AA1222349F07C
:100C80000E947518182F682F89A19AA10E948C1AAA
:100C900003C00E94581A182F69A17AA1812F0E94BF
:100CA00000148C0190919C01F7018281992309F431
:100CB0004DC08111CBC1E0916C01E330A0F481E023
:100CC0008E0F80936C01F0E0EE0FFF1FEE52FE4F8F
:100CD000D7018D919C919183808382E08983CE019D
:100CE00001960E940010BFEFE3EDF0E3B150E04049
:100CF000F040E1F700C0000080916C01833009F002
:100D0000A5C110926C01E8EDF1E0A2EDB1E08EED2D
:100D100091E0318111962C91119732132EC03081C0
:100D20002C9132132AC0329612968E179F0789F79C
:100D300084E0898381E080939D018EEF8A83109205
:100D40009C01CE0101960E94001080C190919D01EE
:100D50009923C1F0811102C087E001C086E0898338
:100D6000D7018C918A8311968C918B838EEF8C8323
:100D7000CE0101960E94001005C083E08983109285
:100D80009D01DBCFD70112969C910F3ABDE51B0761
:100D9000D1F5992309F4E6C09091A10181E0890F72
:100DA0008770987F853020F4892B8093A10102C041
:100DB0009093A1018091A1018770BFEF8B9FC0012B
:100DC00011249595879595958795992790938900F6
:100DD0008093880090938B0080938A0090938D007D
:100DE00080938C004091A1015091A2016091A301D8
:100DF0007091A4018FE090E00E94E1238091B30103
:100E00000E94B31DAFC0F801E25BFD45ED31F10575
:100E100008F0A8C0EA5AFF4F0C946A24992309F4F9
:100E2000A1C086E996E053C0992309F49BC08BE6E4
:100E300096E04DC0992309F495C087E396E047C03A
:100E4000992309F48FC08CE096E041C0992309F4FE
:100E500089C081EE95E03BC0992309F483C084EA00
:100E600095E035C0992309F47DC080E795E02FC057
:100E7000992309F477C08CE395E029C0992309F4FC
:100E800071C081E195E023C0992309F46BC084ED22
:100E900094E01DC0992309F465C089EA94E017C065
:100EA000992309F45FC085E794E011C0992309F400
:100EB00059C081E494E00BC0992309F453C08DE03C
:100EC00094E005C0992309F44DC082EE93E00E949E
:100ED000D31C48C0992309F445C085EA93E0F7CFB5
:100EE000992309F43FC088E693E0F1CF9923D1F12B
:100EF0008DE393E0ECCF9923A9F180E093E0E7CF75
:100F0000992381F185ED92E0E2CF992359F18AEAA4
:100F100092E0DDCF992331F18FE792E0D8CF99238A
:100F200009F184E592E0D3CF9923E1F089E292E0E0
:100F3000CECF9923B9F08EEF91E0C9CF992391F0EC
:100F40008AEC91E0C4CF992369F08FE991E0BFCF9B
:100F5000992341F082E691E0BACF992319F08EE20D
:100F600091E0B5CFF7018281882309F482C00C3566
:100F7000EDE51E0709F464C060F401152CE51207C5
:100F8000A9F00F3D8CE5180709F073C00E94B31556
:100F90004CC00E359DE5190709F44AC008F452C04B
:100FA000093ABDE51B0709F440C063C010926E0109
:100FB0000E94091BEFEFF4E32CE0E150F0402040E9
:100FC000E1F700C00000F89481E08093E00080E247
:100FD0008093D8001092C9008FE19EE40197F1F749
:100FE00000C000001DBA109268001CBC10BE1FBAE1
:100FF00010927A0010926E0010926F0010927100A1
:10100000109272001092C9001092BC0014B817B868
:101010001AB81DB810BA1092BC0015B818B81BB891
:101020001EB811BA0C94003F11C00E949B1D0EC047
:1010300080919C0282FB882780F991E0892703C078
:1010400081E001C080E00E94A81613C080913602A2
:10105000877009F450C2D70112968C91882309F445
:101060004AC280919C0282FF46C282E00E948B1697
:1010700042C2D70112968C9112970D911C91882330
:1010800049F0C8010E947518D82E682FC8010E9427
:101090008C1A04C0C8010E94581AD82EB8018D2D90
:1010A0000E9400140E941914B82E192F982EF701CF
:1010B0000281A580A2949FE0A922809136028770C8
:1010C000B9F00023A9F0812F807F803421F080E2E5
:1010D0008B0D883068F080919C0282FF09C082E00D
:1010E0000E948B16809136028770DD24D394811183
:1010F000D12CC12EC2948FE0C8228C2D90E08C3070
:10110000910508F0CBC1FC01ED58FF4F0C946A2407
:10111000812F807F1F70882311F01295107F00238C
:10112000B9F0112309F4A8C180E28B0D883010F0CA
:10113000911006C080916E01182B10936E0105C0AE
:1011400080915702182B109357020E94361694C1B3
:101150008B2D0E942E1B112309F4A0C180E28B0D60
:10116000883080F1992071F11095809157021823F1
:10117000109357022AC0812F807F1F70803211F098
:101180001295107F8B2D992021F0F1E09F16D9F157
:1011900047C080919C0282FD1BC0002369F011238F
:1011A00039F080916E01182B10936E010E94361653
:1011B00080E00E94631B72C180E00E942E1B1123FD
:1011C00009F46CC1812F0E942F160E94361666C149
:1011D000002381F080915802AA2051F021E0A21250
:1011E00007C0182B181709F459C11093580256C19B
:1011F000812B10C0AA2021F081E0A81609F44EC16D
:101200000E9429161FC0002341F091E09A1508F4AE
:1012100045C1812F0E94241B41C1A1103FC112C0B2
:10122000002319F0AA20A9F327C1AA2059F0893375
:1012300009F031C1AFEFB7EEE3E0A150B040E040BC
:10124000E1F727C1812F0E941D1B28C1812F8695A0
:101250008695837019F0813061F020C1002321F060
:101260008B2D912F937002C080E090E00E94A1200E
:101270001BC1002321F08B2D912F937002C080E0C1
:1012800090E00E948B2010C18B2D002319F00E944A
:10129000C52102C00E940B210E94E42005C1812FBC
:1012A0008370A9F50111FEC04B2D429546954770FC
:1012B000440F440F8B2D8F7090E09C01042E01C0D1
:1012C000220F0A94EAF7B4FE08C08FE090E001C054
:1012D000880F4A95EAF7809501C080E0169516952B
:1012E0001370123069F088F490915902113019F09E
:1012F000822B892302C0922B892B0E94041BD2C00F
:10130000822B909159028927F8CF822BF6CF0023A8
:1013100019F0812F817001C08695882309F4C2C01D
:101320004B2D429546954770440F440F8B2D8F707F
:1013300090E09C01042E01C0220F0A94EAF7B4FE4B
:1013400008C08FE090E001C0880F4A95EAF78095C9
:1013500001C080E0169516951370123059F078F49C
:101360009091B301113019F0822B892309C0922B7F
:10137000892B06C0822B9091B301892701C0822B53
:101380000E94C11A8FC01F70002339F0812F0E9464
:10139000F81A8B2D0E94241B85C08B2D0E941D1BCB
:1013A000812F0E94EB1A7EC08B2DF2EF9F1669F100
:1013B000F91538F020EF921659F091EF991601F1D6
:1013C00057C0A3EF9A1641F1B4EF9B16A9F050C095
:1013D000002369F0A11062C01F7181E090E001C09C
:1013E000880F1A95EAF79091B30189271FC0E1E0B1
:1013F000EA1508F453C0F0CF80919C0282FD19C019
:10140000002329F0812F8F7126C00023D9F3812F6B
:101410008F710E94EB1A42C0002339F01F7181E0E6
:1014200001C0880F1A95EAF701C080E00E94C11A36
:1014300035C0002399F01F71812F0E94F81A809106
:101440009C0282FF07C0F8E01F9FC0011124836047
:1014500080933602812F0E94F81A20C081E00E94FA
:101460008B1621E02A15D0F482E00E948B1616C05C
:10147000002321F0AA2031F28B2D9BCEAA2039F235
:10148000893349F48FEF97EEA3E081509040A0405C
:10149000E1F700C000008B2D0E942E1B88EF8C0D01
:1014A000843010F40E94B720DD20A9F0809136022C
:1014B00080FD11C0F70112828595859585950E9462
:1014C000F81AC7010E941906809136028595859504
:1014D00085950E94EB1A85E0F701DE0111960190D7
:1014E0000D928A95E1F709811A81C8010E94581A64
:1014F000B8010E940014A596EBE00C942B23809178
:10150000940187FF11C08091E80082FD05C08091A1
:101510009E018111F8CF11C08091E8008B770BC03C
:1015200080919E01882349F08091E80080FFF8CFE8
:101530008091E8008E778093E8000895982F973087
:1015400068F59093E900981739F07091EC002091BC
:10155000ED005091F00003C0242F762F50E021FDC4
:1015600002C09F5FECCF3091EB003E7F3093EB00E9
:101570003091ED003D7F3093ED003091EB00316014
:101580003093EB007093EC002093ED005093F0004B
:101590002091EE0027FDE5CF80E008958F708093C5
:1015A000E90081E0089520919A0130919B0126176E
:1015B000370748F06115710539F42091E8002E775E
:1015C0002093E80001C0B901FC0120E0611571051C
:1015D00079F180919E018823F1F18530F1F18091BC
:1015E000E80083FD3CC08091E80082FD2EC0809120
:1015F000E80080FFEBCF2091F3008091F20090E0B3
:10160000922B6115710551F08830910538F42191C4
:101610002093F100615071090196F3CF21E0089702
:1016200009F020E08091E8008E778093E800CECF2B
:101630002111CFCF0AC080919E01882361F08530AF
:1016400061F08091E80083FD0AC08091E80082FF8C
:10165000F2CF80E0089582E0089583E0089581E06C
:1016600008950895BC0184E00E94CE1F0895BC0136
:1016700083E00E94CE1F0895AAE2B0E0E2E4FBE01E
:101680000C941723E4E9F1E08CE991E02091F1005A
:1016900021938E179F07D1F780919501833009F42C
:1016A00063C030F4813071F0823009F49FC0B6C05D
:1016B0008A3009F48BC08B3009F46EC0893009F090
:1016C000ADC020C080919401813A09F0A7C08091FB
:1016D000E800877F8093E8008091980190919901BC
:1016E000892B21F460E281E791E003C060E080E0B3
:1016F00090E070E00E94D30A8091E8008B7780939D
:10170000E8008CC080919401813209F087C08091FB
:10171000980190919901009719F0039709F07EC004
:101720008091E800877F8093E8008091E80082FD47
:1017300005C080919E018111F8CF70C02091F30007
:101740008091F20090E0922B029731F48091F100A9
:10175000813011F0863021F48091F1008093700186
:101760008091E8008B7756C080919401813A09F00E
:1017700055C08091980190919901892B09F04EC034
:101780008091E800877F8093E8008091E80080FFE7
:10179000FCCF80910A0139C0809194018132F1F52A
:1017A0008091980190919901892BC1F58091E80071
:1017B000877F8093E8000E947F0A80919601809342
:1017C0000A0110926E010E94091B28C080919401A9
:1017D000813221F58091E800877F8093E8000E94A4
:1017E0007F0A8091970180936F0118C080919401C6
:1017F000813AA1F48091E800877F8093E80080918E
:10180000E80080FFFCCF80916F018093F100809110
:10181000E8008E778093E8000E947F0A8091E800BC
:1018200083FFE4C18091940190919501492F50E08C
:101830004A30510508F0DAC1FA01E158FF4F0C9423
:101840006A24803821F0823809F0D0C108C0809124
:10185000910190919201992389F082600FC080914B
:1018600098018F70873008F0C1C18093E9008091A2
:10187000EB0085FB882780F91092E9009091E80041
:10188000977F9093E8008093F1001092F10070C16F
:10189000282F2D7F09F0AAC1882319F0823061F02A
:1018A000A5C180919601813009F0A0C1933009F063
:1018B00080E0809392012EC08091960181112AC010
:1018C000809198018F702FEF280F263008F08EC17D
:1018D0008093E9002091EB0020FF1CC0933021F49D
:1018E0008091EB00806214C09091EB009061909326
:1018F000EB0021E030E0A90102C0440F551F8A959A
:10190000E2F74093EA001092EA008091EB008860D1
:101910008093EB001092E9008091E800877F80932C
:10192000E8000E947F0A62C1811160C11091960196
:101930001F778091E3008078812B8093E300809172
:10194000E800877F8093E8000E947F0A8091E8008A
:1019500080FFFCCF8091E30080688093E300111149
:1019600002C082E001C083E080939E013FC18058A5
:10197000823008F03BC120919601309197012C3DB7
:1019800053E0350779F583E08A838AE289834FB78C
:10199000F894DE01139620E03EE051E2E32FF0E000
:1019A00050935700E49120FF03C0E295EF703F5F32
:1019B000EF708E2F90E0EA3010F0C79601C0C0960D
:1019C0008D939D932F5F243149F74FBF8091E8009D
:1019D000877F8093E8006AE270E0CE0101960E9462
:1019E000D30AB4C08091980190919901432F552753
:1019F00043305105A9F068F44130510509F405C19F
:101A00004230510509F0F2C084E790E0E7EDF7E0DD
:101A10004BC04132510529F14232510589F1E6C0EE
:101A2000C901992781309105A1F058F0029709F07A
:101A3000DDC0EDE5F8E0E4918E2F90E0EDE5F8E013
:101A400030C0EFE9F8E0E4918E2F90E0EFE9F8E0A4
:101A500028C0E5E7F8E0E4918E2F90E0E5E7F8E0B4
:101A600020C08430910508F0C1C0880F991FFC0187
:101A7000EB5DFE4F0190F081E02D89E090E014C015
:101A80008430910508F0B2C0FC01EE0FFF1FE35E49
:101A9000FE4F0190F081E02DDC01A75EBE4F8C91DE
:101AA00090E0009709F4A2C02091E800277F2093DE
:101AB000E80020919A0130919B012817390708F41A
:101AC000C90140E0009789F120919E01222309F489
:101AD0003DC02530D9F12091E80023FD37C0209189
:101AE000E80022FD2FC02091E80020FFEBCF4091BD
:101AF000F3002091F20030E0342B009759F02830A9
:101B0000310540F444914093F100319601972F5FE5
:101B10003F4FF3CF41E02830310509F040E02091FC
:101B2000E8002E772093E800CDCF4111CDCF0AC039
:101B300080919E01882351F0853041F08091E8002A
:101B400083FD04C08091E80082FFF2CF8091E8001D
:101B50008B778093E8004AC0803809F047C08091B5
:101B6000E800877F8093E800809193018093F100E3
:101B70008091E8008E77D3CE811138C08091960194
:101B800090919701992702978CF58091E800877FC3
:101B90008093E80010919601109393010E947F0AB0
:101BA000111106C08091E30087FD02C081E001C0F1
:101BB00084E080939E0142E061EC81E00E949E0AF5
:101BC00042E061EC82E00E949E0A42E261EC85E024
:101BD0000E949E0A42E261EC83E00E949E0A42E279
:101BE00060EC84E00E949E0A80919E018091E80052
:101BF00083FF10C08091E800877F8093E800809188
:101C0000EB0080628093EB0005C082E190E0EBE4A2
:101C1000F8E04ACFAA96E3E00C9433231F920F9288
:101C20000FB60F9211242F933F934F935F936F93AF
:101C30007F938F939F93AF93BF93CF93DF93EF9354
:101C4000FF93C091E900CF708091EC00D82FD17044
:101C500080FDD0E81092E9008091F000877F8093AA
:101C6000F00078940E943C0B1092E9008091F00003
:101C700088608093F000CD2BCF70C093E900FF9176
:101C8000EF91DF91CF91BF91AF919F918F917F9114
:101C90006F915F914F913F912F910F900FBE0F90D9
:101CA0001F901895E8EDF0E080818E7F8083109280
:101CB000E2001092DA001092E100A0EEB0E08C9108
:101CC00081608C9380818F77808319BCA7EDB0E011
:101CD0008C918E7F8C9380818F7E808310926D019A
:101CE0000895A0E0B0E0E7E7FEE00C941223C8ED11
:101CF000D0E088818F7E8883E7EDF0E0808181608D
:101D0000808384E082BF81E080936D0188818E7F33
:101D1000888302EE10E0F80110821092DA0081EE62
:101D2000C82ED12CF601108288818F778883888114
:101D30008068888388818F7D888319BC10929E017A
:101D400010929301109292011092910190EEE92E5F
:101D5000F12CF70180818B7F80838881816088836B
:101D600042E060E080E00E949E0AF60180818E7F62
:101D70008083F80180818160808380818860808396
:101D8000F70180818E7F8083888180618883CDB7D1
:101D9000DEB7E8E00C942E231F920F920FB60F923D
:101DA00011242F933F934F935F936F937F938F9360
:101DB0009F93AF93BF93EF93FF938091E10082FFD6
:101DC00009C08091E20082FF05C08091E1008B7F15
:101DD0008093E1008091DA0080FF2AC08091D800D2
:101DE00080FF26C08091DA008E7F8093DA00809198
:101DF000D90080FF18C080E189BD82E189BD09B4A6
:101E000000FEFDCF81E080939E0180916D018111E4
:101E10000FC00E94520E0E94710E8091E2008460F9
:101E20008093E20005C019BC10929E0110926D01D2
:101E30008091E10080FF17C08091E20080FF13C015
:101E40008091E2008E7F8093E2008091E2008061C9
:101E50008093E2008091D80080628093D80019BC02
:101E600085E080939E018091E10084FF30C08091E5
:101E7000E20084FF2CC080E189BD82E189BD09B404
:101E800000FEFDCF8091D8008F7D8093D800809197
:101E9000E1008F7E8093E1008091E2008F7E80934D
:101EA000E2008091E20081608093E20080919301E2
:101EB000882311F084E007C08091E30087FD02C011
:101EC00081E001C083E080939E0180919E0180911A
:101ED000E10083FF27C08091E20083FF23C080914F
:101EE000E100877F8093E10082E080939E01109261
:101EF00093018091E1008E7F8093E1008091E20068
:101F00008E7F8093E2008091E20080618093E20006
:101F100042E060E080E00E949E0A8091F0008860CC
:101F20008093F000FF91EF91BF91AF919F918F91BE
:101F30007F916F915F914F913F912F910F900FBEC5
:101F40000F901F9018952091E4003091E50095E6E0
:101F50004091EC00842F817040FF23C08091E80005
:101F600080FD1DC080919E01882399F0853099F0F5
:101F70008091EB0085FD11C04091E4005091E50097
:101F80002417350729F3915011F09A01E1CF84E02D
:101F9000089582E0089583E0089581E0089580E047
:101FA00008954091E80042FFDDCF0895EF92FF923F
:101FB0000F931F93CF93DF937C018B010E94A30F9C
:101FC000811119C0E70101151105A1F08091E80008
:101FD00085FD0AC08091E8008E778093E8000E941A
:101FE000A30F882381F307C089918093F1000150EA
:101FF0001109E9CF80E0CDB7DEB7E6E00C943023DD
:10200000CF9320919E01243029F5C091E900CF7033
:102010003091EC00232F217030FD20E8C22B23E00B
:102020002093E9002091E80020FF11C040E050E03B
:1020300060E270E00E94D60F882321F010929C018C
:1020400010929D018091E8008E778093E800CF7018
:10205000C093E900CF910895ACE5B0E0E2E3F0E190
:102060000C94102385B7806885BF85B7806885BFCD
:1020700084B7877F84BF0FB6F894A89580916000DD
:10208000886180936000109260000FBE90E080E84D
:102090000FB6F89480936100909361000FBE8BEBB4
:1020A00093E190936B0180936A010E94520E0E940B
:1020B000710E8091E20084608093E20078948091B8
:1020C0009E018823A1F01091E9001F709091EC000F
:1020D000892F817090FD80E8182B1092E900809183
:1020E000E80083FD0E943C0B1F701093E90082E022
:1020F00084BD93E095BD9AEF97BD80936E000E94DA
:10210000DD1D90E090931801809317010E94181F25
:102110000E945E1FE5EAF1E0A4EBB1E011921D928E
:1021200021E0E33BF207D1F78EE090E00E947024BB
:1021300080939F019093A001FC010E961192E817E5
:10214000F907E1F789EA8093800089E080938100B4
:1021500024982C983F988AB18F7C8AB96E98479AB8
:102160008BB180638BB9769A8FE090E00E94B323A5
:102170006093A1017093A2018093A3019093A401A5
:1021800067703FEF639FB001112475956795759552
:1021900067957727709389006093880070938B0010
:1021A00060938A0070938D0060938C000E94541E8F
:1021B00080E090E00E94B923883E9E4F11F00E947B
:1021C000B31582E090E00E94AB238093C20184E0CB
:1021D00090E00E94AB23182F82E290E00E94AB2394
:1021E000212F30E0382B30939C0220939B0283E018
:1021F00090E00E94AB230E94041B8091B3010E94D7
:10220000B31D8BE091E0909393028093920288E15A
:10221000E82EF12C90E4D92E80919E01853009F0B2
:1022200054C000E112E180919E01853009F047C061
:1022300080919E01843009F1109296020FB6F894B5
:10224000A895E09260000FBED092600083B7817FB6
:10225000846083BF83B7816083BF7894889583B798
:102260008E7F83BF0FB6F894A89580916000886137
:1022700080936000109260000FBE809192018823CD
:1022800091F20E94DD1D90E0909318018093170158
:102290000E94181F0E945E1FE4EBF1E0119281E0A2
:1022A000E23CF807D9F70E943717E4EBF1E081919F
:1022B000811140C221E0E23CF207C9F7B4CF10928D
:1022C0006E010E94091B0E94B7200E9437178823C5
:1022D00059F08FB7F894409197025091980260910D
:1022E000990270919A028FBFA3ECB1E0E4EBF1E0A8
:1022F00000E010E0302F21919D919227A1F180E024
:10230000CC24C394492F4C2151F164968FAF64972C
:1023100065963FAF65972C2181E009F480E06696D1
:102320008FAF66970E942E208160782F68969FAFAE
:102330008EAF689764964FAD649765965FAD65976D
:1023400066966FAD669768968FAD68970E94201C61
:10235000F801ED53FE4F8081C826C0822AC08F5FEE
:10236000CC0C863079F60F5F1F4F0E30110509F047
:10237000C1CF8FEF69968FAF69976A968FAF6A97D3
:102380006B961FAE6B970E942E208160782F6D9602
:102390009FAF8EAF6D9769964FAD69976A965FADA7
:1023A0006A976B966FAD6B976D968FAD6D970E9428
:1023B000201C85E0EBE8F2E0DE01119601900D9221
:1023C0008A95E1F710928C0210928D0210928E0283
:1023D00010928F021A81111104C08B81882309F495
:1023E00052C08091890290918A020E941F209C0114
:1023F00090918502992309F4B5C12531310508F47E
:1024000042C09F3F19F09F5F90938502112361F0B6
:102410000E94A221111614F09FEF01C091E0899F44
:10242000802D112480938C021B81112361F00E9466
:10243000A221111614F09FEF01C091E0899F802D19
:10244000112480938D0230918C023323E1F020918E
:102450008D022223C1F045EB3403C00111249923DE
:1024600019F090938C0203C081E080938C0235EBCD
:102470002303C0011124992319F090938D0203C006
:1024800081E080938D021C81111104C08D8188230D
:1024900009F452C080918702909188020E941F2007
:1024A0009C0190918402992309F460C12531310582
:1024B00008F442C09F3F19F09F5F9093840211235C
:1024C00061F00E948221111614F09FEF01C091E08B
:1024D000899F802D112480938E021D81112361F02C
:1024E0000E948221111614F09FEF01C091E0899F94
:1024F000802D112480938F0230918E023323E1F0DE
:1025000020918F022223C1F045EB3403C001112436
:10251000992319F090938E0203C081E080938E027C
:1025200035EB2303C0011124992319F090938F02F6
:1025300003C081E080938F0245E050E0BE016F5FF1
:102540007F4F8BE892E00E949125892BA9F480911E
:102550008C0281110FC080918D0281110BC080917E
:102560008E02811107C081E090918F02911103C00A
:1025700080E001C081E080FD0E94E42085E0FE0152
:102580003196ABE8B2E001900D928A95E1F70E9496
:10259000B7209091D10189138093D10180919E0140
:1025A000843009F039CE8093E9008091E80082FF01
:1025B00033CE8091E80085FF22C00E94A30F8111D5
:1025C0001CC000E210E05E0141E2A40EB11C08C094
:1025D0008091F100F50181935F010150110969F0CB
:1025E0008091E80085FDF4CF8091E8008B7780939F
:1025F000E8000E94A30F882399F391E001C090E0C6
:102600008091E8008B778093E800992309F404CE49
:1026100089A18130E9F158F1823021F0843009F448
:102620007DC0FACD8BA19AA19093D2018093D30162
:102630008DA19CA19093D4018093D5018FA19EA1DF
:102640009093D6018093D70142E150E063E270E0BD
:10265000CE018F5B9F4F0E949B2384E0898381E0A2
:1026600080939D018EEF8A8310929C010CC0198289
:102670008CE0EDE2F1E0DE01129601900D928A9578
:10268000E1F78EEF8D87CE0101960E940010C4CD38
:1026900008ED11E00E94C420F801819391938F010D
:1026A000F1E00E3D1F07B1F781E089839091D801D9
:1026B0009A839091D9019B839091DA019C839091A8
:1026C000DB019D839091DC019E839091DD019F83CE
:1026D0009EEF988780939C01CE0101960E94001086
:1026E00042E150E063E270E0CE0101960E949B233C
:1026F000FE01319682E183301CF09189928B01C0FA
:10270000128A815031978F3FB1F742E150E063E286
:1027100070E0CE0101960E94BF237ECD80919D0185
:10272000882309F479CD80E00E94C11A8AA10E9411
:10273000F81A72CD09BD19BD09B400FEFDCF809114
:10274000D8008F7D8093D8008091E00082608093D4
:10275000E0008091E00081FDFCCF10926E010E94AC
:10276000091B61CD232B09F04ECE8DCE213931408E
:1027700008F0A2CEE1CE80E0089590919B0292FFF6
:102780000DC0282F2871283019F4877F846006C077
:10279000282F2471243011F48B7F886093FF0DC0A3
:1027A000282F2871283119F4877E846106C0282FCC
:1027B0002471243111F48B7E886120919C0220FFCA
:1027C0000DC0382F3871383019F4877F816006C00A
:1027D000382F3171313011F48E7F886021FF0DC0A8
:1027E000282F2871283119F4877E816106C0282F8F
:1027F0002171213111F48E7E886194FD877E0895C8
:102800007E30A0F4663090F494E5899FF0011124A5
:1028100086E0789FE00DF11D1124E60FF11DEE0F0B
:10282000FF1FED55F74F85919491089580E090E05A
:102830000895CF93DF938238910569F1B0F4813325
:10284000910509F46FC048F48932910509F465C017
:102850008A32910509F46BC08AC08533910509F469
:1028600057C089339105B9F082C0833E910571F15B
:1028700038F4803E9105B1F0823E910511F177C0A8
:10288000863E9105B9F1873E9105C9F1843E9105D7
:1028900009F06DC024C020919B0220FD53C021FD92
:1028A00051C065C080919B0280FD46C080919C0212
:1028B00080FF48C080919B0284FD50C183EE90E070
:1028C0004FC180919B0282FF3AC0F4CF80919B025E
:1028D00082FD35C080919C0280FD34C0EBCF809199
:1028E0009C0281FF35C080919B0284FD37C187EE39
:1028F00090E036C180919B0283FF27C0F4CF809186
:102900009B0283FD22C080919C0281FD21C0EBCF00
:1029100080919B0285FD1FC021C080919B0285FD97
:102920001DC019C080919B0286FD1BC01DC08091F7
:102930009B0286FD19C015C089E390E011C182EEAB
:1029400090E00EC180EE90E00BC186EE90E008C1F1
:1029500084EE90E005C189E290E002C185E390E059
:10296000FFC08AE290E0FCC081E390E0F9C08115ED
:1029700031E5930708F069C0811540E59407F0F050
:102980009C0174E0369527957A95E1F7922F937024
:10299000482F437021E030E002C0220F331F4A95D8
:1029A000E2F73C68392B982F9F709695969540E2F8
:1029B000949FC0011124822B932BD2C0883E910595
:1029C00068F5803E910508F0CBC0883A9105B8F4CF
:1029D000853A910548F0855AE82FF0E0E75CFE4F14
:1029E000808190E09064BCC08130910509F4B3C04F
:1029F00008F4B4C08430910508F4B0C0B1C08F3B76
:102A0000910508F0ABC0885AE82FF0E0EE0FFF1FE9
:102A1000E45CFE4F808191819464A2C0811520E224
:102A2000920758F4811531E0930708F099C08D3E64
:102A3000910508F493C0906593C0811540E4940714
:102A400008F48CC09F70906A8BC0811525E59207B1
:102A500008F042C0811534E5930728F0982F8827A5
:102A6000846F906A7DC0811543E59407B0F09C01A6
:102A70002370332741E050E002C0440F551F2A95D0
:102A8000E2F7282F2695269580E2289F90011124B1
:102A9000CA01822B932B9A6863C0811522E59207A5
:102AA00028F4982F8827816F906A5AC09C01237060
:102AB000332741E050E002C0440F551F2A95E2F74A
:102AC000282F2695269580E2289F90011124CA017F
:102AD000822B932B9C6844C0EC01811539E5930748
:102AE000A8F48115984528F09C2F8827806F906A5C
:102AF00037C0C11586E5D80788F58C2F0E94BD1315
:102B00008F7190E0982F882790622AC081152AE55E
:102B1000920790F48C2F8F700E94BD1394E0D6958D
:102B2000C7959A95E1F7CF70D0E0DC2FCC27D0691C
:102B30009E01282BC90114C090568115904270F453
:102B40008D2F8F710E94BD13282F2F71CE019927D1
:102B50009062922B05C081E090E002C080E090E09E
:102B6000DF91CF91089568EE7EEF80E090E00E94C3
:102B7000ED2360E082E090E00E94CF2360E083E0FC
:102B800090E00E94CF231092590260E084E090E030
:102B90000E94CF2364E082E290E00E94CF2360E0B5
:102BA00085E090E00E94CF2360E086E090E00E9404
:102BB000CF236FEF87E090E00E94CF2340E050E00A
:102BC000BA0188E090E00E94E12360E08DE090E0AF
:102BD0000E94CF2340E050E0BA0188E190E00E94DB
:102BE000E12360E087E190E00E94CF2340E050E0E5
:102BF000BA018CE190E00E94E12360E070E080E2A5
:102C000090E00E94ED2340E050E0BA0188E190E0BE
:102C10000E94E1231092A1011092A2011092A3013F
:102C20001092A40184E08093A1014091A1015091F0
:102C3000A2016091A3017091A4018FE090E00E9435
:102C4000E12340E050E0BA0183E190E00E94E123FB
:102C5000089580915802811110925802089580952C
:102C600090916E01892380936E01089590916E0179
:102C700080915702982B9093DE018091580288230F
:102C8000D9F0892B8093DE0180910A01882331F0ED
:102C900080919B0287FF02C08EE101C086E0E0EEDA
:102CA000F1E090E0815028F021912223D9F39F5F39
:102CB000F9CF91110E94291640E250E067E372E0DB
:102CC0008EED91E00E949125892B21F180E2EEEDBD
:102CD000F1E0A7E3B2E001900D928A95E1F7E0916F
:102CE0009202F09193023097A9F080910A01882313
:102CF00059F080919B0287FF07C08091DE0180938D
:102D0000DF0186E08093DE010280F381E02D8EED0D
:102D100091E0099508952091360280958223809351
:102D20003602982F977099F430E0482F082E000C47
:102D3000550B2417350759F090919C0292FF07C05C
:102D40008595859585950E94EB1A10923602089517
:102D5000CF93C0919C02C2FB992790F9981791F0EC
:102D600080FBC2F9C0939C0260919B0284E090E0DA
:102D70000E94CF236C2F82E290E00E94CF2382E05A
:102D80000E948B16CF910895809135029091040294
:102D9000891719F08F5F8770FBCF08950F931F93EA
:102DA000CF93DF938091030282958F7009F05AC010
:102DB00080910002882309F455C08091350210915A
:102DC00004026091FE017091FF01C0910102D09157
:102DD000020291E06F3F09F090E0292F06E0811791
:102DE00009F440C0209721F07F3F21F030E003C07C
:102DF00031E001C0322F90E030FD31C0089FF0017A
:102E0000099FF00D1124DF01AB5FBD4F11963C917E
:102E10001197371324C03C91361321C012963C9170
:102E2000129731111CC013964D915C9114974C1B55
:102E30005D0B483C510598F4809103028F708061CE
:102E400080930302E65FFD4F80818F7080618083F5
:102E50008EEF91E00E9419060E94C41603C00196ED
:102E60008770BDCFDF91CF911F910F910895A0E0A2
:102E7000B0E0EDE3F7E10C941123809117019091FC
:102E80001801892B91F080915A028F5F80935A022A
:102E900081110BC00E94DD1D90E09093180180937A
:102EA0001701892B11F40E94541E05EA11E07801E4
:102EB000B12CC0E087E0C82ECC0E8C2F0E94C41E1F
:102EC0008C2D0E94C41E8C2F0E94271F8F73F70128
:102ED0009081891721F08083DD24D39401C0D12C07
:102EE0008C2D0E94271F8F73F7019781891719F086
:102EF000878381E001C080E0D82ABD280E94181F86
:102F0000CF5FFFEFEF1AFF0AC730A1F6C0915E0254
:102F1000CC23C9F10E942E2020915C0230915D02E9
:102F2000AC01421B530B9A0190935D0280935C02AB
:102F30004F3F510509F020F4452B09F4B0C002C001
:102F40002FEF30E010925E0210925B02E0919F0141
:102F5000F091A001AF01425F5F4F90E030E08081CF
:102F6000882341F0281718F010829C2F03C0821B81
:102F700080833C2F3196E417F50789F730935E0282
:102F800090935B028CC0BB2009F480C00E942E206D
:102F900090935D0280935C02E0919F01F091A0010B
:102FA00080915E02A4EBB1E09F01225F3F4F4EE1B2
:102FB000E80199918E015C91591731F050815111BE
:102FC00003C040839C9381E031961196E217F3078A
:102FD00079F780935E0220919C018091600290912C
:102FE00061022223C9F1892B31F425982D98269866
:102FF0002E9827982F98809160029091610291708D
:10300000892B79F480915F02882319F026982E98F5
:1030100002C0269A2E9A90915F0281E089278093C0
:103020005F0280916002909161028130984750F078
:1030300010929C018091B3010E94B31D1092610215
:1030400010926002809160029091610201969093CB
:103050006102809360020AC0892B41F010926102E4
:10306000109260028091B3010E94B31D0E94B720AC
:1030700081FF03C0279A2F9A16C08091B3010E9446
:10308000BF1C833081F027982F980DC080E090916D
:103090005B02992309F49FCF81117ECF77CFB110C6
:1030A0007BCF81E0F4CF8B2DCDB7DEB7E9E00C9478
:1030B0002D2380E090E00E94A12080E090E00E941B
:1030C0008B20109257020E943616EBE8F2E085E062
:1030D000DF011D928A95E9F7109285021092840211
:1030E000109286020E94E4200895CF92DF92FF9210
:1030F0000F931F93CF93DF936C010091B3018091E5
:103100005902082BC7E0D0E010E0C8010C2E02C025
:10311000959587950A94E2F780FD04C02197A8F75A
:10312000F12C09C0FC2EB6018C2F0E9400140E94C5
:103130001914019799F38F2DDF91CF911F910F9162
:10314000FF90DF90CF900895CF93DF93EC010E9422
:103150007518BE010E9400140E941914DF91CF91CE
:103160000895FC01808191810E94A41892959F701E
:10317000963079F010F4925001C09A50923068F471
:10318000803F69F018F4883E40F409C0843F29F478
:1031900006C0883E20F0813F11F080E0089581E074
:1031A0000895A1E1B0E0E7EDF8E10C940F238C0164
:1031B00085E0F801DE011D9601900D928A95E1F7F8
:1031C000F801E2809091FE016091FF0140910102BF
:1031D000509102024115510531F06F3F31F481E009
:1031E0009F3F19F403C081E001C080E0F82FF17027
:1031F0009F2E80FD1BC1F80130812181C380D480C6
:103200008EEFA82E81E0B82EF0900002F601E41BAC
:10321000F50BFF2009F4C7C080910302E83CF105DB
:1032200008F092C0482F407F09F051C0621311C0CE
:1032300093130FC0FE2CE1100CC08F70806180933F
:103240000302C5010E94190680910302F8018583DB
:103250002AC1C114D10431F02F3F31F481E03F3F46
:1032600019F403C081E001C080E080FD03C081E06B
:103270008E2502C080E090E0F82FF170FF2E80FFD5
:103280001CC0809135024091040256E0841709F475
:10329000E8C090E0589FF001599FF00D1124EB5FBA
:1032A000FD4F6181261306C06081631303C06281F4
:1032B000E61203C001968770E9CFFE2CEE2009F4D8
:1032C000F2C08091030281608093030249C06213BF
:1032D00006C0931304C0E11002C0F80186C0C80103
:1032E0000E94B118882351F1EE2041F12091030290
:1032F000822F82958F7090E0029774F08091FE018A
:103300009091FF0198878F831986DB86CA862C8768
:10331000CE0107960E94190686E0F801AEEFB1E0F3
:1033200001900D928A95E1F70E94CE160AC06217AD
:10333000C9F0C8010E94B11881111EC0C8010E94C5
:103340001906FF24F394AFC0482F407F81F78EEF1A
:1033500091E00E94190686E0F50111928A95E9F73D
:10336000F12CA1C09313E5CFE110E3CFF8018583E1
:10337000C8010E94190654C0EE2001F320910302F7
:10338000822F82958F7090E0029734F28091FE0137
:103390009091FF019A8389831B82DD82CC822E83E8
:1033A000CE010196B7CFE83CF105D0F5FE2CEE201A
:1033B00029F2621327C0931325C02091030220FD38
:1033C00018C0822F82958F70482F50E0411551050B
:1033D00081F0F80125834F30510541F08F5F982F20
:1033E0009295907F822F8F70892B8583C8010E94D0
:1033F000190686E0F801AEEFB1E001900D928A95D2
:10340000E1F751C0C8010E94B118811185CF8091A8
:103410000302816080930302C8010E94190643C021
:1034200086E0F50111928A95E9F73DC0EE2009F496
:1034300085CFC8010E94B118F82E882309F47ECFE9
:1034400086E0F801AEEFB1E001900D928A95E1F7C8
:103450008091FE019091FF010E94A4180E94CE1657
:1034600022C03D872E878D859E850E94A418292F16
:1034700022952F70223028F49F7039F0811105C0F9
:103480000BC0243028F49F7049F4805E883020F00F
:10349000C8010E9419069F2CF92C05C0F8019581DE
:1034A000907F99F7F9CF8F2D6196EBE00C942B2349
:1034B000292F9E3078F5863068F590E036E0239F1E
:1034C000800D911D1124682F677023E096958795D4
:1034D0002A95E1F7FC01EE0FFF1FE80FF91FEE59E7
:1034E000FD4F40E050E080E0219130E0062E02C028
:1034F000369527950A94E2F721703327042E01C0F0
:10350000220F0A94EAF7822B4F5F5F4F4330510539
:1035100059F7089580E00895292F9E3088F5863068
:1035200078F590E036E0239F800D911D1124282F1F
:10353000277051E001C0550F2A95EAF723E09695D0
:1035400087952A95E1F7FC01EE0FFF1FE80FF91FA1
:10355000EE59FD4F20E030E070E04081CB01022EBB
:1035600002C0969587950A94E2F781708195842729
:103570008523842781932F5F3F4F2330310569F7DF
:103580000895A0E2B0E0E7ECFAE10C9417230E9462
:10359000B31D182F80919D018823A9F02FEF80E79C
:1035A00092E0215080409040E1F700C0000085E0AB
:1035B0008983812F0E94BF1C8A838EEF8B83CE016B
:1035C00001960E9400101093B3010E945918A09612
:1035D000E3E00C94332321E030E001C0220F8A9510
:1035E000EAF720958091B30182230E94C11A0895C1
:1035F00021E030E001C0220F8A95EAF78091B30103
:10360000822B0E94C11A0895809359020E94591872
:10361000089580910A01882331F080919B0287FFF1
:1036200002C08EE101C086E0E0EEF1E0DF011D9214
:103630008A95E9F70E9459180895882321F00E947D
:103640002F160E9436160895882339F090916E0146
:10365000892B80936E010E9436160895882391F17C
:103660009CEF980F913A30F4682F8EED91E00E9414
:1036700063200DC090E2980F983060F4877091E05D
:1036800001C0990F8A95EAF7892F0E942F160E9490
:10369000361608959BE5980F933028F480E090E06B
:1036A0000E94A120089598E5980F973128F480E0B2
:1036B00090E00E948B2008958D3E20F00E940B2107
:1036C0000E94E4200895CF93882309F49FC0C82F57
:1036D0008CEF8C0F813A08F05BC080910A0188233F
:1036E000E1F080919B0287FF18C0EC2FE695E695EC
:1036F000E695F0E0E252FE4F8281282F30E04C2F19
:10370000477081E090E002C0880F991F4A95E2F768
:1037100082239323892B59F411C0E0EEF1E08191CB
:10372000C81729F081E0E63EF807C9F707C06C2FFB
:103730008EED91E00E9463200E94361680910A016E
:103740008823B1F080919B0287FF12C0EC2FE69591
:10375000E695E695F0E0E252FE4FC77081E090E01A
:1037600001C0880FCA95EAF79281892B828320C015
:10377000A0EEB1E0EFEF80E09D91C917C9F0EF3FF7
:1037800019F4911101C0E82F8F5F8630A9F735C079
:1037900080E28C0F883078F4C77081E090E001C03F
:1037A000880FCA95EAF790916E01892B80936E017C
:1037B0000E9436162BC0EBE5EC0FE33040F4F0E04E
:1037C000E75CFE4F808190E00E94A1201FC0E8E5E9
:1037D000EC0FE73150F4F0E0EE0FFF1FE45CFE4F1A
:1037E000808191810E948B2011C0CD3E78F08C2F7A
:1037F0000E94C5210E94E42009C0EF3FC9F20E2EAD
:10380000000CFF0BE252FE4FC283D2CFCF9108953E
:103810001F93CF93DF93182FEB010E94631B209718
:1038200041F08FE99FE00197F1F700C00000219778
:10383000F6CF812F0E942E1BDF91CF911F9108950B
:10384000A7E1B0E0E6E2FCE10C9417234B8B5C8B24
:103850006D8B7E8B8F8B61111092570286E09E01DB
:10386000235F3F4FD901E82F1D92EA95E9F795E0D4
:10387000FE017396D90101900D929A95E1F79C890A
:103880004E895F897B897D879E876F87598B488B9F
:10389000F901DE01179601900D928A95E1F7CE01AC
:1038A00007960E94D11881113EC086E0FE0137962E
:1038B000DE01119601900D928A95E1F7FF81E8856E
:1038C0006A857B856115710531F0EF3F31F481E048
:1038D000FF3F19F403C081E001C080E080FD23C0F8
:1038E0002091040230E0C901019687709927409128
:1038F000350250E08417950779F1F983EA837D83D7
:103900006C8396E0929FD001939FB00D1124AB5F22
:10391000BD4FFE01319601900D929A95E1F780938B
:1039200004020E94C41616E08091350290910402B0
:10393000891709F1189FC00111248B5F9D4F0E94C8
:10394000D1188823C1F08091350290E001968770EC
:10395000992780933502E8CF10926E010E94091BCF
:103960001092040210923502EEEFF1E086E0DF01E2
:103970001D928A95E9F76796E3E00C943323982F1C
:1039800092959F7019F0892F24E001C020E0982FB4
:103990009695969511F02E5F892F982F969509F0A0
:1039A0002F5F822F0895A0E0B0E0E9EDFCE10C94D8
:1039B0001023EC018AE0A82EFE012491222309F4B1
:1039C000B5C0213009F044C031968491813059F45A
:1039D0002296FE018491893319F060E070E091C075
:1039E00060E570E08EC0823031F42296FE01849151
:1039F0000E94631B8AC0833031F42296FE018491B9
:103A00000E942E1B82C0843009F07EC02296FE01E7
:103A1000249180E090E030E0205331092A303105D4
:103A200060F4A89EA001A99E500D1124C901840F25
:103A3000951F2196FE012491EECF009709F465C0F1
:103A4000EFE9FFE03197F1F700C000000197F5CFF3
:103A5000E22FF0E0ED58F44FB490822F86958695D2
:103A6000869590E0FC01ED59F44FE4902770F12C1D
:103A7000022E02C0F594E7940A94E2F7F1E0EF22F7
:103A8000FF24FC01ED5AF44FC490D12C022E02C049
:103A9000D594C7940A94E2F731E0C322DD24FC01F7
:103AA000ED5BF44F049110E002C0159507952A953F
:103AB000E2F701701127E114F10419F081EE0E9480
:103AC000631BC114D10449F186EE0E94631B89E394
:103AD000B816E9F060E070E08B2D0E94081CC1145C
:103AE000D10419F086EE0E942E1BE114F10419F0A6
:103AF00081EE0E942E1B0115110539F060E070E087
:103B00008CE20E94081C01C0EF01219655CF60E5B0
:103B100070E089E30E94081CE5CFE9E3BE12DACF2A
:103B200060E570E089E30E94081CDFCFCDB7DEB707
:103B3000EAE00C942C2310926E010E94091B2FEFD7
:103B400084E39CE0215080409040E1F700C00000F9
:103B50009AE088E10FB6F894A895809360000FBEB4
:103B600090936000FFCFCF93C82F0E94BF1C569840
:103B70005E9825982D9826982E9827982F9890E053
:103B8000FC013197E730F105A8F4E757FF4F0C949B
:103B90006A24259A2D9A0EC0259A2D9A269A2E9A35
:103BA00009C0259A2D9A04C0259A2D9A269A2E9AF4
:103BB000279A2F9A8C2FCF91089580E290E09093CE
:103BC0001801809317018091830281110EC00E9419
:103BD000202281E0809383022FEF83ED90E3215038
:103BE00080409040E1F700C0000060E570E080E4B4
:103BF0000E9426229093180180931701892B09F0C7
:103C00004EC060E570E080E00E949B229093180116
:103C100080931701892B09F042C060E570E080E0D5
:103C20000E949B229093180180931701892BB9F56C
:103C300060E570E08FE30E949B22909318018093CF
:103C40001701892B61F50E94F02260E570E080E4A5
:103C50000E9426229093180180931701892BF9F472
:103C600060E570E08CE00E949B22909318018093A5
:103C70001701892BA1F460E570E080E00E949B228F
:103C80009093180180931701892B49F460E570E047
:103C90008FE30E949B2290931801809317010E944A
:103CA000F022809117010895CF93DF9356985E9884
:103CB00025982D9826982E9827982F98C8E8D0E018
:103CC0008FEF90E099838883AAE8B0E011969C93E7
:103CD0008E93ECE8F0E091838083259A2D9A2FEF64
:103CE00080E792E0215080409040E1F700C0000062
:103CF000269A2E9A2FEF80E792E021508040904044
:103D0000E1F700C00000279A2F9A2FEF80E792E09A
:103D1000215080409040E1F700C0000025982D9888
:103D20002FEF80E792E0215080409040E1F700C003
:103D3000000026982E982FEF80E792E021508040D7
:103D40009040E1F700C0000027982F988091A101D2
:103D500087702FEF829FC0011124959587959595C7
:103D6000879599279983888311969C938E93918345
:103D7000808356985E9825982D9826982E98279897
:103D80002F98DF91CF910895CF93E82F873080F55A
:103D90008091170190911801892B09F047C0CE2F0F
:103DA00060E570E080E40E942622909318018093E1
:103DB0001701892BD1F460E570E082E10E949B221B
:103DC0009093180180931701892B79F481E090E09A
:103DD00001C0880FCA95EAF760E570E080950E94FF
:103DE0009B2290931801809317010E94F0221EC01D
:103DF00090E0FC013797E730F105C0F4E057FF4F42
:103E00000C946A24209A289811C0219A29980EC0EF
:103E1000229A2A980BC0239A2B9808C0529A5A9833
:103E200005C0539A5B9802C03E9A4698CF91089578
:103E3000209828982198299822982A9823982B9896
:103E400052985A9853985B983E9846980895CF9305
:103E5000873040F58091170190911801892B59F511
:103E600060E570E081E40E9426229093180180931F
:103E70001701892B11F0C0E011C080E590E00E948D
:103E8000CB2297FF05C09093180180931701F3CFC1
:103E9000C82FC09510921801109217010E94F022AD
:103EA0008C2F0AC09FB18FB1807F869586959370C5
:103EB000892B809501C080E0CF9108958098889AE1
:103EC0008198899A84988C9A85988D9A86988E9AEA
:103ED00087988F9A089580917001089522E0209329
:103EE000E9002FEF3091E800215035FD06C035ED97
:103EF0003A95F1F700002111F5CF2091E80025FF58
:103F00000BC040E050E065E070E00E94D60F809169
:103F1000E8008E778093E8000895CF93DF93209197
:103F20000A01222339F020919B0227FF03C060E29F
:103F300025E002C068E021E02093E9002FEF3091F6
:103F4000E800215035FD06C035ED3A95F1F7000047
:103F50002111F5CF2091E80025FF1DC0EC018091D3
:103F60000A01811105C040E050E068E070E003C044
:103F700070E040E050E0CE010E94D60F8091E80052
:103F80008E778093E80080E2FE01A1E7B1E0019026
:103F90000D928A95E1F7DF91CF91089580939D026C
:103FA00070939F0260939E0280919E01843001F580
:103FB00085E08093E9008FEF9091E800815095FDB6
:103FC00006C095ED9A95F1F700008111F5CF80912B
:103FD000E80085FF0DC040E050E063E070E08DE94F
:103FE00092E00E94D60F8091E8008E778093E800DF
:103FF000089578941F920F920FB60F9211248F9309
:104000009F93AF93BF938091970290919802A09154
:104010009902B0919A020196A11DB11D8093970259
:1040200090939802A0939902B0939A02BF91AF9196
:104030009F918F910F900FBE0F901F9018959C012C
:104040004FB7F8948091970290919802A0919902AD
:10405000B0919A024FBF821B930B08952FB7F8942B
:104060008091970290919802A0919902B0919A0242
:104070002FBF08951F920F920FB60F9211248F93A6
:104080009F93AF93BF9380919602811113C080914B
:10409000970290919802A0919902B0919A0241964C
:1040A000A11DB11D8093970290939802A09399024D
:1040B000B0939A02BF91AF919F918F910F900FBED5
:1040C0000F901F90189520910A012223C9F020918A
:1040D0009B0227FF15C0262F2695269526952E3163
:1040E000C8F4FC01E20FF11D677081E090E001C0AF
:1040F000880F6A95EAF780959281892382830895D3
:10410000FC0106962281621301C012823196E817E3
:10411000F907C1F70895209194023091950228176C
:10412000390771F09093950280939402E091920286
:10413000F0919302309721F00084F185E02D0995EC
:10414000089520919002309191022817390771F05B
:104150009093910280939002E0919202F0919302E9
:10416000309721F00680F781E02D09950895E091C0
:104170009202F0919302309729F00190F081E02DA6
:104180000995089580E00895CF93DF930E948B23D3
:1041900066E070E00E945624D82F0E948B236EE0C8
:1041A00070E00E945624C82F6D2F782F80E00E9467
:1041B00000140497C59718F48D2F9C2F02C00E94FD
:1041C000C420DF91CF9108950E942E2020918C026F
:1041D000211104C020918D02222321F090938A02A4
:1041E0008093890220918E02211104C020918F02B8
:1041F000222321F09093880280938702E09192021B
:10420000F0919302309731F00480F581E02D8BE836
:1042100092E0099508958D3E39F490918D0297FFB3
:1042200035C010928D0259C08E3E29F490918D02B6
:104230001916BCF32BC090918C028F3E29F497FF86
:1042400025C010928C0249C0803F19F41916CCF396
:104250001DC090918E02893F29F41916BCF410926A
:104260008E023BC08A3F19F497FF10C0F8CF8B3FF6
:1042700039F490918F0297FF09C010928F022DC0E0
:104280008C3F21F490918F021916BCF39FE0980F98
:10429000983080F421E030E0A90102C0440F551F9E
:1042A0009A95E2F7CA01809590918B0289238093B9
:1042B0008B0213C08D3F21F4809186028E7F0BC04C
:1042C0008E3F21F4809186028D7F05C08F3F29F4B7
:1042D000809186028B7F8093860280918C0281116F
:1042E00006C080918D02811102C0109285028091DA
:1042F0008E02811106C080918F02811102C010923E
:10430000840208958091860280FD18C081FD14C04A
:1043100082FD16C080918402882381F08C3380F462
:1043200027E0829FC00111246CE370E00E945624B4
:10433000862F672B19F005C083E0089581E008956A
:1043400087E008958091860280FD17C081FD17C027
:1043500082FD19C080918502882399F08C3398F4EE
:1043600028E3829FC00111246CE370E00E94562470
:10437000862F672B49F481E008958EE008958CE143
:10438000089588E0089588E308958D3E21F40E9401
:10439000A221819504C08E3E29F40E94A22180931F
:1043A0008D0208958F3E21F40E94A221819504C0C0
:1043B000803F29F40E94A22180938C020895893FB6
:1043C00019F40E94822105C08A3F31F40E948221A3
:1043D000819580938E0208958B3F21F40E94822163
:1043E000819504C08C3F29F40E94822180938F0222
:1043F00008959FE0980F983078F421E030E0A9010B
:1044000002C0440F551F9A95E2F7CA0190918B02A2
:10441000892B80938B0208958D3F21F48091860231
:1044200081600BC08E3F21F480918602826005C0BE
:104430008F3F29F4809186028460809386020895DC
:104440001092B9008CE08093B8000895A0E0B0E02D
:10445000ECE2F2E20C940F23B82EEB010E942E2026
:104460006C01C431D10558F0CF3F8FEFD80759F018
:10447000CE0164E170E00E94F4227B0107C0EE24CB
:10448000E394F12C03C025E0E22EF12C84E8A82E61
:1044900094EA992E1092BC009092BC000E942E20AB
:1044A0008C018091BC0087FD08C00E942E20801BDB
:1044B000910B8E159F05A8F32AC08091B900887FC3
:1044C000883041F08091B900887F803119F00FEF7A
:1044D0001FEF1FC0B092BB00A092BC000E942E2014
:1044E0008C018091BC0087FD08C00E942E20801B9B
:1044F000910B8E159F05A8F30AC08091B900887FA3
:10450000883111F0803419F700E010E00EC00EEF92
:104510001FEFCF3F8FEFD80709F4BCCFC6010E9431
:104520001F208C179D0708F4B5CFC801CDB7DEB7A3
:10453000EBE00C942B230F931F93CF93DF93EB01AE
:104540008093BB0084E88093BC000E942E208C01E5
:104550008091BC0087FD0EC0CF3F8FEFD807C1F31D
:104560000E942E20801B910B8C179D0788F38EEFE5
:104570009FEF0CC02091B900287F81E090E02832A5
:1045800011F480E090E0919581959109DF91CF91B0
:104590001F910F9108950F931F93CF93DF93EC0119
:1045A00084E88093BC000E942E208C018091BC0086
:1045B00087FD0EC0CF3F8FEFD807C1F30E942E209A
:1045C000801B910B8C179D0788F38EEF9FEF03C024
:1045D0008091BB0090E0DF91CF911F910F910895E2
:1045E00084E98093BC000895AA1BBB1B51E107C05E
:1045F000AA1FBB1FA617B70710F0A61BB70B881F73
:10460000991F5A95A9F780959095BC01CD01089501
:104610002F923F924F925F926F927F928F929F92D2
:10462000AF92BF92CF92DF92EF92FF920F931F93C0
:10463000CF93DF93CDB7DEB7CA1BDB0B0FB6F89471
:10464000DEBF0FBECDBF09942A88398848885F84B1
:104650006E847D848C849B84AA84B984C884DF8022
:10466000EE80FD800C811B81AA81B981CE0FD11D06
:104670000FB6F894DEBF0FBECDBFED0108958F9247
:104680009F92AF92BF92CF92DF92EF92FF92CF9321
:10469000DF93EC01688179818A819B8161157105C5
:1046A0008105910521F464E279ED8BE597E02DE138
:1046B00033EF41E050E00E94F32349015A019B018E
:1046C000AC01A7EAB1E40E9412246B017C01ACEEBC
:1046D000B4EFA50194010E942024DC01CB018C0DD4
:1046E0009D1DAE1DBF1DB7FF03C00197A109B048B6
:1046F00088839983AA83BB839F77DF91CF91FF90B3
:10470000EF90DF90CF90BF90AF909F908F900895E3
:104710000E943F23089580E091E00E943F23089586
:10472000A0E0B0E08093000190930101A09302010A
:10473000B09303010895DC01CB01FC01F999FECF90
:1047400006C0F2BDE1BDF89A319600B40D92415019
:104750005040B8F70895F999FECF92BD81BDF89AFF
:10476000992780B50895A6E1B0E044E050E00C94AC
:104770009D23A8E1B0E042E050E00C949D23DC01D1
:10478000A40FB51F4150504048F0CB01840F951F36
:104790002E910E94D02341505040D0F70895262FEB
:1047A000F999FECF92BD81BDF89A019700B4021627
:1047B00039F01FBA20BD0FB6F894FA9AF99A0FBED5
:1047C00008950396272F0E94D0230E94CF23252FE0
:1047D0000E94D023242F0C94D0230196272F0E94CF
:1047E000D0230C94CF23052E97FB1EF400940E9437
:1047F0000A2457FD07D00E94252407FC03D04EF45D
:104800000C940A2450954095309521953F4F4F4F79
:104810005F4F089590958095709561957F4F8F4F6C
:104820009F4F08950E944724A59F900DB49F900D1F
:10483000A49F800D911D11240895B7FF0C9412249C
:104840000E941224821B930B0895A1E21A2EAA1B28
:10485000BB1BFD010DC0AA1FBB1FEE1FFF1FA21730
:10486000B307E407F50720F0A21BB30BE40BF50B2D
:10487000661F771F881F991F1A9469F760957095B6
:10488000809590959B01AC01BD01CF010895A29F39
:10489000B001B39FC001A39F700D811D1124911D14
:1048A000B29F700D811D1124911D089597FB072E55
:1048B00016F4009407D077FD09D00E94F42207FC7B
:1048C00005D03EF4909581959F4F08957095619520
:1048D0007F4F0895EE0FFF1F0590F491E02D09948E
:1048E0000F931F93CF93DF938230910510F482E0F2
:1048F00090E0E091A202F091A30220E030E0A0E07D
:10490000B0E0309719F1408151810281138148173D
:104910005907C8F08417950769F4109731F012967B
:104920000C93129713961C9327C00093A202109326
:10493000A30222C02115310519F04217530718F4BC
:104940009A01BD01EF01DF01F801DBCF211531052F
:10495000F9F0281B390B2430310580F48A819B81C2
:104960006115710521F0FB019383828304C090934C
:10497000A3028093A202FE01329644C0FE01E20F20
:10498000F31F8193919322503109398328833AC0D0
:104990002091A0023091A102232B41F42091060125
:1049A000309107013093A1022093A00220910401CD
:1049B000309105012115310541F42DB73EB74091E5
:1049C000080150910901241B350BE091A002F091E0
:1049D000A102E217F307A0F42E1B3F0B281739079B
:1049E00078F0AC014E5F5F4F2417350748F04E0F4B
:1049F0005F1F5093A1024093A0028193919302C044
:104A0000E0E0F0E0CF01DF91CF911F910F91089589
:104A1000CF93DF93009709F481C0FC013297138292
:104A20001282A091A202B091A302109781F420817A
:104A30003181820F931F2091A0023091A10228178B
:104A4000390751F5F093A102E093A00267C0ED0190
:104A500020E030E0CE17DF0740F44A815B819E0101
:104A600041155105F1F0EA01F5CFD383C2834081AE
:104A70005181840F951FC817D90759F488819981EE
:104A8000840F951F0296918380838A819B819383F3
:104A900082832115310529F4F093A302E093A20249
:104AA0003DC0E901FB83EA8349915991C40FD51FA9
:104AB000EC17FD0761F480819181840F951F0296A8
:104AC000E90199838883828193819B838A83E0E0D3
:104AD000F0E012968D919C911397009719F0FD01CB
:104AE000DC01F7CF8D919C9111979D012E5F3F4F77
:104AF000820F931F2091A0023091A102281739073D
:104B000069F4309729F41092A3021092A20202C015
:104B100013821282B093A102A093A002DF91CF91E1
:104B20000895FB01DC0104C08D910190801921F4EE
:104B300041505040C8F7881B990B0895F894FFCF57
:104B4000010000000000A4022000016B1F8D1F6EF9
:104B50001F370B320B310B20004022476D97077532
:104B6000072E07C106E907020822083B08337779B8
:104B700037722F4A7878517A00818283E200E90007
:104B8000EA00B500B600B700CD008301CC008A0171
:104B90009201940121022302240225022602270207
:0A4BA0002A02B300B4006F00700099
:00000001FF
