:100000000C941C050C9439050C9439050C94390595
:100010000C9439050C9439050C9439050C94390568
:100020000C9439050C9439050C94AB130C94ED1217
:100030000C94AA200C9439050C9439050C943905BC
:100040000C9439050C9439050C9439050C94390538
:100050000C9439050C9469200C9439050C943905DD
:100060000C9439050C9439050C9439050C94390518
:100070000C9439050C9439050C9439050C94390508
:100080000C9439050C9439050C9439050C943905F8
:100090000C9439050C9439050C9439050C943905E8
:1000A0000C9439050C9439050C943905C805CE0516
:1000B000D405DA05E005E605EC05F205F805FE05D0
:1000C00004060A06100616061C06220628062E0638
:1000D00034063A06400646064C0619078D072107E6
:1000E000EB06EF062507F20628073307FD06830710
:1000F0000107370705073B07650709073F076F0734
:100100000F0745074F07F6062C07F9062F071407B8
:100110004A075B077B077D07E7061D0796078608EA
:100120008608B908B90836095409510A510A59090B
:10013000CD09DE09DE09F3101A11D5121A11D512F4
:1001400066118911D5128B129B12A81BAD1BB71B10
:10015000AB1BB01BB51BB31B0102E00102E10101A7
:10016000180103E10103E001043130307C01011E7C
:1001700001043130307C01012101043130307C0137
:10018000012101043130307C010128000102E0012D
:1001900002E10101180103E10103E0010431303003
:1001A0007C01010901043130307C0101210104315D
:1001B00030307C010128000102E00102E101011858
:1001C0000103E10103E001043130307C01011E0133
:1001D000043130307C01012101043130307C0101D7
:1001E0001F01043130307C010128000102E00102CE
:1001F000E10101180103E10103E001043130307C29
:1002000001010801043130307C0101060104313064
:10021000307C010128000102E00102E10101180126
:1002200003E10103E001043130307C0101080104E5
:100230003130307C01010901043130307C0101286A
:10024000000102E00102E10101180103E10103E004
:1002500001043130307C01010901043130307C016E
:10026000012001043130307C010128000102E0014D
:1002700002E10101180103E10103E0010431303022
:100280007C01010901043130307C01011F0104317E
:1002900030307C010128000102E00102E101011877
:1002A0000103E10103E001043130307C0101080168
:1002B000043130307C01010801043130307C01010F
:1002C00028000102E00102E10101180103E101033C
:1002D000E001043130307C01010901043130307C0F
:1002E00001012601043130307C010128000102E0C7
:1002F0000102E10101180103E10103E001043130D1
:10030000307C01011F01043130307C0101270104E0
:100310003130307C01010401043130307C010106B0
:1003200001043130307C010128000102E00102E1CA
:100330000101180103E10103E001043130307C01C7
:10034000010801043130307C0101240104313030D6
:100350007C010128000102E00102E1010118010312
:10036000E10103E001043130307C01011E01043160
:1003700030307C01012701043130307C010124013F
:10038000043130307C010128000102E00102E1016A
:1003900001180103E10103E001043130307C010167
:1003A0001E01043130307C01012401043130307CE5
:1003B00001010401043130307C010128000102E018
:1003C0000102E10101180103E10103E00104313000
:1003D000307C01011E01043130307C010124010414
:1003E0003130307C01010601043130307C010128BC
:1003F000000102E00102E10101180103E10103E053
:1004000001043130307C01010801043130307C01BD
:10041000011F01043130307C010128000102E0019C
:1004200002E10101180103E10103E0010431303070
:100430007C01010801043130307C010127010431C5
:1004400030307C010128000102E00102E1010118C5
:100450000103E10103E001043130307C01011E01A0
:10046000043130307C01012201043130307C010143
:100470000501043130307C010128000102E0010255
:10048000E10101180103E10103E001043130307C96
:1004900001011E01043130307C010127010431309B
:1004A000307C01012201043130307C01012800013F
:1004B00002E00102E10101180103E10103E001048E
:1004C0003130307C01010801043130307C010105FC
:1004D00001043130307C010128000102E00102E119
:1004E0000101180103E10103E001043130307C0116
:1004F000010801043130307C010104010431303045
:100500007C010128000102E00102E1010118010360
:10051000E10103E001043130307C01011E010431AE
:1005200030307C01011E01043130307C0101260194
:10053000043130307C010128000102E00102E101B8
:1005400001180103E10103E001043130307C0101B5
:100550000801043130307C01012501043130307C48
:10056000010128000102E00102E10101180103E19B
:100570000103E001043130307C0101080104313015
:10058000307C01012601043130307C010128000556
:10059000010980A101850319012AB700150126B7B9
:1005A00000950175108100C0050C0901A1018504A9
:1005B00019012AA002150126A002950175108100DB
:1005C000C005010906A1018506050719E029E715FF
:1005D0000025019508750181020507190029EF150D
:1005E00000250195F075018102050819012905957D
:1005F0000575019102950175039101C0050109027C
:10060000A1010901A1000509190129081500250109
:100610009508750181020501093009311581257F91
:1006200095027508810609381581257F95017508A1
:100630008106050C0A38021581257F950175088110
:1006400006C0C00660FF0961A1010962150026FF0E
:10065000009520750881020963150026FF0095208A
:1006600075089102C005010906A101050719E029D5
:10067000E71500250195087501810295017508812E
:10068000010507190029FF150026FF0095067508CA
:100690008100050819012905150025019505750139
:1006A0009102950175039101C009027400040100D3
:1006B000A0FA090400000103010100092111010051
:1006C000012244000705810308000109040100021A
:1006D0000300000009211101000122220007058307
:1006E00003200001070504032000010904020001A2
:1006F00003010200092111010001224700070582C0
:100700000310000109040300010300000009211186
:10071000010001226D000705850320000112010080
:100720000200000008973274490001010203011819
:1007300003330077007900370072002F003900344E
:100740000058007200330000001603450072006775
:10075000006F0064006F007800200045005A000020
:100760000028035A00530041002000540065006334
:100770000068006E006F006C006F00670079002059
:10078000004C006100620073000000040309042EA5
:10079000002B002900E100050100001E00140004E8
:1007A000001D003500E0001F001A0016001B003974
:1007B000004C00200008000700060050002C00211B
:1007C000001500090019004F004A00220017000A16
:1007D0000005000000E3002F022F000000260200A9
:1007E00000E20030023000000027020000E6002393
:1007F000001C000B0011000000E700240018000D91
:1008000000100051004D0025000C000E0036005273
:10081000002800260012000F00370062522A00272D
:10082000001300330038004900E4002D003100348B
:1008300000E5000057000001000100010001000177
:100840000000003A00037E087E0C7E460001003B5B
:1008500000047E097E0D7EAC0001003C00057E0A8E
:100860007E0E7EAE0001003D00067E01000F7EABD5
:100870000001003E00077E0B7E0100000001000128
:100880000021020000107E0000010001004B00006A
:10089000004E00000001003F0001000100197E0031
:1008A0000001004000117E157E0100AA00010041F8
:1008B00000127E167E0100A90001004200137E177F
:1008C0007E0100BE0001004300147E187E0100BDC1
:1008D000000100440045000100010001000000018A
:1008E0000001000100010001000000010001000101
:1008F0000001000100010001000100CF00D1000152
:100900000001000100CD00CE00D300010001000174
:10091000000100D000D2000100010001000100012F
:1009200000010000000100010001000000010000C2
:1009300000010001000100000001000000010001B1
:10094000000100010001000000010053005F005C95
:1009500000590001000100540060005D005A00626F
:10096000000100550061005E005B000100010056BF
:100970000057002E00580001000100010001000195
:100980000001000052000000000000000000000014
:100990000000000000000000000000000000000057
:1009A00000000000000000000000007E0F00D4FFE7
:1009B000FFFFC70000007800000000000000002AD0
:1009C0002B280000000000000000000000000000D4
:1009D000000029000000002C1E342021222434268F
:1009E00027252E362D3738271E1F20212223242588
:1009F000263333362E37381F0405060708090A0B3D
:100A00000C0D0E0F101112131415161718191A1BAE
:100A10001C1D2F3130232D350405060708090A0B4C
:100A20000C0D0E0F101112131415161718191A1B8E
:100A30001C1D2F3130354C0011241FBECFEFDAE0E2
:100A4000DEBFCDBF11E0A0E0B1E0EAE1FBE402C00F
:100A500005900D92A839B107D9F722E0A8E9B1E0D5
:100A600001C01D92A53CB207E1F70E94850A0C94D3
:100A70008B250C940000A0E0B0E0E1E4F5E00C94DC
:100A8000DE24DC0114962C91222309F439C58C0153
:100A900061E00E94B01AEC01F8018581882309F415
:100AA00081C28091B6029091B702009709F45EC0AE
:100AB000C817D90709F45AC0992764E0880F991F0D
:100AC0006A95E1F7FC01EF5EFE4F208124602083F0
:100AD000845F9E4FDC01CD93DC930E94B221109283
:100AE000B40261E0C8010E94B01AEC0181159E4772
:100AF00009F040C0F8018581882309F458C290911B
:100B0000AB0181E0890F8770987F853020F4892BB5
:100B10008093AB0102C09093AB018091AB018770D1
:100B2000FFEF8F9FC0011124959587959595879527
:100B30009927909389008093880090938B008093ED
:100B40008A0090938D0080938C004091AB0150916E
:100B5000AC016091AD017091AE018FE090E00E9418
:100B600042258091D2010E948C1B21C2C115FEE753
:100B7000DF0729F2FE01E350FE47D80115969C914C
:100B8000E731F10508F090C0EA5AFF4F0C94782540
:100B9000992309F4FBC084E695E083C0992309F406
:100BA000F5C089E395E07DC0992309F4EFC085E0A5
:100BB00095E077C0992309F4E9C08AED94E071C00B
:100BC000992309F4E3C08FEA94E06BC0992309F4F8
:100BD000DDC08BE794E065C0992309F4D7C087E4B2
:100BE00094E05FC0992309F4D1C08CE194E059C02E
:100BF000992309F4CBC081EF93E053C0992309F402
:100C0000C5C08DEB93E04DC0992309F4BFC089E8BE
:100C100093E047C0992309F4B9C085E593E041C04A
:100C2000992309F4B3C08AE293E03BC0992309F405
:100C3000ADC08DEE92E035C0992309F4A7C082ECD7
:100C400092E02FC0992309F4A1C087E992E029C05E
:100C5000992309F49BC08CE692E023C0992309F400
:100C600095C081E492E01DC0992309F48FC086E10C
:100C700092E017C0992309F489C08BEE91E011C06E
:100C8000992309F483C087EB91E00BC0992309F401
:100C90007DC08CE891E005C0992309F477C088E510
:100CA00091E00E94542272C09E0137552F3F3105BA
:100CB00011F008F06BC06E01DD24960144E0220FB4
:100CC000331F4A95E1F7F901E45FFE4F7F01A90167
:100CD0004F5E5E4F6A01DA018C9190FB80F98C9334
:100CE000F80185818823A1F10E949E209093CD0177
:100CF0008093CC01D70112968C9112978F5F129638
:100D00008C9312979091B4028091B502892B13961F
:100D10008C93139780912C0214968C9314971696AB
:100D20004D915C9117971E966D917C911F97C7010D
:100D30000E948F21F601808181FF03C090E080E056
:100D400002C09C2F8D2F9093B6028093B7021EC0D5
:100D5000D7011C964D915C911D971E966D917C91CB
:100D60001F97C7010E948F21F601808181FF0EC06D
:100D7000C7010E9495218091B6029091B7028C170D
:100D80009D0721F41092B7021092B602D801159671
:100D90008C91882309F460C1CE019057839708F0A5
:100DA000DBC084E090E00E941A259093BF028093FC
:100DB000BE02FE01E150F047E232F10520F4E359B2
:100DC000FF4F0C9478258091BE028160ACC0809169
:100DD000BF028860B4C08091BE028260A4C08091CE
:100DE000BE0220C08091BE0288609DC08091BF027B
:100DF0001EC08091BF028260A2C08091BE0280614D
:100E000092C08091BE0280628EC08091BE028064DA
:100E10008AC00E94F71D8091BE02806884C08091C4
:100E2000BE02886084607FC08091BF028260816062
:100E300086C08091BE028E7F76C08091BF02877F80
:100E40007EC08091BE028D7F6EC08091BE0220C0A8
:100E50008091BE02877F67C08091BF021EC08091D3
:100E6000BF028D7F6CC08091BE028F7E5CC080917E
:100E7000BE028F7D58C08091BE028F7B54C00E94FD
:100E8000F71D8091BE028F774EC08091BE02877F92
:100E90008B7F49C08091BF028D7F8E7F50C0809133
:100EA000BE0282FB222720F991E0922790FB82F973
:100EB00090FB83F938C08091BF02982F9095917074
:100EC0008E7F892B90FB81F93AC08091BE0286FB10
:100ED000222720F991E0922790FB86F924C00E94F6
:100EE000F71D8091BE0287FB222720F991E092270F
:100EF00090FB87F918C061E001C060E08EE090E0EF
:100F00000E9430251EC08091BE0284FB222720F95A
:100F100091E0922790FB84F906C08091BE02982F41
:100F2000909590FB80F98093BE020BC08091BF0228
:100F300083FB222720F991E0922790FB83F980938D
:100F4000BF026091BE027091BF0284E090E00E94F7
:100F50004E250E94F71D13C0C6312CE7D20751F56C
:100F60008091B5028A7A91E009F490E090939A0119
:100F70008111BAC289E20E9401210E942917809141
:100F80002B02877009F4BCC2D80115968C91882376
:100F900009F4B6C28091BF0282FFB2C282E00E9411
:100FA0007B17AEC2C1155EE7D50709F0E3CDC0E0FF
:100FB000DEE7ECCEC330BCE7DB0771F190F4C1157E
:100FC000FCE7DF07D9F0C130DC4709F049C00E94D7
:100FD000F71DEFEFF4E32CE0E150F0402040E1F7A3
:100FE0002AC0CB354CE7D40799F1CC355CE7D5075F
:100FF00039F1CA35DC47A1F581E02BC00E94F71D0D
:101000009FEFA4E3BCE09150A040B040E1F700C0E6
:1010100000000E943720B3CF6FEF7FEF80E090E0B9
:101020000E944E250E94F71D4FEF54E38CE0415083
:1010300050408040E1F700C000000E942C209FCF6C
:101040008091BF0282FB882780F991E0892701C047
:1010500080E00E94921704C0C631DC4709F446C202
:10106000F8018581C081D181882349F0CE010E9499
:101070000E1DF82E682FCE010E947E1D04C0CE01E9
:101080000E944A1DF82EBE018F2D0E94E8150E9475
:101090000516F82EC92FC82EF801D581E680E294F6
:1010A0009FE0E92280912B02877001F1DD23F1F0AE
:1010B0008C2F807F803469F080E28F0D8830B0F013
:1010C0008C2F807E803229F4F1E0FF1578F4EE2039
:1010D00069F08091BF0282FF09C082E00E947B1705
:1010E00080912B028770DD24D3948111D12CBC2EEA
:1010F000B2948FE0B8228B2D90E08C30910508F0EF
:10110000D0C1FC01E157FF4F0C9478258C2F807FD4
:10111000CF70882311F0C295C07FDD23B9F0CC23B6
:1011200009F4ADC180E28F0D883010F0C11006C007
:101130009091B502C92BC093B50205C09091B4023D
:10114000C92BC093B4020E94291799C18F2D0E9408
:10115000251FCC2309F4A5C180E28F0D883088F1CA
:10116000CC2079F1C0959091B402C923C093B40208
:101170002BC08C2F807FCF70803211F0C295C07F42
:101180008F2DCC2029F021E0C21609F44CC055C0A7
:101190008091BF0282FD1BC0DD2369F0CC2339F0B2
:1011A0009091B502C92BC093B5020E94291780E027
:1011B0000E94581F76C180E00E94251FCC2309F4AD
:1011C00070C18C2F0E9422170E9429176AC1DD234B
:1011D00081F0EE20B1F141E0E41263C190912C0264
:1011E0008C2F8923C81709F45CC1C92BC0932C022A
:1011F00058C1E11056C18C2F0E94281E80912C02EC
:101200009C2F982329F09C2F9095892380932C0262
:1012100020919B018C2F822309F443C1C0952C237C
:1012200020939B013EC1DD2329F051E05E1508F4B7
:1012300038C107C0E11035C115C0DD2331F0E11020
:101240001EC18C2F0E942F1E2CC1EE2059F0893315
:1012500009F024C18FEF97EEA3E081509040A040A9
:10126000E1F71AC18C2F0E94281E1BC18C2F869576
:101270008695837019F0813061F013C1DD2321F070
:101280008F2D9C2F937002C080E090E00E945D2122
:101290000EC1DD2321F08F2D9C2F937002C080E0C2
:1012A00090E00E94382103C16D2F8F2D0E94391EBE
:1012B000FEC08C2F8370A9F5D111F7C04F2D429538
:1012C00046954770440F440F8F2D8F7090E09C011E
:1012D000042E01C0220F0A94EAF7F4FE08C08FE042
:1012E00090E001C0880F4A95EAF7809501C080E040
:1012F000C695C695C370C23069F088F49091AA0172
:10130000C13019F0822B892302C0922B892B0E94B5
:10131000D11DCBC0822B9091AA018927F8CF822BB7
:10132000F6CFDD2319F08C2F817001C086958823BC
:1013300009F4BBC04F2D429546954770440F440FAA
:101340008F2D8F7090E09C01042E01C0220F0A9413
:10135000EAF7F4FE08C08FE090E001C0880F4A95DC
:10136000EAF7809501C080E0C695C695C370C2308B
:1013700059F078F49091D201C13019F0822B892371
:1013800009C0922B892B06C0822B9091D20189270C
:1013900001C0822B0E94B31D88C0CF70DD2339F0BD
:1013A0008C2F0E94C51D8F2D0E942F1E7EC08F2D59
:1013B0000E94281E8C2F0E94B81D77C08F2DB2EF7F
:1013C000CB1669F1BC1538F0E0EFCE1659F0F1EF0D
:1013D000CF1601F150C023EFC21641F144EFC416FD
:1013E000A9F049C0DD2369F0E1105BC0CF7181E055
:1013F00090E001C0880FCA95EAF79091D201892741
:101400001DC051E05E1508F44CC0F0CF8091BF02C2
:1014100082FD19C0DD2329F08C2F8F711FC0DD23C1
:10142000D9F38C2F8F710E94B81D3BC0DD2349F08A
:10143000CF7181E001C0880FCA95EAF70E94B31D01
:1014400030C080E0FBCFDD2361F08C2F8F7198E0FE
:10145000899F90011124236020932B020E94C51DB7
:1014600020C081E00E947B17A1E0AE15D0F482E09D
:101470000E947B1716C0DD2321F0EE2069F28F2D2C
:1014800097CEEE2071F2893349F4BFEFE7EEF3E037
:10149000B150E040F040E1F700C000008F2D0E9405
:1014A000251F88EF8B0D843010F40E948221DD20EF
:1014B000B1F080912B0280FD12C0D80115961C92CC
:1014C0008695869586950E94C51DC8010E943B059C
:1014D00080912B028695869586950E94B81D60E0C6
:1014E000C8010E94B01A0CC085E345CD80919A01D5
:1014F000811104C089E20E94D3203FCD85E3FBCF58
:10150000CDB7DEB7E9E00C94FA24A6E4B0E0EBE84E
:10151000FAE00C94D92485B7806885BF85B78068C8
:1015200085BF84B7877F84BF0FB6F894A895809154
:101530006000886180936000109260000FBE90E0B0
:1015400080E80FB6F89480936100909361000FBE1D
:1015500085EB94E190939901809398010E94311357
:101560000E9450138091E20084608093E20078949E
:101570008091E0018823A1F01091E9001F70909103
:10158000EC00892F817090FD80E8182B1092E90003
:101590008091E80083FD0E9411101F701093E900F4
:1015A00082E084BD93E095BD9AEF97BD80936E0075
:1015B0000E94C91C90E090930B0180930A010E9445
:1015C0003E1C0E94A41CECE9F1E0AFEAB1E01192EC
:1015D0001D9221E0EA3AF207D1F780E090E00E9404
:1015E0001A25853E9E4F09F46EC065EE7EEF80E0C1
:1015F00090E00E944E2560E082E090E00E9430255D
:1016000081E08093AA0161E083E090E00E943025B0
:1016100060E074E184E090E00E944E2560E086E0A6
:1016200090E00E94302560E087E090E00E94302545
:1016300040E050E0BA0188E090E00E94422560E07E
:1016400083E290E00E94302560E08CE090E00E9410
:10165000302560E08DE090E00E94302519821A82EA
:101660001B821C821D821E821F82188648E050E069
:1016700067E170E0CE0101960E94202540E050E035
:10168000BA018FE190E00E9442251092AB011092C6
:10169000AC011092AD011092AE0184E08093AB01D9
:1016A0004091AB015091AC016091AD017091AE01E0
:1016B0008FE090E00E94422540E050E0BA0183E1D3
:1016C00090E00E94422582E090E00E940C258093E9
:1016D000BD0184E090E00E941A259093BF028093A0
:1016E000BE020E94B719FFEF26E781E0F1502040CB
:1016F0008040E1F700C000000E94B7198091AF015F
:1017000080FF08C06FEF7FEF80E090E00E944E25E1
:101710000E94372083E090E00E940C250E94D11D9A
:101720008091D2010E948C1B89EA8093800089E01D
:101730008093810024982C983F98479A54985C9AFB
:1017400055985D9A6E98769A259A269A279A569A6F
:101750008FE090E00E9414256093AB017093AC0180
:101760008093AD019093AE0167701FEF169FB0019B
:1017700011247595679575956795772770938900FE
:101780006093880070938B0060938A0070938D0043
:1017900060938C005E980E94831B0E94801B0E94B5
:1017A0007D1B8FEF90E09093890080938800909349
:1017B0008B0080938A0090938D0080938C000E9410
:1017C0008A1B9FEFE0E7F2E09150E040F040E1F744
:1017D00000C000000E94881B2FEF80E792E021509C
:1017E00080409040E1F700C000000E94861BEFEFB0
:1017F000F0E722E0E150F0402040E1F700C00000B7
:101800000E94831B8FEF90E7E2E081509040E04020
:10181000E1F700C000000E94801BFFEF20E782E09C
:10182000F15020408040E1F700C000000E947D1B85
:101830008091AB018770189FC00111249595879501
:101840009595879599279093890080938800909328
:101850008B0080938A0090938D0080938C005E981B
:101860000E94831B0E94801B0E947D1B80E091E0F0
:101870009093BB028093BA0208E110E08091E001EE
:10188000853009F058C050E4B52E6DEBE62E61E0CE
:10189000F62E70E1C72EE2E1DE2E8091E001853068
:1018A00009F045C08091E001843009F11092C00236
:1018B0000FB6F894A895009360000FBEB092600038
:1018C00083B7817F846083BF83B7816083BF78944F
:1018D000889583B78E7F83BF0FB6F894A8958091C3
:1018E0006000886180936000109260000FBE80915C
:1018F000DF01882391F20E94C91C90E090930B01B4
:1019000080930A010E943E1C0E94A41CEFEAF1E0B1
:101910001192EE16FF06E1F70E94B719EFEAF1E027
:101920008191811184C2EE16FF06D1F7B6CF0E94D5
:10193000F71D0E9482210E94B7194EEBC42E41E090
:10194000D42EAFEAB1E0F60191918D91892791E013
:10195000EC3CF90719F08823B9F305C0811103C0E5
:101960000E94931955C03FEA832E31E0932EF12C4B
:10197000F40171904F01F601A080A724B9F1E12C88
:10198000BB24B394662463948A2D8B2141F1229663
:10199000EFAE22972396FFAE23970E949E202596B6
:1019A0009FAF8EAF259726966FAE269791E0872D35
:1019B0008B2109F490E027969FAF279722964FAD91
:1019C000229723965FAD239724966FAD2497259693
:1019D0007FAD259726968FAD26970E94DB1AE3945C
:1019E000BB0CF6E0EF12D0CFF6017082F394FFEF5C
:1019F000CF1ADF0A2EE0F212BBCF8FB7F8944091D6
:101A0000C1025091C2026091C3027091C4028FBFA3
:101A10008091B6029091B702892BE9F08091CC01B8
:101A20009091CD010E948F20893C9105A0F080917A
:101A3000B6029091B702992724E0880F991F2A9542
:101A4000E1F7FC01EF5EFE4F208122FD04C0845FC0
:101A50009E4F0E94B221B090AF02C090B002D090D1
:101A6000B102F090B202E090B3021092B002109274
:101A7000B1021092B2021092B302C11003C0DD2075
:101A800009F447C08091AD029091AE020E948F2070
:101A90009C019091A802992309F4DFC125313105F9
:101AA000C0F19F3F19F09F5F9093A802CC2061F096
:101AB0000E9423221C1414F491E001C09FEF899F1F
:101AC000802D11248093B002DD2061F00E9423223A
:101AD0001D1414F09FEF01C091E0899F802D112407
:101AE0008093B1028091B002882399F0A090B10256
:101AF000AA2079F00E944622811101C081E08093E2
:101B0000B0028A2D0E944622811101C081E080939B
:101B1000B102F11003C0EE2009F447C08091AB027E
:101B20009091AC020E948F209C019091A902992370
:101B300009F497C125313105C0F19F3F19F09F5F2E
:101B40009093A902FF2061F00E9403221F1414F455
:101B500091E001C09FEF899F802D11248093B202F4
:101B6000EE2061F00E9403221E1414F09FEF01C0CA
:101B700091E0899F802D11248093B3028091B2025D
:101B8000882399F0A090B302AA2079F00E944622FF
:101B9000811101C081E08093B2028A2D0E94462209
:101BA000811101C081E08093B3028091AF028B115B
:101BB0001AC08091B002882311F08C1114C080915A
:101BC000B102882311F08D110EC08091B3028823D9
:101BD00011F0E81208C09091B202992331F081E02F
:101BE000F91204C002C081E001C080E080FD15C090
:101BF0008091B00281110FC08091B10281110BC0A0
:101C00008091B202811107C081E09091B3029111DD
:101C100003C080E001C081E080FD0E94DC21B09221
:101C2000AF02C092B002D092B102F092B202E09242
:101C3000B3020E9482219091CE01891769F08093AE
:101C4000CE018FB7F8944091C1025091C2026091C9
:101C5000C3027091C4028FBF8091E001843009F00B
:101C6000D5C08093E9008091E80082FFCFC08091C9
:101C7000E80085FF24C00E94821481111EC080E20A
:101C8000E82EF12C6E0181E2C80ED11C09C08091B2
:101C9000F100F60181936F01F1E0EF1AF10869F0AC
:101CA0008091E80085FDF3CF8091E8008B778093E9
:101CB000E8000E948214882399F391E001C090E02B
:101CC0008091E8008B778093E800992309F49EC007
:101CD00089A1863009F479C0B0F4823009F496C045
:101CE00060F4882329F1813009F08DC08093CF0101
:101CF00084E089838EEF8A837DC0843031F1853022
:101D000009F463C080C0893009F45FC030F48730C3
:101D100099F1883009F459C076C08A3009F457C067
:101D20008E3F09F070C0898394E09A838B8362C0F0
:101D300019828CE0EDE1F1E0DE01129601900D9246
:101D40008A95E1F78EEF8D8755C08091CF0188236A
:101D500009F45CC08AA1811104C08BA10E94B81D46
:101D600055C081E090E00BA002C0880F991F0A9433
:101D7000E2F70E94B31D4AC081E08093D1018AA19D
:101D80008230C1F000F5882319F0813051F01BC07A
:101D90008BA1882319F00E948A1B38C00E94831BE4
:101DA00035C08BA1882319F00E94881B2FC00E9488
:101DB000801B2CC08BA1882319F00E94861B26C093
:101DC0000E947D1B23C085E01FC084E01DC08AA146
:101DD000FF24F394811101C0F12CF092D101811103
:101DE00006C00E94831B0E94801B0E947D1B8BE00B
:101DF0008983FA8240E250E0BE016F5F7F4F83E04B
:101E00000E94E71F03C08FEF0E94DD1B0E9482210A
:101E100081FF03C00E94861B31CD8091D2010E94B8
:101E20009C1A833009F42ACD0E947D1B27CDC9BCA2
:101E3000D9BC09B400FEFDCF8091D8008F7D80937E
:101E4000D8008091E00082608093E0008091E00003
:101E500081FDFCCF0E94F71D20CD232B09F023CE5E
:101E600058CE2139314008F06ACE9FCE8091E201F0
:101E700087FF11C08091E80082FD05C08091E001DC
:101E80008111F8CF11C08091E8008B770BC0809151
:101E9000E001882349F08091E80080FFF8CF80912D
:101EA000E8008E778093E8000895982F973068F5C2
:101EB0009093E900981739F07091EC002091ED00B3
:101EC0005091F00003C0242F762F50E021FD02C076
:101ED0009F5FECCF3091EB003E7F3093EB00309171
:101EE000ED003D7F3093ED003091EB003160309399
:101EF000EB007093EC002093ED005093F0002091E4
:101F0000EE0027FDE5CF80E008958F708093E90013
:101F100081E008952091E8013091E9012617370703
:101F200048F06115710539F42091E8002E7720936F
:101F3000E80001C0B901FC0120E06115710579F1EB
:101F40008091E0018823F1F18530F1F18091E80082
:101F500083FD3CC08091E80082FD2EC08091E800A6
:101F600080FFEBCF2091F3008091F20090E0922B64
:101F70006115710551F08830910538F42191209355
:101F8000F100615071090196F3CF21E0089709F043
:101F900020E08091E8008E778093E800CECF211179
:101FA000CFCF0AC08091E001882361F0853061F0D5
:101FB0008091E80083FD0AC08091E80082FFF2CFA3
:101FC00080E0089582E0089583E0089581E0089517
:101FD00043E050E0BC0185E00E94E71F089545E022
:101FE00050E0BC0182E00E94E71F089540E250E00B
:101FF000BC0185E00E94E71F0895CF93DF93EC01B9
:1020000048E050E0BC0181E00E94E71F88E0FE014B
:10201000A6EDB1E001900D928A95E1F7DF91CF91A5
:102020000895AAE2B0E0E7E1F0E10C94E424E2EEE6
:10203000F1E08091F100819341E0EA3EF407C9F7B5
:102040008091E301833009F463C030F4813071F092
:10205000823009F49DC0B4C08A3009F489C08B3045
:1020600009F46EC0893009F0ABC020C08091E20154
:10207000813A09F0A5C08091E800877F8093E8004D
:102080008091E6019091E701892B21F468E086EDCB
:1020900091E003C060E080E090E070E00E948A0F71
:1020A0008091E8008B778093E8008AC08091E201FC
:1020B000813209F085C08091E6019091E701009797
:1020C00019F0039709F07CC08091E800877F809326
:1020D000E8008091E80082FD05C08091E001811157
:1020E000F8CF6EC02091F3008091F20090E0922B27
:1020F000029731F48091F100813011F0863021F4A3
:102100008091F1008093D5018091E8008B7754C0D5
:102110008091E201813A09F053C08091E6019091EB
:10212000E701892B09F04CC08091E800877F8093FC
:10213000E8008091E80080FFFCCF80911C0137C04F
:102140008091E2018132E1F58091E6019091E70111
:10215000892BB1F58091E800877F8093E8000E9489
:10216000360F8091E40180931C010E94F71D28C066
:102170008091E201813221F58091E800877F809390
:10218000E8000E94360F8091E5018093D40118C0C9
:102190008091E201813AA1F48091E800877F8093E9
:1021A000E8008091E80080FFFCCF8091D40180930B
:1021B000F1008091E8008E778093E8000E94360F4E
:1021C0008091E80083FFF1C18091E2019091E301E9
:1021D000492F50E04A30510508F0E7C1FA01E556B1
:1021E000FF4F0C947825803821F0823809F0DDC14A
:1021F00008C08091DE019091DF01992389F082600F
:102200000FC08091E6018F70873008F0CEC18093B7
:10221000E9008091EB0085FB882780F91092E900A6
:102220009091E800977F9093E8008093F1001092DE
:10223000F1007DC1282F2D7F09F0B7C1882319F047
:10224000823061F0B2C18091E401813009F0ADC10A
:10225000933009F080E08093DF012EC08091E4018B
:1022600081112AC08091E6018F702FEF280F263050
:1022700008F09BC18093E9002091EB0020FF1CC077
:10228000933021F48091EB00806214C09091EB00B8
:1022900090619093EB0021E030E0A90102C0440F6F
:1022A000551F8A95E2F74093EA001092EA00809168
:1022B000EB0088608093EB001092E9008091E800C9
:1022C000877F8093E8000E94360F6FC181116DC136
:1022D0001091E4011F778091E3008078812B809337
:1022E000E3008091E800877F8093E8000E94360F2A
:1022F0008091E80080FFFCCF8091E30080688093AC
:10230000E300111102C082E001C083E08093E0018C
:102310004CC18058823008F048C12091E4013091CE
:10232000E5012C3D53E0350779F583E08A838AE2A5
:1023300089834FB7F894DE01139620E03EE051E226
:10234000E32FF0E050935700E49120FF03C0E295A3
:10235000EF703F5FEF708E2F90E0EA3010F0C7967D
:1023600001C0C0968D939D932F5F243149F74FBFD5
:102370008091E800877F8093E8006AE270E0CE01F8
:1023800001960E948A0FC1C08091E6019091E701F9
:10239000432F552743305105B1F068F441305105C2
:1023A00009F412C14230510509F0FFC084E790E002
:1023B000E9EAF6E057C04132510589F14232510550
:1023C00009F43CC0F2C0C901992781309105B9F0E8
:1023D00070F082309105D9F0039709F0E6C0EFE282
:1023E000F7E0E4918E2F90E0EFE2F7E038C0EBE801
:1023F000F7E0E4918E2F90E0EBE8F7E030C0E1E603
:10240000F7E0E4918E2F90E0E1E6F7E028C0E9E400
:10241000F7E0E4918E2F90E0E9E4F7E020C084300B
:10242000910508F0C2C0880F991FFC01EB5CFE4FBC
:102430000190F081E02D89E090E014C08430910596
:1024400008F0B3C0FC01EE0FFF1FE35DFE4F0190EB
:10245000F081E02DDC01A75DBE4F8C9190E00097EC
:1024600009F4A3C02091E800277F2093E800209181
:10247000E8013091E9018217930708F49C0140E0DC
:102480002115310589F18091E001882309F43DC0CF
:102490008530D9F18091E80083FD37C08091E80054
:1024A00082FD2FC08091E80080FFEACF4091F300C9
:1024B0008091F20090E0942B2115310559F088307D
:1024C000910540F444914093F10031962150310937
:1024D0000196F2CF41E0089709F040E08091E800D2
:1024E0008E778093E800CCCF4111CDCF0AC0809188
:1024F000E001882351F0853041F08091E80083FDB0
:1025000004C08091E80082FFF2CF8091E8008B77D1
:102510008093E8004AC0803809F047C08091E80005
:10252000877F8093E8008091E1018093F1008091A2
:10253000E8008E77C6CE811138C08091E401909179
:10254000E501992702978CF58091E800877F8093B9
:10255000E8001091E4011093E1010E94360F11117F
:1025600006C08091E30087FD02C081E001C084E0E5
:102570008093E00142E061EC81E00E94550F42E16E
:1025800061EC82E00E94550F42E261EC85E00E941E
:10259000550F42E261EC83E00E94550F42E260EC8D
:1025A00084E00E94550F8091E0018091E80083FF54
:1025B00010C08091E800877F8093E8008091EB0055
:1025C00080628093EB0005C082E190E0EDE1F7E0EE
:1025D00049CFAA96E3E00C9400251F920F920FB604
:1025E0000F9211242F933F934F935F936F937F9399
:1025F0008F939F93AF93BF93CF93DF93EF93FF930B
:10260000C091E900CF708091EC00D82FD17080FD8F
:10261000D0E81092E9008091F000877F8093F0006D
:1026200078940E9411101092E9008091F000886067
:102630008093F000CD2BCF70C093E900FF91EF9114
:10264000DF91CF91BF91AF919F918F917F916F91CA
:102650005F914F913F912F910F900FBE0F901F9060
:102660001895E8EDF0E080818E7F80831092E20083
:102670001092DA001092E100A0EEB0E08C9181603F
:102680008C9380818F77808319BCA7EDB0E08C910B
:102690008E7F8C9380818F7E80831092D3010895EA
:1026A000A0E0B0E0E6E5F3E10C94DF24C8EDD0E073
:1026B00088818F7E8883E7EDF0E080818160808370
:1026C00084E082BF81E08093D30188818E7F8883FC
:1026D00002EE10E0F80110821092DA0081EEC82EAE
:1026E000D12CF601108288818F7788838881806859
:1026F000888388818F7D888319BC1092E0011092B5
:10270000E1011092DF011092DE0190EEE92EF12C32
:10271000F70180818B7F808388818160888342E09C
:1027200060E080E00E94550FF60180818E7F8083FB
:10273000F801808181608083808188608083F701D7
:1027400080818E7F8083888180618883CDB7DEB76A
:10275000E8E00C94FB241F920F920FB60F92112405
:102760002F933F934F935F936F937F938F939F9399
:10277000AF93BF93EF93FF938091E10082FF09C075
:102780008091E20082FF05C08091E1008B7F809301
:10279000E1008091DA0080FF2AC08091D80080FF9C
:1027A00026C08091DA008E7F8093DA008091D90074
:1027B00080FF18C080E189BD82E189BD09B400FEB7
:1027C000FDCF81E08093E0018091D30181110FC0A2
:1027D0000E9431130E9450138091E2008460809324
:1027E000E20005C019BC1092E0011092D301809163
:1027F000E10080FF17C08091E20080FF13C080914C
:10280000E2008E7F8093E2008091E20080618093FD
:10281000E2008091D80080628093D80019BC85E0E6
:102820008093E0018091E10084FF30C08091E2005C
:1028300084FF2CC080E189BD82E189BD09B400FE1E
:10284000FDCF8091D8008F7D8093D8008091E100EA
:102850008F7E8093E1008091E2008F7E8093E20082
:102860008091E20081608093E2008091E101882301
:1028700011F084E007C08091E30087FD02C081E091
:1028800001C083E08093E0018091E0018091E1004C
:1028900083FF27C08091E20083FF23C08091E10085
:1028A000877F8093E10082E08093E0011092E10154
:1028B0008091E1008E7F8093E1008091E2008E7F25
:1028C0008093E2008091E20080618093E20042E028
:1028D00060E080E00E94550F8091F0008860809356
:1028E000F000FF91EF91BF91AF919F918F917F91F8
:1028F0006F915F914F913F912F910F900FBE0F906D
:102900001F9018952091E4003091E50095E64091E4
:10291000EC00842F817040FF23C08091E80080FD8F
:102920001DC08091E001882399F0853099F0809155
:10293000EB0085FD11C04091E4005091E5002417A3
:10294000350729F3915011F09A01E1CF84E0089501
:1029500082E0089583E0089581E0089580E008957D
:102960004091E80042FFDDCF089580E00895909106
:10297000BE0292FF10C041E0282F2471243009F0DC
:1029800040E031E0282F2871283009F030E043176B
:1029900011F02CE0822793FF10C041E0282F247112
:1029A000243109F040E031E0282F2871283109F066
:1029B00030E0431711F02CE082273091BF0230FF46
:1029C00010C051E0282F2171213009F050E041E082
:1029D000282F2871283009F040E0541711F029E021
:1029E000822731FF10C041E0282F2171213109F0E9
:1029F00040E031E0282F2871283109F030E04317FA
:102A000011F029E0822794FD877E08958238910590
:102A100069F1B0F48133910509F475C048F4893245
:102A2000910509F467C08A32910509F471C00895CF
:102A30008533910509F459C089339105B9F008959A
:102A4000833E910589F138F4803E9105D1F0823EB4
:102A5000910529F10895863E9105C9F1873E9105BA
:102A6000D9F1843E910509F06CC027C02091BE02C7
:102A700020FD57C021FD55C02091BF0223FD5BC042
:102A800008958091BE0280FD48C08091BF0280FF02
:102A900048C08091BE0284FD46C083EE51C0809143
:102AA000BE0282FF3CC0F5CF8091BE0282FD37C0DE
:102AB0008091BF0280FD35C0ECCF8091BF0281FFC5
:102AC00036C08091BE0284FD2EC087EE39C0809151
:102AD000BE0283FF2AC0F5CF8091BE0283FD25C0D0
:102AE0008091BF0281FD23C0ECCF8091BE0285FDA5
:102AF00022C01FC08091BE0285FD1BC08091BF0215
:102B000083FF19C00AC08091BE0286FD16C017C09F
:102B10008091BE0286FD13C010C089E311C082EE11
:102B20000FC080EE0DC080E00BC086EE09C084EEC1
:102B300007C085E305C089E203C08AE201C081E3E2
:102B400090E008959091B5028091B402892B909104
:102B50002C029923E1F0892B90911C01992341F0DB
:102B60009091BE0297FF04C09EE12AE832E003C0C4
:102B700096E022E832E0F90120E0915028F031910E
:102B80003323D9F32F5FF9CF211110922C0208952E
:102B900020912A029091F10157E02917A9F030E025
:102BA000529FF001539FF00D1124EE50FE4F7181A2
:102BB000761306C07081781303C07581741306C044
:102BC0002F5F3F4F2770E9CF80E0089581E008959F
:102BD0007E30B0F46630A0F48330A0F494E5899F91
:102BE000F001112486E0789FE00DF11D1124E60F1D
:102BF000F11DEE0FFF1FE157F84F85919491089555
:102C000080E001C081E090E008951F93CF93DF93AF
:102C10000E940615EC01C11580E5D807E8F5C1153D
:102C200090E4D90708F0A8C0C03ED10530F5CD3CEE
:102C3000D10508F094C0C83AD10578F4C53AD10559
:102C400008F083C0C130D10509F47CC008F4F2C09B
:102C5000C430D10508F0F1C0EDC0C33CD10508F087
:102C6000E9C0C85AD0E0CC0FDD1FC05CDE4F099030
:102C7000D881C02DCE019464E1C0C11580E2D8078F
:102C800008F0CBC0C11591E0D90708F06BC0C83E71
:102C9000D10508F4D2C0CEC0C03682E5D80728F5E9
:102CA000C03492E5D90708F079C0C03282E5D80770
:102CB00008F06CC0C11592E5D90708F481C04C2F0B
:102CC0004695469580E2489FA0011124C37021E0FB
:102CD00030E0C90102C0880F991FCA95E2F7EA01E6
:102CE000C82BD92BCE019D68A9C0C03A82E5D80770
:102CF000B8F48C2F8F71C03892E5D90708F07BC0EB
:102D00008695869590E2899F90011124C37081E099
:102D100090E002C0880F991FCA95E2F79A6868C0D0
:102D2000C03C82E5D80708F46DC0C03E92E5D907E3
:102D300008F080C0CF71DD27DC2FCC27CE01806F5B
:102D4000906A7CC081E090E079C0C55AD0E0C35C55
:102D5000DE4F8881C82FD0E0CE0190646FC0CE01D5
:102D600090656CC08D2F0E94B714182FCE01992743
:102D70000E9406151F715CC0CE0199270E9406159E
:102D8000CC27DF70D06A8C2B9D2B58C0CF71D0E040
:102D9000DC2FCC27CE01816F906A50C08C2F8F71B1
:102DA0008695869590E2899F90011124C37081E0F9
:102DB00090E002C0880F991FCA95E2F79C6818C07E
:102DC0008C2F8F710E94B71495E0D695C7959A9570
:102DD000E1F7CF70D0E0DC2FCC27282F30E084FF44
:102DE00005C084E0220F331F8A95E1F7D069CE0138
:102DF000822B932B23C090E0D82FCC27CE01846F59
:102E0000906A1CC08C2F8F710E94B7148F7190E054
:102E1000D82FCC27CE01906211C08D2F8F710E94C8
:102E2000B714182FCE0199270E9406151F719062C2
:102E3000912B04C080E090E001C0CE01DF91CF91E2
:102E40001F91089580959091B50289238093B502D2
:102E5000089580911C01882351F18091BE0287FF63
:102E600026C00E94A2158093890240E250E06DE2E4
:102E700072E088E892E00E947E25892BD9F180E2F9
:102E8000E8E8F2E0ADE2B2E001900D928A95E1F758
:102E9000E091BA02F091BB02309761F186E0809335
:102EA00088020480F581E02D88E892E022C00E942B
:102EB000A2158093800248E050E06DE472E080E863
:102EC00092E00E947E25892BA9F088E0E0E8F2E0FC
:102ED000ADE4B2E001900D928A95E1F7E091BA027B
:102EE000F091BB02309731F00280F381E02D80E851
:102EF00092E00995089590912B0280958923809303
:102F00002B02282F277069F4981759F09091BF026F
:102F100092FF07C08695869586950E94B81D1092EF
:102F20002B0208959091BF0292FB222720F92817C7
:102F300079F080FB92F99093BF026091BE0270918C
:102F4000BF0284E090E00E944E2582E00E947B1741
:102F5000089580912A029091F101891719F08F5FED
:102F60008770FBCF0895CF93DF938091F001829516
:102F70008F7009F04EC08091EF01882309F449C099
:102F800080912A024091F1015091EB016091EA0198
:102F9000C091EC01D091ED0177E08417D1F190E080
:102FA000789FF001799FF00D1124DF01AE50BE4FE4
:102FB00014962C911497222349F111962C91119774
:102FC000251324C02C91261321C015962C911597FA
:102FD00021111CC012962D913C9113972C1B3D0B77
:102FE000283C310598F48091F0018F7080618093C6
:102FF000F001E850FE4F80818F70806180838AEEFF
:1030000091E00E943B050E94A91703C001968770BA
:10301000C4CFDF91CF910895A4E1B0E0E2E1F8E1FF
:103020000C94DB248C0186E0F801DE011F960190F0
:103030000D928A95E1F7F8018481E5809AEE892E58
:1030400091E0992E9091EE01911120C0882309F40E
:1030500063C1EE2009F442C0C8010E94D41DF82EBD
:103060008823E1F187E0F801D40101900D928A955F
:10307000E1F78091EE01813031F48091EA01909185
:10308000EB010E943D1D0E94B31748C1F801D0809A
:10309000C180A280B380F090EF012091EC013091CB
:1030A000ED01FF2009F4E7C0A501421B530B483C8A
:1030B000510508F09DC0882309F430C18091F001CA
:1030C000282F207F9091EB01222361F09C1509F4B9
:1030D00060C0C8010E94D41D811163C0C8010E9454
:1030E0003B051AC19C1113C09091EA019D110FC0BC
:1030F000E1100DC08F7080618093F0018AEE91E045
:103100000E943B058091F001F801868303C1E11024
:103110003AC040E06C2D8D2D0E94C81540E06C2D0A
:103120008D2D0E94C815E82E8111F4C0DF86C88A53
:103130008F8598890E943D1D292F22952F7024305C
:1031400020F49F70223028F009C02A50223080F0ED
:1031500014C0992349F0811107C013C0992321F0AD
:10316000F8019681907F69F0805E883030F409C064
:10317000803F38F0815F833020F0C8010E943B051A
:10318000EF2CFE2CCBC08091F00181608093F00188
:10319000C1C09091EA019D119CCFE1109ACFF80136
:1031A00098C0EE2009F49ACF2091F001822F8295E9
:1031B0008F7090E002978CF08091EA019091EB0182
:1031C00099878887BB86AA868091EE018C871D86A9
:1031D0002E87CE0108960E943B0587E0F801AAEEF3
:1031E000B1E001900D928A95E1F70E94B31794C067
:1031F0009091F001292F207F51F48AEE91E00E94F6
:103200003B0587E0F40111928A95E9F783C0882392
:1032100009F484C08091EB018C110CC08091EA010B
:103220008D1108C0E11006C0F8019683C8010E9404
:103230003B056AC0C8010E94D41D882309F44ECF03
:10324000EE2009F44BCF2091F001822F82958F70F0
:1032500090E0029714F28091EA019091EB019A8339
:103260008983BC82AB828091EE018D831E822F8385
:10327000CE010196B0CFA21AB30AF8ECAF16B10492
:1032800008F042C0882309F447C0FE2CEE2009F460
:1032900025CF8091EB018C1129C08091EA018D111D
:1032A00025C09091F00190FD18C0892F82958F70F4
:1032B000282F30E02115310581F0F80196832F3059
:1032C000310541F08F5F982F9295907F86818F70A6
:1032D000892B8683C8010E943B0587E0F801AAEE8E
:1032E000B1E001900D928A95E1F718C0C8010E94E3
:1032F000D41D811172CF8091F00181608093F00123
:10330000C8010E943B050AC087E0F40111928A952A
:10331000E9F704C0F12C02C0FF24F3948F2D6496CA
:10332000ECE00C94F724A6E0B0E0E9E9F9E10C94B4
:10333000E3240E949E208C018091550290915602B8
:103340000817190781F019821A820E949E20682F9F
:1033500049815A81792F80E090E00E94DB1A109316
:103360005602009355022696E4E00C94FF24EF9257
:10337000FF920F931F93CF93DF9380910A01909157
:103380000B01892BD9F0809157028F5F80935702F0
:10339000811114C00E94C91C90E090930B0180938E
:1033A0000A01892B59F42FEF83EC99E021508040DA
:1033B0009040E1F700C000000E942C200CE911E0D1
:1033C000C0E0D0E087E0E82EED0E8D2F0E94F21BCA
:1033D0008E2D0E94F21B8D2F0E94531C8F73F801BB
:1033E0009081891721F08083FF24F39401C0F12C90
:1033F0008E2D0E94531C8F73F8019781891719F045
:10340000878381E001C080E0F82ACF290E943E1C1A
:10341000DF5F0F5F1F4FD730A9F6CC2359F081E053
:1034200080935A020E949E209093590280935802E2
:10343000C0E022C080915A028823F1F080915802A6
:10344000909159020E948F200F97B0F04EE050E00B
:103450006CE971E08FEA91E00E947E25892B51F0A2
:103460008EE0ECE9F1E0AFEAB1E001900D928A95CF
:10347000E1F7C1E010925A028C2FCDB7DEB7E6E03B
:103480000C94FD2490E0FC01E657FE4F20812111B1
:103490001AC0F894FC01E458FE4F8081E82FE295B1
:1034A000EF70F0E031A1282F2F7081E090E001C093
:1034B000880F2A95EAF7982F9095932391A392A1CC
:1034C000892B82A3789408958FE39CE90197F1F703
:1034D00000C0000080915E02823019F481E00E94F9
:1034E000B81D10925E020895FC019281913039F46A
:1034F000858182FD12C080FF10C092E00EC0923024
:1035000039F4858182FD06C080FD06C093E005C0C8
:1035100096E003C095E001C094E090935E02923083
:1035200019F0933029F0089581E00E94C51D089597
:1035300082E00E94B31D0895982F92959F7019F014
:10354000892F24E001C020E0982F9695969511F0E0
:103550002E5F892F982F969509F02F5F822F08955F
:10356000A6E0B0E0E6EBFAE10C94E42426E0FC01EE
:10357000DE01119601900D922A95E1F7FC0125815B
:1035800089819A81222359F0662349F00E940E1DF9
:10359000182F682F89819A810E947E1D03C00E9486
:1035A0004A1D182F69817A81812F0E94E81526967D
:1035B000E3E00C940025A4E3B0E0E1EEFAE10C9422
:1035C000E4244FA758AB69AB7AAB8BAB9CAB9111A2
:1035D0001092B402CE01889627E0DC011D922A9554
:1035E000E9F726E0FE01BF96DC0101900D922A95D5
:1035F000E1F72CA52223E1F061E00E94B01A80914E
:10360000CF018823A9F08DA5811102C087E001C0F8
:1036100086E0898388A58A8389A58B838EEF8C8336
:1036200040E250E0BE016F5F7F4F83E00E94E71FE2
:1036300087E0FE01B896DE01919601900D928A9581
:10364000E1F7CE0181960E940C1881112CC087E011
:10365000FE01B196DE01119601900D928A95E1F777
:103660006DA1662301F12091F10130E0C9010196BD
:103670008770992740912A0250E08417950761F1DD
:103680006D8397E0929FD001939FB00D1124AE50AF
:10369000BE4FFE01319601900D929A95E1F780930D
:1036A000F1010E94A91717E080912A029091F1017F
:1036B0008917F9F0189FC00111248E509E4F0E9467
:1036C0000C188823B1F080912A0290E0019687704F
:1036D000992780932A02E8CF0E94F71D1092F101EA
:1036E00010922A02EAEEF1E087E0DF011D928A954E
:1036F000E9F7E496E3E00C94002527982F980895C5
:1037000026982E98089525982D9808952F9A089513
:103710002E9A08952D9A0895A0E2B0E0E2E9FBE127
:103720000C94E324082F0E949C1A182F5E980E9484
:10373000831B0E94801B0E947D1B812F90E0FC0157
:103740003197E730F105A8F4EB55FF4F0C9478253D
:103750000E948A1B0EC00E948A1B0E94881B09C0FF
:103760000E948A1B04C00E948A1B0E94881B0E9420
:10377000861B8091CF018823D9F080915C021817B5
:10378000B9F010935C028FE39CE90197F1F700C058
:10379000000085E0898380915C028A838EEF8B83B1
:1037A00040E250E0BE016F5F7F4F83E00E94E71F61
:1037B000802FA096E4E00C94FF24A0E2B0E0E3EEBA
:1037C000FBE10C94E5249FEF99838A8340E250E06B
:1037D000BE016F5F7F4F83E00E94E71FA096E2E08B
:1037E0000C940125A1E0B0E0E8EFFBE10C94E324A8
:1037F0008730F8F420910A0130910B01232BD1F589
:1038000021E030E0A90102C0440F551F8A95E2F77C
:10381000CA01809589830AE010E0AE014F5F5F4FD7
:1038200062E180E40E94DA2390930B0180930A0105
:1038300021C090E0FC01E657FE4F208121111AC003
:10384000F894FC01E458FE4F8081E82FE295EF7078
:10385000F0E031A1282F2F7081E090E001C0880FA7
:103860002A95EAF7932F982B91A392A1809589230B
:1038700082A378942196E4E00C94FF240F931F9385
:10388000CF9301E911E0C7E0F80181918F01811127
:1038900003C08C2F0E94421ACF5FCE30A9F7CF9180
:1038A0001F910F910895A1E0B0E0E9E5FCE10C94CF
:1038B000E324082F8730C8F480910A0190910B010E
:1038C000892BE9F519820AE010E021E030E0AE0131
:1038D0004F5F5F4F63E180E40E94282490930B01C7
:1038E00080930A01898180952BC00E94F21BA6E774
:1038F000B1E020E030E010E051E04D91E42FE2959E
:10390000EF70F0E080A190E04F7002C09595879530
:103910004A95E2F780FD07C0852F022E01C0880F6F
:103920000A94EAF701C080E0182B2F5F3F4F263042
:10393000310519F7802F0E94421A812F01C080E0C3
:103940002196E4E00C94FF24CF93DF93A6E7B1E047
:103950004CE751E061E070E0F8948D91E82FE2953A
:10396000EF70F0E021A18F70EB0102C0CC0FDD1FE2
:103970008A95E2F7CE019C2F9095922391A392A174
:10398000892B82A378944A175B0731F7DF91CF9197
:103990000895A2E0B0E0EFECFCE10C94E32480E2B7
:1039A00090E090930B0180930A0180915B0281115A
:1039B0000EC00E945D2381E080935B022FEF83EDB8
:1039C00090E3215080409040E1F700C00000198250
:1039D0008FE38A830AE010E022E030E0AE014F5F1F
:1039E0005F4F60E080E40E94DA2390930B018093A4
:1039F0000A01892B69F422E030E0AE014F5F5F4F8E
:103A00006CE080E40E94DA2390930B0180930A011A
:103A100080910A012296E4E00C94FF24CF92DF9279
:103A2000FF920F931F93CF93DF936C010091D2010C
:103A30008091AA01082BC7E0D0E010E0C8010C2E4D
:103A400002C0959587950A94E2F780FD04C02197FE
:103A5000A8F7F12C09C0FC2EB6018C2F0E94E815A6
:103A60000E940516019799F38F2DDF91CF911F9139
:103A70000F91FF90DF90CF900895CF93DF93EC01EB
:103A80000E940E1DBE010E94E8150E940516DF91DE
:103A9000CF910895292F9E3078F5863068F590E013
:103AA00036E0239F800D911D1124682F677023E05D
:103AB000969587952A95E1F7FC01EE0FFF1FE80F19
:103AC000F91FE15AFD4F40E050E080E0219130E0E5
:103AD000062E02C0369527950A94E2F72170332707
:103AE000042E01C0220F0A94EAF7822B4F5F5F4F2A
:103AF0004330510559F7089580E00895292F9E30ED
:103B000088F5863078F590E036E0239F800D911D92
:103B10001124282F277051E001C0550F2A95EAF78C
:103B200023E0969587952A95E1F7FC01EE0FFF1F9C
:103B3000E80FF91FE15AFD4F20E030E070E04081CE
:103B4000CB01022E02C0969587950A94E2F7817008
:103B5000819584278523842781932F5F3F4F2330CE
:103B6000310569F708950E948C1B8093D201089556
:103B700021E030E001C0220F8A95EAF7209580917C
:103B8000D20182230E94B31D089521E030E001C0DC
:103B9000220F8A95EAF78091D201822B0E94B31DF1
:103BA00008958093AA010895FC0124812223D9F06D
:103BB000808191810E943D1D92959F70963079F091
:103BC00010F4925001C09A50923068F4803F69F02E
:103BD00018F4883E40F409C0843F29F406C0883EAA
:103BE00020F0813F11F080E0089581E00895109267
:103BF000B50280911C01882341F08091BE0287FFAD
:103C000004C08EE1EAE8F2E003C086E0E2E8F2E018
:103C1000DF011D928A95E9F780E090E00E945D2126
:103C200080E090E00E9438211092B4020E9429178F
:103C3000EFEAF2E085E0DF011D928A95E9F7109244
:103C4000A8021092A9021092AA020E94DC210895F3
:103C5000882321F00E9422170E94291708958823A3
:103C600039F09091B502892B8093B5020E942917F3
:103C700008959091B002662309F470C091110CC0B0
:103C80009091B102911108C09091B302911104C0BA
:103C90009091B202992331F098E09093A80291E0BC
:103CA0009093A9028D3C21F40E942322819504C0A7
:103CB0008E3C29F40E9423228093B102C3C08F3C22
:103CC00021F40E942322819504C0803D29F40E94A2
:103CD00023228093B002B6C0893D19F40E940322CA
:103CE00005C08A3D31F40E94032281958093B2027F
:103CF000A9C08B3D21F40E940322819504C08C3D14
:103D000029F40E9403228093B3029CC09FE2980F83
:103D1000983078F421E030E0A90102C0440F551F2B
:103D20009A95E2F7CA019091AF02892B8093AF0276
:103D300089C08D3D21F48091AA0281600CC08E3D26
:103D400021F48091AA02826006C08F3D09F07AC0FA
:103D50008091AA0284608093AA0274C08D3C39F4D9
:103D60009091B10297FF33C01092B10257C08E3CC0
:103D700029F49091B1021916BCF329C08F3C29F4A3
:103D800097FF25C01092B00249C0803D19F4191662
:103D9000CCF31DC09091B202893D29F41916BCF4F0
:103DA0001092B2023BC08A3D19F497FF10C0F8CFC1
:103DB0008B3D39F49091B30297FF09C01092B30282
:103DC0002DC08C3D21F49091B3021916BCF39FE2F3
:103DD000980F983080F421E030E0A90102C0440F30
:103DE000551F9A95E2F7CA0180959091AF028923F9
:103DF0008093AF0213C08D3D21F48091AA028E7F83
:103E00000BC08E3D21F48091AA028D7F05C08F3DAD
:103E100029F48091AA028B7F8093AA028091B0023C
:103E2000811106C08091B102811102C01092A802D6
:103E30008091B202811106C08091B302811102C04B
:103E40001092A9020E94DC210895882381F19CEF41
:103E5000980F913A18F40E94D3200DC090E2980F69
:103E6000983060F4877091E001C0990F8A95EAF765
:103E7000892F0E9422170E94291708959BE5980F09
:103E8000933028F480E090E00E945D21089598E549
:103E9000980F9B3128F480E090E00E94382108952B
:103EA00093E3980F933118F460E00E94391E08954F
:103EB000CF93882309F46EC0C82F8CEF8C0F813A02
:103EC000A0F580911C018823E1F08091BE0287FF5C
:103ED00018C0EC2FE695E695E695F0E0E857FD4F23
:103EE0008281282F30E04C2F477081E090E002C0A3
:103EF000880F991F4A95E2F782239323892B61F457
:103F000010C0E2E8F2E088E892E02191C21721F0C7
:103F10008E179F07D1F705C08C2F0E94D3200E94D7
:103F200029178C2F0E94012110C080E28C0F88304D
:103F300078F4C77081E090E001C0880FCA95EAF775
:103F40009091B502892B8093B5020E94291722C057
:103F5000EBE5EC0FE33040F4F0E0E35CFE4F8081F2
:103F600090E00E945D2116C0E8E5EC0FEB3150F4C3
:103F7000F0E0EE0FFF1FE05CFE4F808191810E9418
:103F8000382108C083E38C0F833120F461E08C2F4B
:103F90000E94391ECF9108951F93CF93DF93182F5E
:103FA000EB010E94581F209741F08FE99FE0019795
:103FB000F1F700C000002197F6CF812F0E94251F46
:103FC000DF91CF911F9108958091D50108950F93AE
:103FD0001F93CF93DF938B01EA019091E00194301E
:103FE000A9F58F708093E9008FEF9091E8008150E0
:103FF00095FD06C095ED9A95F1F700008111F5CF7A
:104000008091E80085FF22C00E948214811115C0B2
:10401000209789F08091E80085FD06C08091E80036
:104020008E778093E800F0CFF80181918F01809323
:10403000F1002197EDCF90E001C0982F8091E8002A
:104040008E778093E80081E0911101C080E0DF91DC
:10405000CF911F910F9108959AE088E10FB6F894DF
:10406000A895809360000FBE90936000FFCFF894F6
:1040700081E08093E00080E28093D800E9ECF0E0FA
:1040800010828FE19EE40197F1F700C000001DBA95
:10409000109268001CBC10BE1FBA10927A001092D9
:1040A0006E0010926F0010927100109272001082D8
:1040B000ECEBF0E0108214B817B81AB81DB810BABB
:1040C000108215B818B81BB81EB811BA0C94003F6E
:1040D000089578941F920F920FB60F9211248F9328
:1040E0009F93AF93BF938091C1029091C202A09120
:1040F000C302B091C4020196A11DB11D8093C102FB
:104100009093C202A093C302B093C402BF91AF9137
:104110009F918F910F900FBE0F901F9018959C014B
:104120004FB7F8948091C1029091C202A091C3024E
:10413000B091C4024FBF821B930B08952FB7F89420
:104140008091C1029091C202A091C302B091C402B9
:104150002FBF08951F920F920FB60F9211248F93C5
:104160009F93AF93BF938091C002811113C0809140
:10417000C1029091C202A091C302B091C4024196C3
:10418000A11DB11D8093C1029093C202A093C302EE
:10419000B093C402BF91AF919F918F910F900FBECA
:1041A0000F901F90189590911C01992321F09091E8
:1041B000BE0297FD03C0E0E8F2E01DC0E82FE695DF
:1041C000E695E695EE31E0F4F0E0E857FD4F8770B4
:1041D00021E030E0A90102C0440F551F8A95E2F7A3
:1041E000CA0180959281892382830895319652E095
:1041F000E638F50729F092818913F8CF1282F6CFBD
:10420000089590911C019923D1F09091BE0297FFDF
:1042100016C0E82FE695E695E695EE3140F5F0E01C
:10422000E857FD4F877021E030E0A90102C0440F3C
:10423000551F8A95E2F7CA019281892B16C0A2E820
:10424000B2E0EFEF90E02D91821789F0EF3F19F483
:10425000211101C0E92F9F5F9630A9F7EF3F39F098
:104260000E2E000CFF0BE058FD4F82830895089539
:10427000A3E0B0E0EEE3F1E20C94E5242091BC026F
:104280003091BD0228173907A1F09093BD028093A9
:10429000BC02E091BA02F091BB02309751F024E0E9
:1042A00029839B838A830084F185E02DCE010196CA
:1042B00009952396E2E00C940125A3E0B0E0E3E643
:1042C000F1E20C94E5242091B8023091B90228174C
:1042D0003907A1F09093B9028093B802E091BA0235
:1042E000F091BB02309751F023E029839B838A83AE
:1042F0000084F185E02DCE01019609952396E2E038
:104300000C940125E091BA02F091BB02309729F09C
:104310000190F081E02D0995089580E00895411500
:10432000510511F0FA0109950895CF93DF93EC013F
:104330004A855B856E857F850E948F218B81809564
:104340009091B40289238093B4028C810E94221739
:104350000E94291786E0FE0111928A95E9F7DF9104
:10436000CF910895CF93DF93EC018D8181FD17C02C
:1043700082608D839091B4028B81892B8093B402EB
:104380009091B5028C81892B8093B5020E942917E8
:10439000488559856E857F85CE010E948F211092B8
:1043A000B7021092B6028D8180FD03C0CE010E943B
:1043B0009521DF91CF9108950E949E202091B00217
:1043C000211104C02091B102222321F09093AE026A
:1043D0008093AD022091B202211104C02091B3025A
:1043E000222321F09093AC028093AB02E091BA02B9
:1043F000F091BB02309731F00680F781E02D8FEA13
:1044000092E0099508958091AA0280FD18C081FD6F
:1044100014C082FD16C08091A902882381F08C33DC
:1044200080F427E0829FC00111246CE370E00E94B9
:104430006425862F672B19F005C083E0089581E07D
:10444000089587E008958091AA0280FD17C081FD3C
:1044500017C082FD19C08091A802882399F08C337F
:1044600098F428E3829FC00111246CE370E00E945D
:104470006425862F672B49F481E008958EE0089526
:104480008CE1089588E0089588E30895282F35EB9E
:104490002303C001112497FF03C08058910902C073
:1044A00080589F4F892F0895A0E0B0E0EAE5F2E23E
:1044B0000C94DD24EC018AE0A82EFE012491222335
:1044C00009F4A3C0213009F044C0319684918130B1
:1044D00059F42296FE018491893319F060E070E06E
:1044E0008EC060E570E08BC0823031F42296FE0110
:1044F00084910E94581F87C0833031F42296FE01B8
:1045000084910E94251F7FC0843009F07BC02296D1
:10451000FE01249180E090E030E0205331092A3000
:10452000310560F4A89EA001A99E500D1124C90177
:10453000840F951F2196FE012491EECF009709F478
:1045400062C0EFE9FFE03197F1F700C0000001978A
:10455000F5CFE22FF0E0E954F64FB490822F869524
:104560008695869590E0FC01E955F64FE49027701A
:10457000F12C022E02C0F594E7940A94E2F7F1E0E0
:10458000EF22FF24FC01E956F64FC490D12C022EF5
:1045900002C0D594C7940A94E2F731E0C322DD2427
:1045A000FC01E957F64F049110E002C015950795FC
:1045B0002A95E2F701701127E114F10419F081EE58
:1045C0000E94581FC114D10419F086EE0E94581F92
:1045D00060E070E08B2D0E94CC1FC114D10419F053
:1045E00086EE0E94251FE114F10419F081EE0E946D
:1045F000251F0115110539F060E070E08CE20E9482
:10460000CC1F01C0EF01219658CFCDB7DEB7EAE04D
:104610000C94F924EF92FF920F931F93CF93DF93A3
:10462000182FEB011092BC0084EA8093BC000E941A
:104630009E207C018091BC0087FD0DC0CF3F8FEF95
:10464000D807C1F3C7010E948F20C817D90790F778
:104650008EEF9FEF2DC08091B900887F883041F0A8
:104660008091B900887F803119F08FEF9FEF20C0D3
:104670001093BB0084E88093BC000E949E208C01B4
:104680008091BC0087FD0BC0CF3F8FEFD807C1F3EF
:10469000C8010E948F20C817D90790F7D9CF809101
:1046A000B900887F883111F08034F9F680E090E01D
:1046B000CDB7DEB7E6E00C94FD241092B9008CE093
:1046C0008093B80008950F931F93CF93DF93EB016E
:1046D0008093BB0084E88093BC000E949E208C01E4
:1046E0008091BC0087FD0DC0CF3F8FEFD807C1F38D
:1046F000C8010E948F20C817D90790F78EEF9FEF4F
:104700000CC02091B900287F81E090E0283211F49C
:1047100080E090E0919581959109DF91CF911F9173
:104720000F9108950F931F93CF93DF93EC0184ECC7
:104730008093BC000E949E208C018091BC0087FD6C
:104740000DC0CF3F8FEFD807C1F3C8010E948F2063
:10475000C817D90790F78EEF9FEF03C08091BB0079
:1047600090E0DF91CF911F910F9108950F931F93C8
:10477000CF93DF93EC0184E88093BC000E949E20DD
:104780008C018091BC0087FD0DC0CF3F8FEFD80713
:10479000C1F3C8010E948F20C817D90790F78EEF88
:1047A0009FEF03C08091BB0090E0DF91CF911F91FC
:1047B0000F910895A0E0B0E0E0EEF3E20C94D9246C
:1047C000682E762E5A0169010E949E204C01043108
:1047D000110558F00F3F8FEF180751F0C80164E141
:1047E00070E00E94C124EB0105C0C1E0D0E002C02E
:1047F000C5E0D0E0BE01862D0E940A237C0197FF10
:104800000BC00F3F8FEF1807A9F3C4010E948F2040
:104810000817190778F713C0B801872D0E94632382
:104820007C01E501CA0CDB1CCC15DD0541F0F7FC71
:1048300006C0B80189910E9463237C01F5CF84E909
:104840008093BC00C701CDB7DEB7EEE00C94F52431
:10485000A0E0B0E0EEE2F4E20C94D924782E662ECB
:104860007A01E9010E949E205C010431110558F093
:104870000F3F8FEF180759F0C80164E170E00E9404
:10488000C1246B0107C0CC24C394D12C03C025E004
:10489000C22ED12CB601872D0E940A234C0197FF0E
:1048A0000BC00F3FEFEF1E07A9F3C5010E948F2039
:1048B0000817190778F72BC0B801862D0E946323CB
:1048C0004C0197FD24C0F72DF1607F2E0E949E20A1
:1048D0005C010431110528F10F3F8FEF180729F112
:1048E000C80164E170E00E94C1246B01B601872D0C
:1048F0000E940A234C0197FD1CC067012197C60145
:104900008E199F098C179D0758F597FE1DC084E9E5
:104910008093BC00C4011816190674F580E090E07D
:104920002BC0CC24C394D12CE1CF85E0C82ED12C50
:10493000DDCF0F3FEFEF1E07C9F2C5010E948F20A8
:104940000817190798F6D9CFC8010E9492234C0185
:1049500097FD02C0F6018083FFEFCF1ADF0ACFCFA9
:1049600097FCD5CFC8010E94B6234C0197FDCFCF4D
:10497000CE0DDF1D8883CBCFCDB7DEB7EEE00C9434
:10498000F524AA1BBB1B51E107C0AA1FBB1FA6171A
:10499000B70710F0A61BB70B881F991F5A95A9F7E8
:1049A00080959095BC01CD0108952F923F924F9232
:1049B0005F926F927F928F929F92AF92BF92CF92AF
:1049C000DF92EF92FF920F931F93CF93DF93CDB7B8
:1049D000DEB7CA1BDB0B0FB6F894DEBF0FBECDBF30
:1049E00009942A88398848885F846E847D848C8401
:1049F0009B84AA84B984C884DF80EE80FD800C810A
:104A00001B81AA81B981CE0FD11D0FB6F894DEBFEC
:104A10000FBECDBFED010895F999FECF92BD81BDC6
:104A2000F89A992780B50895A6E1B0E044E050E0F7
:104A30000C945625A8E1B0E042E050E00C945625D5
:104A4000DC01A40FB51F4150504048F0CB01840F4A
:104A5000951F2E910E94312541505040D0F7089566
:104A6000262FF999FECF92BD81BDF89A019700B427
:104A7000021639F01FBA20BD0FB6F894FA9AF99AC7
:104A80000FBE08950396272F0E9431250E943025DE
:104A9000252F0E943125242F0C9431250196272F94
:104AA0000E9431250C943025DC01CB01FC01F999E1
:104AB000FECF06C0F2BDE1BDF89A319600B40D926A
:104AC00041505040B8F7089597FB072E16F4009414
:104AD00007D077FD09D00E94C12407FC05D03EF421
:104AE000909581959F4F0895709561957F4F08959A
:104AF000EE0FFF1F0590F491E02D0994FB01DC01FE
:104B000004C08D910190801921F441505040C8F7A4
:0A4B1000881B990B0895F894FFCF5D
:104B1A00E41FFD0FF60FEF0FE80F20000000000062
:104B2A0000000000741A641A00000000013377794B
:104B3A0037722F3934587233004422476D65064361
:104B4A0006FC058F05BB06D406F4060D0781828391
:104B5A00E200E900EA00B500B600B700CD00830123
:104B6A00CC008A0192019401210223022402250227
:104B7A00260227022A02B300B4006F0070009F01C8
:104B8A00CB019F02A002F0F1F4F5F6F70000000055
:104B9A0000000030313233929366010101010101B4
:084BAA00010000000000000002
:00000001FF
