:100000000C9470050C948D050C948D050C948D0545
:100010000C948D050C948D050C948D050C948D0518
:100020000C948D050C948D050C94C1150C9403153E
:100030000C94F41F0C948D050C948D050C948D0577
:100040000C948D050C948D050C948D050C948D05E8
:100050000C948D050C94B31F0C948D050C948D0598
:100060000C948D050C948D050C948D050C948D05C8
:100070000C948D050C948D050C948D050C948D05B8
:100080000C948D050C948D050C948D050C948D05A8
:100090000C948D050C948D050C948D050C948D0598
:1000A0000C948D050C948D050C948D05BE06C3062D
:1000B000CD06C106C606CB06C906530759075F071A
:1000C00065076B07710777077D07830789078F0728
:1000D00095079A079F07A407A907AE07B307B807B4
:1000E000BD07C207C707CC07240898082C08F607E5
:1000F000FA073008FD0733083E0808088E080C0888
:10010000420810084608700814084A087A081A08B5
:1001100050085A080108370804083A081F0855080B
:10012000660886088808F2072808A10837093709F1
:100130006A096A09E709050A020B020B0A0A7E0A24
:100140008F0A8F0A09133013EB143013EB147C134E
:100150009F13EB14A114B1140102E00102E10101AB
:10016000180103E10103E001043130307C01011E7C
:1001700001043130307C01012101043130307C0137
:10018000012101043130307C010128000102E0012D
:1001900002E10101180103E10103E0010431303003
:1001A0007C01010901043130307C0101210104315D
:1001B00030307C010128000102E00102E101011858
:1001C0000103E10103E001043130307C01011E0133
:1001D000043130307C01012101043130307C0101D7
:1001E0001F01043130307C010128000102E00102CE
:1001F000E10101180103E10103E001043130307C29
:1002000001010801043130307C0101060104313064
:10021000307C010128000102E00102E10101180126
:1002200003E10103E001043130307C0101080104E5
:100230003130307C01010901043130307C0101286A
:10024000000102E00102E10101180103E10103E004
:1002500001043130307C01010901043130307C016E
:10026000012001043130307C010128000102E0014D
:1002700002E10101180103E10103E0010431303022
:100280007C01010901043130307C01011F0104317E
:1002900030307C010128000102E00102E101011877
:1002A0000103E10103E001043130307C0101080168
:1002B000043130307C01010801043130307C01010F
:1002C00028000102E00102E10101180103E101033C
:1002D000E001043130307C01010901043130307C0F
:1002E00001012601043130307C010128000102E0C7
:1002F0000102E10101180103E10103E001043130D1
:10030000307C01011F01043130307C0101270104E0
:100310003130307C01010401043130307C010106B0
:1003200001043130307C010128000102E00102E1CA
:100330000101180103E10103E001043130307C01C7
:10034000010801043130307C0101240104313030D6
:100350007C010128000102E00102E1010118010312
:10036000E10103E001043130307C01011E01043160
:1003700030307C01012701043130307C010124013F
:10038000043130307C010128000102E00102E1016A
:1003900001180103E10103E001043130307C010167
:1003A0001E01043130307C01012401043130307CE5
:1003B00001010401043130307C010128000102E018
:1003C0000102E10101180103E10103E00104313000
:1003D000307C01011E01043130307C010124010414
:1003E0003130307C01010601043130307C010128BC
:1003F000000102E00102E10101180103E10103E053
:1004000001043130307C01010801043130307C01BD
:10041000011F01043130307C010128000102E0019C
:1004200002E10101180103E10103E0010431303070
:100430007C01010801043130307C010127010431C5
:1004400030307C010128000102E00102E1010118C5
:100450000103E10103E001043130307C01011E01A0
:10046000043130307C01012201043130307C010143
:100470000501043130307C010128000102E0010255
:10048000E10101180103E10103E001043130307C96
:1004900001011E01043130307C010127010431309B
:1004A000307C01012201043130307C01012800013F
:1004B00002E00102E10101180103E10103E001048E
:1004C0003130307C01010801043130307C010105FC
:1004D00001043130307C010128000102E00102E119
:1004E0000101180103E10103E001043130307C0116
:1004F000010801043130307C010104010431303045
:100500007C010128000102E00102E1010118010360
:10051000E10103E001043130307C01011E010431AE
:1005200030307C01011E01043130307C0101260194
:10053000043130307C010128000102E00102E101B8
:1005400001180103E10103E001043130307C0101B5
:100550000801043130307C01012501043130307C48
:10056000010128000102E00102E10101180103E19B
:100570000103E001043130307C0101080104313015
:10058000307C01012601043130307C010128000556
:10059000010980A101850319012AB700150126B7B9
:1005A00000950175108100C0050C0901A1018504A9
:1005B00019012AA002150126A002950175108100DB
:1005C000C005010906A1018506050719E029E715FF
:1005D0000025019508750181020507190029EF150D
:1005E00000250195F075018102050819012905957D
:1005F0000575019102950175039101C0050109027C
:10060000A1010901A1000509190129081500250109
:100610009508750181020501093009311581257F91
:1006200095027508810609381581257F95017508A1
:100630008106050C0A38021581257F950175088110
:1006400006C0C00660FF0961A1010962150026FF0E
:10065000009520750881020963150026FF0095208A
:1006600075089102C005010906A101050719E029D5
:10067000E71500250195087501810295017508812E
:10068000010507190029FF150026FF0095067508CA
:100690008100050819012905150025019505750139
:1006A0009102950175039101C009027400040100D3
:1006B000A0FA090400000103010100092111010051
:1006C000012244000705810308000109040100021A
:1006D0000300000009211101000122220007058307
:1006E00003200001070504032000010904020001A2
:1006F00003010200092111010001224700070582C0
:100700000310000109040300010300000009211186
:10071000010001226D000705850320000112010080
:100720000200000008973274490001010203011819
:1007300003330077007900370072002F0056004F16
:10074000005A00770037000000160345007200676A
:10075000006F0064006F007800200045005A000020
:100760000028035A00530041002000540065006334
:100770000068006E006F006C006F00670079002059
:10078000004C006100620073000000040309042EA5
:10079000002B002900E100050100001E00140004E8
:1007A000001D003500E0001F001A0016001B003974
:1007B000004C00200008000700060050002C00211B
:1007C000001500090019004F004A00220017000A16
:1007D0000005000000E3002F022F000000260200A9
:1007E00000E20030023000000027020000E6002393
:1007F000001C000B0011000000E700240018000D91
:1008000000100051004D0025000C000E0036005273
:10081000002800260012000F003700C2522A0027CD
:10082000001300330038004900E4002D003100348B
:1008300000E500C1520000010001000100010001BB
:100840000000003A00037E087E0C7E460001003B5B
:1008500000047E097E0D7EAC0001003C00057E0A8E
:100860007E0E7EAE0001003D00067E01000F7EABD5
:100870000001003E00077E0B7E0100000001000128
:100880000021020000107E0000010001004B00006A
:10089000004E00000001003F0001000100197E0031
:1008A0000001004000117E157E0100AA00010041F8
:1008B00000127E167E0100A90001004200137E177F
:1008C0007E0100BE0001004300147E187E0100BDC1
:1008D000000100440045000100010001000000018A
:1008E00000010001000100035200000100010001AD
:1008F0000001000100010001000100CF0001000122
:100900000001000100CD00CE000100010001000146
:10091000000100D000010001000100010001000100
:1009200000010000000100010001000000010000C2
:1009300000010001000100000001000000010001B1
:10094000000100DB0001000000010001000100DAED
:100950000001000100010001000100D900010001B7
:1009600000D20001000100DC0001000100D1000103
:10097000000100010001000100D30001000100019D
:10098000000100005200000100010001000100010F
:100990000000000100010001000100010001000150
:1009A000000100010001000100010001000100013F
:1009B000000100010001000100010001000100012F
:1009C0000001000100010001000100000001000120
:1009D0000001000000010000000100010001000012
:1009E0000001000000010053005F005C005900009E
:1009F000000100540060005D005A006200010055D3
:100A00000061005E005B00630058005600570067FD
:100A10000058000100010001000100010001000177
:100A2000000100010001000100010000520000006F
:100A300000000000000000000000000000000000B6
:100A400000000000000000000000000000000000A6
:100A50000000007E0F00D4FFFFFFC70000007800F9
:100A6000000000000000002A2B2800000000000009
:100A70000000000000000000000029000000002C21
:100A80001E3420212224342627252E362D373827C0
:100A90001E1F202122232425263333362E37381FCC
:100AA0000405060708090A0B0C0D0E0F101112138E
:100AB0001415161718191A1B1C1D2F3130232D352C
:100AC0000405060708090A0B0C0D0E0F101112136E
:100AD0001415161718191A1B1C1D2F3130354C0010
:100AE00011241FBECFEFDAE0DEBFCDBF11E0A0E0E2
:100AF000B1E0E2E1F9E402C005900D92A838B10737
:100B0000D9F722E0A8E8B1E001C01D92AF3AB207E0
:100B1000E1F70E94BF0C0C9487240C94000090E035
:100B2000FC01EF5DFE4F208121111AC0F894FC01F9
:100B3000ED5EFE4F8081E82FE295EF70F0E031A18D
:100B4000282F2F7081E090E001C0880F2A95EAF7E6
:100B5000982F9095932391A392A1892B82A37894A7
:100B60000895A6E0B0E0E7EBF5E00C94E0234983BC
:100B70005A8349815A81992361F0222351F0CA0195
:100B80000E94581C182F682F89819A810E94C81CC6
:100B900004C0CA010E94941C182F69817A81812F98
:100BA0000E94FE172696E3E00C94FC23A4E3B0E039
:100BB000ECEDF5E00C94DD234FA758AB69AB7AABB5
:100BC0008BAB9CAB192F911110921D02DE019896F0
:100BD00087E0FD0111928A95E9F786E0FE01BF9654
:100BE00001900D928A95E1F7EFA4F8A80BA90023D4
:100BF000E9F021E0A7016AA57BA5C8010E94B10523
:100C00008091BF01882391F0111102C087E001C0DB
:100C100086E08983EA82FB828EEF8C8340E250E09B
:100C2000BE016F5F7F4F83E00E94311FE8A6F9A6E7
:100C30000CA71DA787E0FE01B896DE0191960190F2
:100C40000D928A95E1F7CE0181960E94221A8111B8
:100C50002CC087E0FE01B196DE01119601900D9245
:100C60008A95E1F76DA1662301F12091E10130E061
:100C7000C90101968770992740911A0250E08417A4
:100C8000950761F16D8397E0929FD001939FB00D1E
:100C90001124AE51BE4FFE01319601900D929A95EE
:100CA000E1F78093E1010E94BF1917E080911A02D9
:100CB0009091E1018917F9F0189FC00111248E511C
:100CC0009E4F0E94221A8823B1F080911A0290E070
:100CD00001968770992780931A02E8CF0E94411DE0
:100CE0001092E10110921A02EAEDF1E087E0DF01D3
:100CF0001D928A95E9F7E496E6E00C94F923982F83
:100D000092959F7019F0892F24E001C020E0982F60
:100D10009695969511F02E5F892F982F969509F04C
:100D20002F5F822F089527982F98089526982E9840
:100D3000089525982D9808952F9A08952E9A08952C
:100D40002D9A0895A0E2B0E0E8EAF6E00C94DF23E3
:100D5000082F0E947F06182F5E980E9499060E9415
:100D600096060E949306812F90E0FC013197E730B0
:100D7000F105A8F4EA5AFF4F0C9474240E94A006CF
:100D80000EC00E94A0060E949E0609C00E94A006F6
:100D900004C00E94A0060E949E060E949C068091AC
:100DA000BF018823D9F080918B011817B9F01093F7
:100DB0008B018FE39CE90197F1F700C0000085E00B
:100DC000898380918B018A838EEF8B8340E250E090
:100DD000BE016F5F7F4F83E00E94311F802FA0967E
:100DE000E4E00C94FB23A0E0B0E0E9EFF6E00C9423
:100DF000DA23FC018481882309F48BC48F0121E06C
:100E0000408151816281738195810E94B105EC011D
:100E1000F8019581C115FEE7DF07D1F5992309F4A3
:100E2000C1C090919D0181E0890F8770987F8530C6
:100E300020F4892B80939D0102C090939D018091A5
:100E40009D0187702FEF829FC00111249595879592
:100E50009595879599279093890080938800909322
:100E60008B0080938A0090938D0080938C0040913A
:100E70009D0150919E0160919F017091A0018FE0B2
:100E800090E00E943E248091C2010E94A2068AC086
:100E9000FE01E350FE47E731F10508F083C0E35A55
:100EA000FF4F0C947424992309F47CC084E695E0E8
:100EB00077C0992309F476C089E395E071C099233E
:100EC00009F470C085E095E06BC0992309F46AC00D
:100ED0008AED94E065C0992309F464C08FEA94E038
:100EE0005FC0992309F45EC08BE794E059C0992351
:100EF00009F458C087E494E053C0992309F452C020
:100F00008CE194E04DC0992309F44CC081EF93E04B
:100F100047C0992309F446C08DEB93E041C0992363
:100F200009F440C089E893E03BC09923D9F185E5F5
:100F300093E036C09923B1F18AE293E031C099235E
:100F400089F18DEE92E02CC0992361F182EC92E060
:100F500027C0992339F187E992E022C0992311F142
:100F60008CE692E01DC09923E9F081E492E018C07C
:100F70009923C1F086E192E013C0992399F08BEE9A
:100F800091E00EC0992371F087EB91E009C099239D
:100F900049F08CE891E004C0992321F088E591E0C4
:100FA0000E945021F8018581882309F406C1CE01F1
:100FB0009057839708F0DBC084E090E00E941624ED
:100FC0009093A9028093A802FE01E150F047E2321B
:100FD000F10520F4EC58FF4F0C9474248091A80282
:100FE0008160ACC08091A9028860B4C08091A802E1
:100FF0008260A4C08091A80220C08091A80288606D
:101000009DC08091A9021EC08091A9028260A2C0E9
:101010008091A802806192C08091A80280628EC0F7
:101020008091A80280648AC00E94411D8091A8021C
:10103000806884C08091A802886084607FC08091AD
:10104000A9028260816086C08091A8028E7F76C0EE
:101050008091A902877F7EC08091A8028D7F6EC09B
:101060008091A80220C08091A802877F67C08091EC
:10107000A9021EC08091A9028D7F6CC08091A80238
:101080008F7E5CC08091A8028F7D58C08091A8029D
:101090008F7B54C00E94411D8091A8028F774EC063
:1010A0008091A802877F8B7F49C08091A9028D7FA4
:1010B0008E7F50C08091A80282FB222720F991E008
:1010C000922790FB82F990FB83F938C08091A902A6
:1010D000982F909591708E7F892B90FB81F93AC063
:1010E0008091A80286FB222720F991E0922790FBAD
:1010F00086F924C00E94411D8091A80287FB222707
:1011000020F991E0922790FB87F918C061E001C0B7
:1011100060E08EE090E00E942C241EC08091A80226
:1011200084FB222720F991E0922790FB84F906C0E6
:101130008091A802982F909590FB80F98093A80247
:101140000BC08091A90283FB222720F991E092270E
:1011500090FB83F98093A9026091A8027091A90283
:1011600084E090E00E944A240E94411D14C0C631D0
:101170002CE7D20709F078C2809146028A7A91E082
:1011800009F490E090938C018111C1C289E20E9420
:101190004B200E943F1980911B02877009F4B9C24D
:1011A000F8018581882309F4B4C28091A90282FFE5
:1011B000B0C282E00E949119ACC2C631DC4709F48A
:1011C00049C2F8018581C081D181882349F0CE01CF
:1011D0000E94581CF82E682FCE010E94C81C04C023
:1011E000CE010E94941CF82EBE018F2D0E94FE1786
:1011F0000E941B18F82EC92FC82EF801D581E68051
:10120000E2949FE0E92280911B02877001F1DD23C7
:10121000F1F08C2F807F803469F080E28F0D883070
:10122000B0F08C2F807E803229F4F1E0FF1578F445
:10123000EE2069F08091A90282FF09C082E00E943D
:10124000911980911B028770DD24D3948111D12CD8
:10125000BC2EB2948FE0B8228B2D90E08C3091059B
:1012600008F0D0C1FC01EA56FF4F0C9474248C2F77
:10127000807FCF70882311F0C295C07FDD23B9F045
:10128000CC2309F4ADC180E28F0D883010F0C1107D
:1012900006C090914602C92BC093460205C09091AA
:1012A0001D02C92BC0931D020E943F1999C18F2DA9
:1012B0000E946F1ECC2309F4A5C180E28F0D8830F7
:1012C00088F1CC2079F1C09590911D02C923C0937B
:1012D0001D022BC08C2F807FCF70803211F0C29501
:1012E000C07F8F2DCC2029F021E0C21609F44CC01C
:1012F00055C08091A90282FD1BC0DD2369F0CC237B
:1013000039F090914602C92BC09346020E943F19C2
:1013100080E00E94A21E76C180E00E946F1ECC2356
:1013200009F470C18C2F0E9438190E943F196AC1BC
:10133000DD2381F0EE20B1F181E0E81263C19091EC
:101340001C028C2F8923C81709F45CC1C92BC093D8
:101350001C0258C1E11056C18C2F0E94721D809151
:101360001C029C2F982329F09C2F90958923809311
:101370001C0220918D018C2F822309F443C1C0955A
:101380002C2320938D013EC1DD2329F091E09E1591
:1013900008F438C107C0E11035C115C0DD2331F0B4
:1013A000E1101EC18C2F0E94791D2CC1EE2059F036
:1013B000893309F024C1EFEFF7EE23E0E150F0406C
:1013C0002040E1F71AC18C2F0E94721D1BC18C2F87
:1013D00086958695837019F0813061F013C1DD2305
:1013E00021F08F2D9C2F937002C080E090E00E942E
:1013F000A7200EC1DD2321F08F2D9C2F937002C0FA
:1014000080E090E00E94822003C16D2F8F2D0E940A
:10141000831DFEC08C2F8370A9F5D111F7C04F2D0D
:10142000429546954770440F440F8F2D8F7090E082
:101430009C01042E01C0220F0A94EAF7F4FE08C0B2
:101440008FE090E001C0880F4A95EAF7809501C0CF
:1014500080E0C695C695C370C23069F088F490915B
:101460009C01C13019F0822B892302C0922B892B59
:101470000E941B1DCBC0822B90919C018927F8CF25
:10148000822BF6CFDD2319F08C2F817001C0869559
:10149000882309F4BBC04F2D429546954770440FF1
:1014A000440F8F2D8F7090E09C01042E01C0220FFD
:1014B0000A94EAF7F4FE08C08FE090E001C0880FBC
:1014C0004A95EAF7809501C080E0C695C695C3703D
:1014D000C23059F078F49091C201C13019F0822BDA
:1014E000892309C0922B892B06C0822B9091C201BF
:1014F000892701C0822B0E94FD1C88C0CF70DD238C
:1015000039F08C2F0E940F1D8F2D0E94791D7EC0F7
:101510008F2D0E94721D8C2F0E94021D77C08F2D6F
:1015200092EFC91669F19C1538F0E0EFCE1659F02C
:10153000F1EFCF1601F150C023EFC21641F194EF45
:10154000C916A9F049C0DD2369F0E1105BC0CF7175
:1015500081E090E001C0880FCA95EAF79091C2013E
:1015600089271FC0E1E0EE1508F44CC0F0CF809150
:10157000A90282FD19C0DD2329F08C2F8F711FC0B5
:10158000DD23D9F38C2F8F710E94021D3BC0DD2318
:1015900039F0CF7181E001C0880FCA95EAF701C028
:1015A00080E00E94FD1C2EC0DD2361F08C2F8F7126
:1015B000F8E08F9F90011124236020931B020E946A
:1015C0000F1D20C081E00E94911921E02E15D0F45A
:1015D00082E00E94911916C0DD2321F0EE2069F20D
:1015E0008F2D97CEEE2071F2893349F48FEF97EE6D
:1015F000E3E081509040E040E1F700C000008F2D13
:101600000E946F1E88EF8B0D843010F40E94CC2056
:10161000DD20A9F080911B0280FD11C0F801158228
:101620008695869586950E940F1DC8010E94F30637
:1016300080911B028695869586950E94021D20E06A
:10164000F8014081518162817381848195810E947A
:10165000B1055FC080918C01811104C089E20E94B4
:101660001D2097CD85E3FBCFC330FCE7DF0779F181
:1016700090F4C1158CE7D807E1F0C130DC4709F0E0
:10168000A0CD0E94411DFFEF24E38CE0F1502040EB
:101690008040E1F72BC0CB35ECE7DE07A1F1CC357C
:1016A000FCE7DF0741F1CA35DC4709F08ACD81E06C
:1016B0002BC00E94411D8FEF94E3ECE081509040DD
:1016C000E040E1F700C000000E94811F64CD6FEF91
:1016D0007FEF80E090E00E944A240E94411D9FEF2E
:1016E000E4E3FCE09150E040F040E1F700C000008E
:1016F0000E94761F50CD8091A90282FB882780F935
:1017000091E0892701C080E00E94A8195ACD85E3A5
:101710003ECDCDB7DEB7E9E00C94F623A0E2B0E011
:10172000E4E9FBE00C94E1239FEF99838A8340E294
:1017300050E0BE016F5F7F4F83E00E94311FA09693
:10174000E2E00C94FD23A1E0B0E0E9EAFBE00C94B8
:10175000DF238730F8F420910A0130910B01232B0D
:10176000D1F521E030E0A90102C0440F551F8A9550
:10177000E2F7CA01809589830AE010E0AE014F5F6D
:101780005F4F62E180E40E94D62290930B01809328
:101790000A0121C090E0FC01EF5DFE4F2081211184
:1017A0001AC0F894FC01ED5EFE4F8081E82FE295AF
:1017B000EF70F0E031A1282F2F7081E090E001C0A0
:1017C000880F2A95EAF7932F982B91A392A18095E1
:1017D000892382A378942196E4E00C94FB230F9351
:1017E0001F93CF9308E211E0C7E0F80181918F01C8
:1017F000811103C08C2F0E948F05CF5FCE30A9F7D7
:10180000CF911F910F910895A1E0B0E0EAE0FCE0D4
:101810000C94DF23082F8730C8F480910A0190913F
:101820000B01892BE9F519820AE010E021E030E094
:10183000AE014F5F5F4F63E180E40E9424239093E9
:101840000B0180930A01898180952BC00E94A30B14
:10185000ADE0B1E020E030E010E051E04D91E42F48
:10186000E295EF70F0E080A190E04F7002C0959596
:1018700087954A95E2F780FD07C0852F022E01C0AB
:10188000880F0A94EAF701C080E0182B2F5F3F4FC2
:101890002630310519F7802F0E948F05812F01C056
:1018A00080E02196E4E00C94FB23CF93DF93ADE03E
:1018B000B1E043E151E061E070E0F8948D91E82FF0
:1018C000E295EF70F0E021A18F70EB0102C0CC0F28
:1018D000DD1F8A95E2F7CE019C2F9095922391A36C
:1018E00092A1892B82A378944A175B0731F7DF9185
:1018F000CF910895A2E0B0E0E0E8FCE00C94DF2393
:1019000080E290E090930B0180930A0180918A011C
:1019100081110EC00E94592281E080938A012FEF2D
:1019200083ED90E3215080409040E1F700C000003B
:1019300019828FE38A830AE010E022E030E0AE01F2
:101940004F5F5F4F60E080E40E94D62290930B01CE
:1019500080930A01892B69F422E030E0AE014F5FE9
:101960005F4F6CE080E40E94D62290930B0180933D
:101970000A0180910A012296E4E00C94FB23A6E47C
:10198000B0E0E5ECFCE00C94D52385B7806885BF1A
:1019900085B7806885BF84B7877F84BF0FB6F8940A
:1019A000A89580916000886180936000109260002B
:1019B0000FBE90E080E80FB6F8948093610090939A
:1019C00061000FBE8BEC96E19093890180938801B2
:1019D0000E9447150E9466158091E2008460809302
:1019E000E20078948091D0018823A1F01091E90061
:1019F0001F709091EC00892F817090FD80E8182B6A
:101A00001092E9008091E80083FD0E9427121F7068
:101A10001093E90082E084BD93E095BD9AEF97BDF5
:101A200080936E000E947A0C90E090930B0180935B
:101A30000A010E94EF0B0E94550CEEE8F1E08CE9E0
:101A400091E0A1EAB1E011921D928E179F07D9F79C
:101A500080E090E00E941624853E9E4F09F46EC0FF
:101A600065EE7EEF80E090E00E944A2460E082E034
:101A700090E00E942C2481E080939C0161E083E04F
:101A800090E00E942C2460E074E184E090E00E94E9
:101A90004A2460E086E090E00E942C2460E087E029
:101AA00090E00E942C2440E050E0BA0188E090E0F1
:101AB0000E943E2460E083E290E00E942C2460E0DB
:101AC0008CE090E00E942C2460E08DE090E00E9489
:101AD0002C2419821A821B821C821D821E821F8264
:101AE000188648E050E067E170E0CE0101960E9460
:101AF0001C2440E050E0BA018FE190E00E943E24B7
:101B000010929D0110929E0110929F011092A001CF
:101B100084E080939D0140919D0150919E016091D0
:101B20009F017091A0018FE090E00E943E2440E070
:101B300050E0BA0183E190E00E943E2482E090E010
:101B40000E9408248093AF0184E090E00E94162454
:101B50009093A9028093A8020E94CD1B8FEF96E775
:101B6000E1E081509040E040E1F700C000000E94B9
:101B7000CD1B8091A10180FF08C06FEF7FEF80E057
:101B800090E00E944A240E94811F83E090E00E941E
:101B900008240E941B1D8091C2010E94A20689EAAE
:101BA0008093800089E08093810024982C983F984E
:101BB000479A54985C9A55985D9A6E98769A259AA9
:101BC000269A279A569A8FE090E00E9410246093FC
:101BD0009D0170939E0180939F019093A001677077
:101BE0001FEF169FB0011124759567957595679540
:101BF0007727709389006093880070938B006093BF
:101C00008A0070938D0060938C005E980E94990604
:101C10000E9496060E9493068FEF90E090938900B1
:101C20008093880090938B0080938A0090938D001E
:101C300080938C000E94A006FFEF20E782E0F15025
:101C400020408040E1F700C000000E949E069FEF08
:101C5000E0E7F2E09150E040F040E1F700C0000022
:101C60000E949C062FEF80E792E021508040904038
:101C7000E1F700C000000E949906EFEFF0E722E0D4
:101C8000E150F0402040E1F700C000000E949606BD
:101C90008FEF90E7E2E081509040E040E1F700C034
:101CA00000000E94930680919D018770189FC001DB
:101CB00011249595879595958795992790938900F7
:101CC0008093880090938B0080938A0090938D007E
:101CD00080938C005E980E9499060E9496060E944E
:101CE000930680E091E09093A5028093A40208E11E
:101CF00010E08091D001853009F056C030E4D32E39
:101D000040E1E42E52E1F52E8091D001853009F0BA
:101D100047C08091D001843009F11092AA020FB619
:101D2000F894A895009360000FBED092600083B72E
:101D3000817F846083BF83B7816083BF78948895F7
:101D400083B78E7F83BF0FB6F894A895809160000B
:101D5000886180936000109260000FBE8091CF0177
:101D6000882391F20E947A0C90E090930B0180936B
:101D70000A010E94EF0B0E94550CE1EAF1E011927A
:101D800021E0EF3AF207D9F70E94CD1BE1EAF1E03A
:101D90008191811162C281E0EF3AF807C9F7B4CFAF
:101DA0000E94411D0E94CC200E94CD1B20EBC22E20
:101DB00021E0D22EA1EAB1E0F60191918D9189271F
:101DC00091E0EE3BF90719F08823B9F305C08111C2
:101DD00003C00E94A91B55C091EA892E91E0992E5B
:101DE000F12CF40171904F01F601A080A724B9F104
:101DF000E12CBB24B394662463948A2D8B2141F19A
:101E00002296EFAE22972396FFAE23970E94E81FFB
:101E100025969FAF8EAF259726966FAE269791E0B9
:101E2000872D8B2109F490E027969FAF2797229664
:101E30004FAD229723965FAD239724966FAD2497DD
:101E400025967FAD259726968FAD26970E94D605BD
:101E5000E394BB0CF6E0EF12D0CFF6017082F3945E
:101E6000FFEFCF1ADF0A2EE0F212BBCF8FB7F89444
:101E70004091AB025091AC026091AD027091AE0204
:101E80008FBFB0909D02C0909E02D0909F02F090B4
:101E9000A002E090A10210929E0210929F02109266
:101EA000A0021092A102C11003C0DD2009F447C0B6
:101EB00080919B0290919C020E94D91F9C0190915D
:101EC0009602992309F4DFC120313105C0F19F3F0B
:101ED00019F09F5F90939602CC2061F00E9422211E
:101EE0001C1414F491E001C09FEF899F802D1124F0
:101EF00080939E02DD2061F00E9422211D1414F0C7
:101F00009FEF01C091E0899F802D112480939F0253
:101F100080919E02882399F0A0909F02AA2079F0D8
:101F20000E944221811101C081E080939E028A2D8E
:101F30000E944221811101C081E080939F02F11033
:101F400003C0EE2009F447C08091990290919A0253
:101F50000E94D91F9C0190919702992309F497C17F
:101F600020313105C0F19F3F19F09F5F9093970298
:101F7000FF2061F00E9400211F1414F491E001C0C1
:101F80009FEF899F802D11248093A002EE2061F0A5
:101F90000E9400211E1414F09FEF01C091E0899F60
:101FA000802D11248093A1028091A002882399F0B2
:101FB000A090A102AA2079F00E944221811101C0C3
:101FC00081E08093A0028A2D0E944221811101C0EC
:101FD00081E08093A10280919D028B111AC08091B3
:101FE0009E02882311F08C1114C080919F028823D7
:101FF00011F08D110EC08091A102882311F0E8121A
:1020000008C09091A002992331F081E0F91204C038
:1020100002C081E001C080E080FD15C080919E0279
:1020200081110FC080919F0281110BC08091A0028D
:10203000811107C081E09091A102911103C080E05D
:1020400001C081E080FD0E94D920B0929D02C09223
:102050009E02D0929F02F092A002E092A1020E9402
:10206000CC209091BE01891769F08093BE018FB793
:10207000F8944091AB025091AC026091AD02709126
:10208000AE028FBF8091D001843009F0D5C080931B
:10209000E9008091E80082FFCFC08091E80085FFD1
:1020A00024C00E94981681111EC080E2E82EF12CF7
:1020B0006E0181E2C80ED11C09C08091F100F601C9
:1020C00081936F01F1E0EF1AF10869F08091E80067
:1020D00085FDF3CF8091E8008B778093E8000E9424
:1020E0009816882399F391E001C090E08091E80070
:1020F0008B778093E800992309F49EC089A18630EC
:1021000009F479C0B0F4823009F496C060F48823F1
:1021100029F1813009F08DC08093BF0184E089836B
:102120008EEF8A837DC0843031F1853009F463C03D
:1021300080C0893009F45FC030F4873099F188306D
:1021400009F459C076C08A3009F457C08E3F09F0AF
:1021500070C0898394E09A838B8362C019828CE07B
:10216000EFE2F1E0DE01129601900D928A95E1F71F
:102170008EEF8D8755C08091BF01882309F45CC024
:102180008AA1811104C08BA10E94021D55C081E06B
:1021900090E00BA002C0880F991F0A94E2F70E94FA
:1021A000FD1C4AC081E08093C1018AA18230C1F048
:1021B00000F5882319F0813051F01BC08BA18823D2
:1021C00019F00E94A00638C00E94990635C08BA164
:1021D000882319F00E949E062FC00E9496062CC0EC
:1021E0008BA1882319F00E949C0626C00E949306AA
:1021F00023C085E01FC084E01DC08AA1FF24F394A2
:10220000811101C0F12CF092C101811106C00E9420
:1022100099060E9496060E9493068BE08983FA82B3
:1022200040E250E0BE016F5F7F4F83E00E94311FAC
:1022300003C08FEF0E948E0B0E94CC2081FF03C051
:102240000E949C0656CD8091C2010E947F06833079
:1022500009F44FCD0E9493064CCDE9BCF9BC09B4FA
:1022600000FEFDCF8091D8008F7D8093D8008091B3
:10227000E00082608093E0008091E00081FDFCCF6F
:102280000E94411D41CD232B09F023CE58CE213988
:10229000314008F06ACE9FCE8091D20187FF11C0F5
:1022A0008091E80082FD05C08091D0018111F8CFB6
:1022B00011C08091E8008B770BC08091D0018823FA
:1022C00049F08091E80080FFF8CF8091E8008E7798
:1022D0008093E8000895982F973068F59093E9006F
:1022E000981739F07091EC002091ED005091F000BA
:1022F00003C0242F762F50E021FD02C09F5FECCF5A
:102300003091EB003E7F3093EB003091ED003D7F4C
:102310003093ED003091EB0031603093EB0070931F
:10232000EC002093ED005093F0002091EE0027FD8B
:10233000E5CF80E008958F708093E90081E00895F3
:102340002091D8013091D9012617370748F061153F
:10235000710539F42091E8002E772093E80001C040
:10236000B901FC0120E06115710579F18091D0017E
:102370008823F1F18530F1F18091E80083FD3CC0C4
:102380008091E80082FD2EC08091E80080FFEBCFB5
:102390002091F3008091F20090E0922B611571057D
:1023A00051F08830910538F421912093F10061506B
:1023B00071090196F3CF21E0089709F020E08091A0
:1023C000E8008E778093E800CECF2111CFCF0AC0EE
:1023D0008091D001882361F0853061F08091E80020
:1023E00083FD0AC08091E80082FFF2CF80E008956B
:1023F00082E0089583E0089581E0089543E050E08D
:10240000BC0185E00E94311F089545E050E0BC0109
:1024100082E00E94311F089540E250E0BC0185E057
:102420000E94311F0895CF93DF93EC0148E050E004
:10243000BC0181E00E94311F88E0FE01A6ECB1E002
:1024400001900D928A95E1F7DF91CF910895AAE26C
:10245000B0E0EDE2F2E10C94E023E2EDF1E08091F6
:10246000F100819341E0EA3DF407C9F78091D3017F
:10247000833009F463C030F4813071F0823009F4A4
:102480009DC0B4C08A3009F489C08B3009F46EC095
:10249000893009F0ABC020C08091D201813A09F0A7
:1024A000A5C08091E800877F8093E8008091D601E5
:1024B0009091D701892B21F468E086EC91E003C06C
:1024C00060E080E090E070E00E94A0118091E80060
:1024D0008B778093E8008AC08091D201813209F025
:1024E00085C08091D6019091D701009719F003978C
:1024F00009F07CC08091E800877F8093E80080919C
:10250000E80082FD05C08091D0018111F8CF6EC036
:102510002091F3008091F20090E0922B029731F429
:102520008091F100813011F0863021F48091F1002A
:102530008093C5018091E8008B7754C08091D201CF
:10254000813A09F053C08091D6019091D701892B2F
:1025500009F04CC08091E800877F8093E80080916B
:10256000E80080FFFCCF80910C0137C08091D20140
:102570008132E1F58091D6019091D701892BB1F597
:102580008091E800877F8093E8000E944C11809141
:10259000D40180930C010E94411D28C08091D2017A
:1025A000813221F58091E800877F8093E8000E94C6
:1025B0004C118091D5018093C40118C08091D20143
:1025C000813AA1F48091E800877F8093E8008091B0
:1025D000E80080FFFCCF8091C4018093F1008091DE
:1025E000E8008E778093E8000E944C118091E8000B
:1025F00083FFF1C18091D2019091D301492F50E026
:102600004A30510508F0E7C1FA01EE55FF4F0C942E
:102610007424803821F0823809F0DDC108C080912F
:10262000CE019091CF01992389F082600FC08091F3
:10263000D6018F70873008F0CEC18093E900809179
:10264000EB0085FB882780F91092E9009091E80063
:10265000977F9093E8008093F1001092F1007DC184
:10266000282F2D7F09F0B7C1882319F0823061F03F
:10267000B2C18091D401813009F0ADC1933009F02D
:1026800080E08093CF012EC08091D40181112AC0B7
:102690008091D6018F702FEF280F263008F09BC154
:1026A0008093E9002091EB0020FF1CC0933021F4BF
:1026B0008091EB00806214C09091EB009061909348
:1026C000EB0021E030E0A90102C0440F551F8A95BC
:1026D000E2F74093EA001092EA008091EB008860F4
:1026E0008093EB001092E9008091E800877F80934F
:1026F000E8000E944C116FC181116DC11091D4018D
:102700001F778091E3008078812B8093E300809194
:10271000E800877F8093E8000E944C118091E800D8
:1027200080FFFCCF8091E30080688093E30011116B
:1027300002C082E001C083E08093D0014CC1805888
:10274000823008F048C12091D4013091D5012C3D50
:1027500053E0350779F583E08A838AE289834FB7AE
:10276000F894DE01139620E03EE051E2E32FF0E022
:1027700050935700E49120FF03C0E295EF703F5F54
:10278000EF708E2F90E0EA3010F0C79601C0C0962F
:102790008D939D932F5F243149F74FBF8091E800BF
:1027A000877F8093E8006AE270E0CE0101960E9484
:1027B000A011C1C08091D6019091D701432F552718
:1027C00043305105B1F068F44130510509F412C1AC
:1027D0004230510509F0FFC084E790E0E9EAF6E0F5
:1027E00057C04132510589F14232510509F43CC0CC
:1027F000F2C0C901992781309105B9F070F082309B
:102800009105D9F0039709F0E6C0EFE2F7E0E49113
:102810008E2F90E0EFE2F7E038C0EBE8F7E0E491CC
:102820008E2F90E0EBE8F7E030C0E1E6F7E0E491CE
:102830008E2F90E0E1E6F7E028C0E9E4F7E0E491CC
:102840008E2F90E0E9E4F7E020C08430910508F095
:10285000C2C0880F991FFC01E95BFE4F0190F08117
:10286000E02D89E090E014C08430910508F0B3C0F9
:10287000FC01EE0FFF1FE15CFE4F0190F081E02DA7
:10288000DC01A55CBE4F8C9190E0009709F4A3C0D9
:102890002091E800277F2093E8002091D801309113
:1028A000D9018217930708F49C0140E021153105F6
:1028B00089F18091D001882309F43DC08530D9F198
:1028C0008091E80083FD37C08091E80082FD2FC031
:1028D0008091E80080FFEACF4091F3008091F20000
:1028E00090E0942B2115310559F08830910540F482
:1028F00044914093F1003196215031090196F2CF75
:1029000041E0089709F040E08091E8008E778093DD
:10291000E800CCCF4111CDCF0AC08091D0018823EF
:1029200051F0853041F08091E80083FD04C0809132
:10293000E80082FFF2CF8091E8008B778093E80077
:102940004AC0803809F047C08091E800877F8093B3
:10295000E8008091D1018093F1008091E8008E77AA
:10296000C6CE811138C08091D4019091D5019927AC
:1029700002978CF58091E800877F8093E8001091A2
:10298000D4011093D1010E944C11111106C0809105
:10299000E30087FD02C081E001C084E08093D001A4
:1029A00042E061EC81E00E946B1142E161EC82E067
:1029B0000E946B1142E261EC85E00E946B1142E2E1
:1029C00061EC83E00E946B1142E260EC84E00E94C3
:1029D0006B118091D0018091E80083FF10C080913D
:1029E000E800877F8093E8008091EB00806280930D
:1029F000EB0005C082E190E0EDE1F7E049CFAA9657
:102A0000E3E00C94FC231F920F920FB60F92112457
:102A10002F933F934F935F936F937F938F939F93E6
:102A2000AF93BF93CF93DF93EF93FF93C091E900F0
:102A3000CF708091EC00D82FD17080FDD0E810923B
:102A4000E9008091F000877F8093F00078940E94E5
:102A500027121092E9008091F00088608093F000C6
:102A6000CD2BCF70C093E900FF91EF91DF91CF9113
:102A7000BF91AF919F918F917F916F915F914F9196
:102A80003F912F910F900FBE0F901F901895E8ED7A
:102A9000F0E080818E7F80831092E2001092DA0055
:102AA0001092E100A0EEB0E08C9181608C93808167
:102AB0008F77808319BCA7EDB0E08C918E7F8C93CB
:102AC00080818F7E80831092C3010895A0E0B0E0E2
:102AD000ECE6F5E10C94DB23C8EDD0E088818F7E35
:102AE0008883E7EDF0E080818160808384E082BFAD
:102AF00081E08093C30188818E7F888302EE10E09D
:102B0000F80110821092DA0081EEC82ED12CF60165
:102B1000108288818F778883888180688883888104
:102B20008F7D888319BC1092D0011092D101109230
:102B3000CF011092CE0190EEE92EF12CF7018081A9
:102B40008B7F808388818160888342E060E080E0C1
:102B50000E946B11F60180818E7F8083F801808155
:102B600081608083808188608083F70180818E7F8F
:102B70008083888180618883CDB7DEB7E8E00C94DC
:102B8000F7231F920F920FB60F9211242F933F93AA
:102B90004F935F936F937F938F939F93AF93BF9365
:102BA000EF93FF938091E10082FF09C08091E200E2
:102BB00082FF05C08091E1008B7F8093E1008091CE
:102BC000DA0080FF2AC08091D80080FF26C0809163
:102BD000DA008E7F8093DA008091D90080FF18C0E0
:102BE00080E189BD82E189BD09B400FEFDCF81E0AD
:102BF0008093D0018091C30181110FC00E944715BD
:102C00000E9466158091E20084608093E20005C016
:102C100019BC1092D0011092C3018091E10080FF95
:102C200017C08091E20080FF13C08091E2008E7F88
:102C30008093E2008091E20080618093E2008091C5
:102C4000D80080628093D80019BC85E08093D001C1
:102C50008091E10084FF30C08091E20084FF2CC0AD
:102C600080E189BD82E189BD09B400FEFDCF80917C
:102C7000D8008F7D8093D8008091E1008F7E809373
:102C8000E1008091E2008F7E8093E2008091E2007B
:102C900081608093E2008091D101882311F084E06B
:102CA00007C08091E30087FD02C081E001C083E09E
:102CB0008093D0018091D0018091E10083FF27C0F3
:102CC0008091E20083FF23C08091E100877F8093A1
:102CD000E10082E08093D0011092D1018091E10067
:102CE0008E7F8093E1008091E2008E7F8093E200EE
:102CF0008091E20080618093E20042E060E080E049
:102D00000E946B118091F00088608093F000FF9129
:102D1000EF91BF91AF919F918F917F916F915F9153
:102D20004F913F912F910F900FBE0F901F901895CC
:102D30002091E4003091E50095E64091EC00842F6D
:102D4000817040FF23C08091E80080FD1DC080910C
:102D5000D001882399F0853099F08091EB0085FDB2
:102D600011C04091E4005091E5002417350729F384
:102D7000915011F09A01E1CF84E0089582E0089526
:102D800083E0089581E0089580E008954091E8008F
:102D900042FFDDCF089580E008959091A80292FF50
:102DA00010C041E0282F2471243009F040E031E0C8
:102DB000282F2871283009F030E0431711F02CE05B
:102DC000822793FF10C041E0282F2471243109F09D
:102DD00040E031E0282F2871283109F030E0431716
:102DE00011F02CE082273091A90230FF10C051E091
:102DF000282F2171213009F050E041E0282F28715F
:102E0000283009F040E0541711F029E0822731FF03
:102E100010C041E0282F2171213109F040E031E05C
:102E2000282F2871283109F030E0431711F029E0EC
:102E3000822794FD877E08958238910569F1B0F468
:102E40008133910509F475C048F48932910509F47C
:102E500067C08A32910509F471C0089585339105E0
:102E600009F459C089339105B9F00895833E91055D
:102E700089F138F4803E9105D1F0823E910529F127
:102E80000895863E9105C9F1873E9105D9F1843EAA
:102E9000910509F06CC027C02091A80220FD57C001
:102EA00021FD55C02091A90223FD5BC008958091AA
:102EB000A80280FD48C08091A90280FF48C080918F
:102EC000A80284FD46C083EE51C08091A80282FF13
:102ED0003CC0F5CF8091A80282FD37C08091A90245
:102EE00080FD35C0ECCF8091A90281FF36C0809172
:102EF000A80284FD2EC087EE39C08091A80283FF0E
:102F00002AC0F5CF8091A80283FD25C08091A90237
:102F100081FD23C0ECCF8091A80285FD22C01FC097
:102F20008091A80285FD1BC08091A90283FF19C072
:102F30000AC08091A80286FD16C017C08091A80221
:102F400086FD13C010C089E311C082EE0FC080EE71
:102F50000DC080E00BC086EE09C084EE07C085E39B
:102F600005C089E203C08AE201C081E390E00895D0
:102F70009091460280911D02892B90911C02992309
:102F8000E1F0892B90910C01992341F09091A802D6
:102F900097FF04C09EE128E732E003C096E020E7F7
:102FA00032E0F90120E0915028F031913323D9F338
:102FB0002F5FF9CF211110921C02089520911A025F
:102FC0009091E10157E02917A9F030E0529FF001FC
:102FD000539FF00D1124EE51FE4F7181761306C000
:102FE0007081781303C07581741306C02F5F3F4F43
:102FF0002770E9CF80E0089581E008957E30B0F435
:103000006630A0F48430A0F494E5899FF001112487
:1030100086E0789FE00DF11D1124E60FF11DEE0F03
:10302000FF1FE157F84F85919491089580E001C00A
:1030300081E090E008951F93CF93DF930E941C17C7
:10304000EC01C11580E5D807E8F5C11590E4D90772
:1030500008F0A8C0C03ED10530F5CD3CD10508F040
:1030600094C0C83AD10578F4C53AD10508F083C0B8
:10307000C130D10509F47CC008F4F2C0C430D105D8
:1030800008F0F1C0EDC0C33CD10508F0E9C0C85A52
:10309000D0E0CC0FDD1FCE5ADE4F0990D881C02D75
:1030A000CE019464E1C0C11580E2D80708F0CBC01E
:1030B000C11591E0D90708F06BC0C83ED10508F4EE
:1030C000D2C0CEC0C03682E5D80728F5C03492E51C
:1030D000D90708F079C0C03282E5D80708F06CC083
:1030E000C11592E5D90708F481C04C2F4695469545
:1030F00080E2489FA0011124C37021E030E0C901A3
:1031000002C0880F991FCA95E2F7EA01C82BD92B94
:10311000CE019D68A9C0C03A82E5D807B8F48C2FCB
:103120008F71C03892E5D90708F07BC086958695E7
:1031300090E2899F90011124C37081E090E002C069
:10314000880F991FCA95E2F79A6868C0C03C82E56B
:10315000D80708F46DC0C03E92E5D90708F080C0DA
:10316000CF71DD27DC2FCC27CE01806F906A7CC029
:1031700081E090E079C0C55AD0E0C15BDE4F888124
:10318000C82FD0E0CE0190646FC0CE0190656CC0B6
:103190008D2F0E94CD16182FCE0199270E941C1743
:1031A0001F715CC0CE0199270E941C17CC27DF70CD
:1031B000D06A8C2B9D2B58C0CF71D0E0DC2FCC2750
:1031C000CE01816F906A50C08C2F8F718695869545
:1031D00090E2899F90011124C37081E090E002C0C9
:1031E000880F991FCA95E2F79C6818C08C2F8F71C1
:1031F0000E94CD1695E0D695C7959A95E1F7CF70C8
:10320000D0E0DC2FCC27282F30E084FF05C084E0FD
:10321000220F331F8A95E1F7D069CE01822B932BC1
:1032200023C090E0D82FCC27CE01846F906A1CC0B9
:103230008C2F8F710E94CD168F7190E0D82FCC27E4
:10324000CE01906211C08D2F8F710E94CD16182F64
:10325000CE0199270E941C171F719062912B04C008
:1032600080E090E001C0CE01DF91CF911F910895E1
:10327000809590914602892380934602089580911B
:103280000C01882351F18091A80287FF26C00E947B
:10329000B8178093770240E250E06EE172E086E773
:1032A00092E00E947A24892BD9F180E2E6E7F2E0ED
:1032B000AEE1B2E001900D928A95E1F7E091A402AF
:1032C000F091A502309761F186E080937602048048
:1032D000F581E02D86E792E022C00E94B817809326
:1032E0006E0248E050E06EE372E08EE692E00E94EB
:1032F0007A24892BA9F088E0EEE6F2E0AEE3B2E0B2
:1033000001900D928A95E1F7E091A402F091A50257
:10331000309731F00280F381E02D8EE692E009953E
:10332000089590911B028095892380931B02282F7A
:10333000277069F4981759F09091A90292FF07C07D
:103340008695869586950E94021D10921B0208950F
:103350009091A90292FB222720F9281779F080FB8F
:1033600092F99093A9026091A8027091A90284E059
:1033700090E00E944A2482E00E9491190895809171
:103380001A029091E101891719F08F5F8770FBCFC6
:103390000895CF93DF938091E00182958F7009F0BB
:1033A0004EC08091DF01882309F449C080911A0240
:1033B0004091E1015091DB016091DA01C091DC01A3
:1033C000D091DD0177E08417D1F190E0789FF00192
:1033D000799FF00D1124DF01AE51BE4F14962C9150
:1033E0001497222349F111962C911197251324C08B
:1033F0002C91261321C015962C91159721111CC0D4
:1034000012962D913C9113972C1B3D0B24363105C0
:1034100098F48091E0018F7080618093E001E85121
:10342000FE4F80818F70806180838AED91E00E94E1
:10343000F3060E94BF1903C001968770C4CFDF91C5
:10344000CF910895A4E1B0E0E8E2FAE10C94D7232B
:103450008C0186E0F801DE011F9601900D928A959D
:10346000E1F7F8018481E5809AED892E91E0992EAB
:103470009091DE01911120C0882309F463C1EE20F0
:1034800009F442C0C8010E941E1DF82E8823E1F1F4
:1034900087E0F801D40101900D928A95E1F78091BF
:1034A000DE01813031F48091DA019091DB010E94DC
:1034B000871C0E94C91948C1F801D080C180A28030
:1034C000B380F090DF012091DC013091DD01FF201D
:1034D00009F4E7C0A501421B530B4436510508F01F
:1034E0009DC0882309F430C18091E001282F207FFE
:1034F0009091DB01222361F09C1509F460C0C801A2
:103500000E941E1D811163C0C8010E94F3061AC1EA
:103510009C1113C09091DA019D110FC0E1100DC0F4
:103520008F7080618093E0018AED91E00E94F30644
:103530008091E001F801868303C1E1103AC040E0C8
:103540006C2D8D2D0E94DE1740E06C2D8D2D0E947C
:10355000DE17E82E8111F4C0DF86C88A8F8598892E
:103560000E94871C292F22952F70243020F49F70F1
:10357000223028F009C02A50223080F014C099234C
:1035800049F0811107C013C0992321F0F8019681F9
:10359000907F69F0805E883030F409C0803F38F059
:1035A000815F833020F0C8010E94F306EF2CFE2CCF
:1035B000CBC08091E00181608093E001C1C0909117
:1035C000DA019D119CCFE1109ACFF80198C0EE204E
:1035D00009F49ACF2091E001822F82958F7090E0BC
:1035E00002978CF08091DA019091DB0199878887AE
:1035F000BB86AA868091DE018C871D862E87CE0130
:1036000008960E94F30687E0F801AAEDB1E0019068
:103610000D928A95E1F70E94C91994C09091E0013A
:10362000292F207F51F48AED91E00E94F30687E074
:10363000F40111928A95E9F783C0882309F484C0C4
:103640008091DB018C110CC08091DA018D1108C0D2
:10365000E11006C0F8019683C8010E94F3066AC013
:10366000C8010E941E1D882309F44ECFEE2009F4E4
:103670004BCF2091E001822F82958F7090E00297CE
:1036800014F28091DA019091DB019A838983BC82E4
:10369000AB828091DE018D831E822F83CE01019645
:1036A000B0CFA21AB30AF4E6AF16B10408F042C0D4
:1036B000882309F447C0FE2CEE2009F425CF809121
:1036C000DB018C1129C08091DA018D1125C0909108
:1036D000E00190FD18C0892F82958F70282F30E06F
:1036E0002115310581F0F80196832F30310541F025
:1036F0008F5F982F9295907F86818F70892B86831C
:10370000C8010E94F30687E0F801AAEDB1E001903C
:103710000D928A95E1F718C0C8010E941E1D811103
:1037200072CF8091E00181608093E001C8010E9426
:10373000F3060AC087E0F40111928A95E9F704C004
:10374000F12C02C0FF24F3948F2D6496ECE00C94CE
:10375000F323A6E0B0E0EFEAFBE10C94DF230E9444
:10376000E81F8C01809147029091480208171907C1
:1037700081F019821A820E94E81F682F49815A81BC
:10378000792F80E090E00E94D605109348020093C4
:1037900047022696E4E00C94FB23EF92FF920F93EE
:1037A0001F93CF93DF9380910A0190910B01892B96
:1037B000D9F0809149028F5F80934902811114C032
:1037C0000E947A0C90E090930B0180930A01892B60
:1037D00059F42FEF83EC99E0215080409040E1F7BD
:1037E00000C000000E94761F0EE811E0C0E0D0E0AB
:1037F00087E0E82EED0E8D2F0E94A30B8E2D0E94E8
:10380000A30B8D2F0E94040C8F73F80190818917F0
:1038100021F08083FF24F39401C0F12C8E2D0E94AF
:10382000040C8F73F8019781891719F0878381E061
:1038300001C080E0F82ACF290E94EF0BDF5F0F5F05
:103840001F4FD730A9F6CC2359F081E080934C026A
:103850000E94E81F90934B0280934A02C0E022C06E
:1038600080914C028823F1F080914A0290914B02A2
:103870000E94D91F0F97B0F04EE050E06EE871E063
:1038800081EA91E00E947A24892B51F08EE0EEE8E3
:10389000F1E0A1EAB1E001900D928A95E1F7C1E073
:1038A00010924C028C2FCDB7DEB7E6E00C94F923D2
:1038B000CF92DF92FF920F931F93CF93DF936C0110
:1038C0000091C20180919C01082BC7E0D0E010E07C
:1038D000C8010C2E02C0959587950A94E2F780FDE9
:1038E00004C02197A8F7F12C09C0FC2EB6018C2F3B
:1038F0000E94FE170E941B18019799F38F2DDF91EC
:10390000CF911F910F91FF90DF90CF900895CF93AB
:10391000DF93EC010E94581CBE010E94FE170E941A
:103920001B18DF91CF910895292F9E3078F58630AE
:1039300068F590E036E0239F800D911D1124682FDB
:10394000677023E0969587952A95E1F7FC01EE0FC5
:10395000FF1FE80FF91FE35BFD4F40E050E080E000
:10396000219130E0062E02C0369527950A94E2F7A1
:1039700021703327042E01C0220F0A94EAF7822B0C
:103980004F5F5F4F4330510559F7089580E0089528
:10399000292F9E3088F5863078F590E036E0239F19
:1039A000800D911D1124282F277051E001C0550F63
:1039B0002A95EAF723E0969587952A95E1F7FC0189
:1039C000EE0FFF1FE80FF91FE35BFD4F20E030E033
:1039D00070E04081CB01022E02C0969587950A9433
:1039E000E2F78170819584278523842781932F5F57
:1039F0003F4F2330310569F708950E94A206809356
:103A0000C201089521E030E001C0220F8A95EAF753
:103A100020958091C20182230E94FD1C089521E01F
:103A200030E001C0220F8A95EAF78091C201822B13
:103A30000E94FD1C089580939C010895FC0124813F
:103A40002223D9F0808191810E94871C92959F70DA
:103A5000963079F010F4925001C09A50923068F488
:103A6000803F69F018F4883E40F409C0843F29F48F
:103A700006C0883E20F0813F11F080E0089581E08B
:103A800008951092460280910C01882341F08091A4
:103A9000A80287FF04C08EE1E8E7F2E003C086E0F9
:103AA000E0E7F2E0DF011D928A95E9F780E090E01F
:103AB0000E94A72080E090E00E94822010921D02C8
:103AC0000E943F19EDE9F2E085E0DF011D928A9541
:103AD000E9F71092960210929702109298020E94B3
:103AE000D9200895882321F00E9438190E943F1997
:103AF0000895882339F090914602892B80934602DD
:103B00000E943F19089590919E02662309F470C0A7
:103B100091110CC090919F02911108C09091A10247
:103B2000911104C09091A002992331F098E09093F4
:103B3000960291E0909397028D3C21F40E942221FD
:103B4000819504C08E3C29F40E94222180939F021B
:103B5000C3C08F3C21F40E942221819504C0803D86
:103B600029F40E94222180939E02B6C0893D19F457
:103B70000E94002105C08A3D31F40E9400218195F8
:103B80008093A002A9C08B3D21F40E940021819561
:103B900004C08C3D29F40E9400218093A1029CC0A6
:103BA0009FE2980F983078F421E030E0A90102C03C
:103BB000440F551F9A95E2F7CA0190919D02892BF7
:103BC00080939D0289C08D3D21F48091980281608F
:103BD0000CC08E3D21F480919802826006C08F3D1A
:103BE00009F07AC08091980284608093980274C032
:103BF0008D3C39F490919F0297FF33C010929F0241
:103C000057C08E3C29F490919F021916BCF329C02D
:103C10008F3C29F497FF25C010929E0249C0803D39
:103C200019F41916CCF31DC09091A002893D29F416
:103C30001916BCF41092A0023BC08A3D19F497FFFC
:103C400010C0F8CF8B3D39F49091A10297FF09C0C5
:103C50001092A1022DC08C3D21F49091A102191661
:103C6000BCF39FE2980F983080F421E030E0A90186
:103C700002C0440F551F9A95E2F7CA0180959091B2
:103C80009D02892380939D0213C08D3D21F4809174
:103C900098028E7F0BC08E3D21F4809198028D7F1B
:103CA00005C08F3D29F4809198028B7F8093980204
:103CB00080919E02811106C080919F02811102C0F5
:103CC000109296028091A002811106C08091A102FB
:103CD000811102C0109297020E94D9200895882372
:103CE00081F19CEF980F913A18F40E941D200DC0AD
:103CF00090E2980F983060F4877091E001C0990FBE
:103D00008A95EAF7892F0E9438190E943F19089571
:103D10009BE5980F933028F480E090E00E94A72064
:103D2000089598E5980F9B3128F480E090E00E9478
:103D30008220089593E3980F933118F460E00E9475
:103D4000831D0895CF93882309F46EC0C82F8CEF8C
:103D50008C0F813AA0F580910C018823E1F08091CD
:103D6000A80287FF18C0EC2FE695E695E695F0E0EF
:103D7000EA58FD4F8281282F30E04C2F477081E0B8
:103D800090E002C0880F991F4A95E2F7822393239F
:103D9000892B61F410C0E0E7F2E086E792E0219120
:103DA000C21721F08E179F07D1F705C08C2F0E94F4
:103DB0001D200E943F198C2F0E944B2010C080E2D2
:103DC0008C0F883078F4C77081E090E001C0880FD4
:103DD000CA95EAF790914602892B809346020E9489
:103DE0003F1922C0EBE5EC0FE33040F4F0E0E15B7B
:103DF000FE4F808190E00E94A72016C0E8E5EC0FFE
:103E0000EB3150F4F0E0EE0FFF1FEE5AFE4F8081D1
:103E100091810E94822008C083E38C0F833120F4BB
:103E200061E08C2F0E94831DCF9108951F93CF9343
:103E3000DF93182FEB010E94A21E209741F08FE91B
:103E40009FE00197F1F700C000002197F6CF812F86
:103E50000E946F1EDF91CF911F9108958091C5013F
:103E600008950F931F93CF93DF938B01EA019091F5
:103E7000D0019430A9F58F708093E9008FEF909175
:103E8000E800815095FD06C095ED9A95F1F7000088
:103E90008111F5CF8091E80085FF22C00E9498161D
:103EA000811115C0209789F08091E80085FD06C03A
:103EB0008091E8008E778093E800F0CFF80181913F
:103EC0008F018093F1002197EDCF90E001C0982FF2
:103ED0008091E8008E778093E80081E0911101C025
:103EE00080E0DF91CF911F910F9108959AE088E1D2
:103EF0000FB6F894A895809360000FBE9093600071
:103F0000FFCFF89481E08093E00080E28093D800B6
:103F1000E9ECF0E010828FE19EE40197F1F700C038
:103F200000001DBA109268001CBC10BE1FBA10928F
:103F30007A0010926E0010926F0010927100109231
:103F400072001082ECEBF0E0108214B817B81AB8C7
:103F50001DB810BA108215B818B81BB81EB811BA1F
:103F60000C94003F089578941F920F920FB60F9211
:103F700011248F939F93AF93BF938091AB02909145
:103F8000AC02A091AD02B091AE020196A11DB11D8F
:103F90008093AB029093AC02A093AD02B093AE02BB
:103FA000BF91AF919F918F910F900FBE0F901F9077
:103FB00018959C014FB7F8948091AB029091AC0298
:103FC000A091AD02B091AE024FBF821B930B08953A
:103FD0002FB7F8948091AB029091AC02A091AD0202
:103FE000B091AE022FBF08951F920F920FB60F929D
:103FF00011248F939F93AF93BF938091AA02811155
:1040000013C08091AB029091AC02A091AD02B0912F
:10401000AE024196A11DB11D8093AB029093AC02FC
:10402000A093AD02B093AE02BF91AF919F918F91DB
:104030000F900FBE0F901F90189590910C0199232F
:1040400021F09091A80297FD03C0EEE6F2E01DC0BA
:10405000E82FE695E695E695EE31E0F4F0E0EA58D3
:10406000FD4F877021E030E0A90102C0440F551FC9
:104070008A95E2F7CA018095928189238283089507
:10408000319652E0E437F50729F092818913F8CF91
:104090001282F6CF089590910C019923D1F090915E
:1040A000A80297FF16C0E82FE695E695E695EE3153
:1040B00040F5F0E0EA58FD4F877021E030E0A901BB
:1040C00002C0440F551F8A95E2F7CA019281892BDD
:1040D00016C0A0E7B2E0EFEF90E02D91821789F0D3
:1040E000EF3F19F4211101C0E92F9F5F9630A9F726
:1040F000EF3F39F00E2E000CFF0BE259FD4F82838B
:1041000008950895A3E0B0E0E8E8F0E20C94E1231C
:104110002091A6023091A70228173907A1F09093A9
:10412000A7028093A602E091A402F091A502309725
:1041300051F024E029839B838A830084F185E02D5C
:10414000CE01019609952396E2E00C94FD23A3E0AD
:10415000B0E0EDEAF0E20C94E1232091A20230916C
:10416000A30228173907A1F09093A3028093A2021B
:10417000E091A402F091A502309751F023E0298349
:104180009B838A830084F185E02DCE0101960995F9
:104190002396E2E00C94FD23E091A402F091A502A5
:1041A000309729F00190F081E02D0995089580E085
:1041B00008950E94E81F20919E02211104C02091C1
:1041C0009F02222321F090939C0280939B022091D6
:1041D000A002211104C02091A102222321F090937A
:1041E0009A0280939902E091A402F091A50230977F
:1041F00031F00680F781E02D8DE992E00995089570
:104200008091980280FD16C081FD16C082FD18C005
:1042100080919702882391F08D3290F429E0829F5B
:10422000C00111246DE270E00E946024862F672B8C
:1042300029F007C082E0089584E0089581E00895A0
:1042400089E008958091980280FD14C081FD14C01A
:1042500082FD16C080919602882381F08D3280F411
:1042600028E4829FC00111246DE270E00E94602466
:10427000862F089582E1089584E2089588E00895E4
:1042800088E40895282F35EB2303C001112497FFFC
:1042900003C08058910902C080589F4F892F08950C
:1042A000A0E0B0E0E6E5F1E20C94D923EC018AE06D
:1042B000A82EFE012491222309F4A3C0213009F085
:1042C00044C031968491813059F42296FE01849144
:1042D000893319F060E070E08EC060E570E08BC05B
:1042E000823031F42296FE0184910E94A21E87C082
:1042F000833031F42296FE0184910E946F1E7FC0AC
:10430000843009F07BC02296FE01249180E090E089
:1043100030E0205331092A30310560F4A89EA00115
:10432000A99E500D1124C901840F951F2196FE01ED
:104330002491EECF009709F462C0EFE9FFE03197D6
:10434000F1F700C000000197F5CFE22FF0E0E15A4D
:10435000F54FB490822F86958695869590E0FC0166
:10436000E15BF54FE4902770F12C022E02C0F5942A
:10437000E7940A94E2F7F1E0EF22FF24FC01E15C0C
:10438000F54FC490D12C022E02C0D594C7940A9444
:10439000E2F731E0C322DD24FC01E15DF54F049139
:1043A00010E002C0159507952A95E2F701701127D4
:1043B000E114F10419F081EE0E94A21EC114D1048F
:1043C00019F086EE0E94A21E60E070E08B2D0E9424
:1043D000161FC114D10419F086EE0E946F1EE1145D
:1043E000F10419F081EE0E946F1E0115110539F0DC
:1043F00060E070E08CE20E94161F01C0EF01219680
:1044000058CFCDB7DEB7EAE00C94F523EF92FF92D8
:104410000F931F93CF93DF93182FEB011092BC00E3
:1044200084EA8093BC000E94E81F7C018091BC005C
:1044300087FD0DC0CF3F8FEFD807C1F3C7010E94A2
:10444000D91FC817D90790F78EEF9FEF2DC0809125
:10445000B900887F883041F08091B900887F803131
:1044600019F08FEF9FEF20C01093BB0084E880937A
:10447000BC000E94E81F8C018091BC0087FD0BC02E
:10448000CF3F8FEFD807C1F3C8010E94D91FC817CB
:10449000D90790F7D9CF8091B900887F883111F082
:1044A0008034F9F680E090E0CDB7DEB7E6E00C941A
:1044B000F9231092B9008CE08093B80008950F930F
:1044C0001F93CF93DF93EB018093BB0084E880932D
:1044D000BC000E94E81F8C018091BC0087FD0DC0CC
:1044E000CF3F8FEFD807C1F3C8010E94D91FC8176B
:1044F000D90790F78EEF9FEF0CC02091B900287F6D
:1045000081E090E0283211F480E090E0919581956F
:104510009109DF91CF911F910F9108950F931F93F0
:10452000CF93DF93EC0184EC8093BC000E94E81FE2
:104530008C018091BC0087FD0DC0CF3F8FEFD80765
:10454000C1F3C8010E94D91FC817D90790F78EEF91
:104550009FEF03C08091BB0090E0DF91CF911F914E
:104560000F9108950F931F93CF93DF93EC0184E88D
:104570008093BC000E94E81F8C018091BC0087FDE5
:104580000DC0CF3F8FEFD807C1F3C8010E94D91FDC
:10459000C817D90790F78EEF9FEF03C08091BB003B
:1045A00090E0DF91CF911F910F910895A0E0B0E0CE
:1045B000ECEDF2E20C94D523682E762E5A016901B7
:1045C0000E94E81F4C010431110558F00F3F8FEF96
:1045D000180751F0C80164E170E00E94BD23EB01AF
:1045E00005C0C1E0D0E002C0C5E0D0E0BE01862D2C
:1045F0000E9406227C0197FF0BC00F3F8FEF180728
:10460000A9F3C4010E94D91F0817190778F713C02E
:10461000B801872D0E945F227C01E501CA0CDB1CDA
:10462000CC15DD0541F0F7FC06C0B80189910E9468
:104630005F227C01F5CF84E98093BC00C701CDB730
:10464000DEB7EEE00C94F123A0E0B0E0EAE2F3E2A2
:104650000C94D523782E662E7A01E9010E94E81F7A
:104660005C010431110558F00F3F8FEF180759F026
:10467000C80164E170E00E94BD236B0107C0CC2437
:10468000C394D12C03C025E0C22ED12CB601872DB6
:104690000E9406224C0197FF0BC00F3FEFEF1E0751
:1046A000A9F3C5010E94D91F0817190778F72BC075
:1046B000B801862D0E945F224C0197FD24C0F72D82
:1046C000F1607F2E0E94E81F5C010431110528F182
:1046D0000F3F8FEF180729F1C80164E170E00E94D5
:1046E000BD236B01B601872D0E9406224C0197FD68
:1046F0001CC067012197C6018E199F098C179D0761
:1047000058F597FE1DC084E98093BC00C4011816BB
:10471000190674F580E090E02BC0CC24C394D12C12
:10472000E1CF85E0C82ED12CDDCF0F3FEFEF1E0784
:10473000C9F2C5010E94D91F0817190798F6D9CFE9
:10474000C8010E948E224C0197FD02C0F6018083B1
:10475000FFEFCF1ADF0ACFCF97FCD5CFC8010E9459
:10476000B2224C0197FDCFCFCE0DDF1D8883CBCF7A
:10477000CDB7DEB7EEE00C94F123AA1BBB1B51E1D1
:1047800007C0AA1FBB1FA617B70710F0A61BB70BC1
:10479000881F991F5A95A9F780959095BC01CD0166
:1047A00008952F923F924F925F926F927F928F92D5
:1047B0009F92AF92BF92CF92DF92EF92FF920F93B0
:1047C0001F93CF93DF93CDB7DEB7CA1BDB0B0FB6BA
:1047D000F894DEBF0FBECDBF09942A883988488877
:1047E0005F846E847D848C849B84AA84B984C8840D
:1047F000DF80EE80FD800C811B81AA81B981CE0F04
:10480000D11D0FB6F894DEBF0FBECDBFED010895E8
:10481000F999FECF92BD81BDF89A992780B5089588
:10482000A6E1B0E044E050E00C945224A8E1B0E0EE
:1048300042E050E00C945224DC01A40FB51F41501B
:10484000504048F0CB01840F951F2E910E942D24DB
:1048500041505040D0F70895262FF999FECF92BDD0
:1048600081BDF89A019700B4021639F01FBA20BD35
:104870000FB6F894FA9AF99A0FBE08950396272F67
:104880000E942D240E942C24252F0E942D24242FA9
:104890000C942D240196272F0E942D240C942C2457
:1048A000DC01CB01FC01F999FECF06C0F2BDE1BDF0
:1048B000F89A319600B40D9241505040B8F70895DF
:1048C00097FB072E16F4009407D077FD09D00E94BD
:1048D000BD2307FC05D03EF4909581959F4F089528
:1048E000709561957F4F0895EE0FFF1F0590F4912D
:1048F000E02D0994FB01DC0104C08D910190801929
:1049000021F441505040C8F7881B990B0895F89442
:02491000FFCFD7
:104912002E1F13120C120512FE11200001F0F1F4E9
:10492200F5F6F700000000000000303132339293B8
:1049320066010101010101010000000000000033D5
:10494200777937722F564F5A7737004422476D6571
:10495200064306FC058F05BB06D406F4060D078147
:104962008283E200E900EA00B500B600B700CD009C
:104972008301CC008A0192019401210223022402C4
:104982002502260227022A02B300B4006F0070003B
:084992009F01CB019F02A0026E
:00000001FF
