:100000000C9437020C9454020C9454020C94540235
:100010000C9454020C9454020C9454020C94540208
:100020000C9454020C9454020C94C70C0C94090CBC
:100030000C94F70E0C9454020C9454020C94540239
:100040000C9454020C9454020C9454020C945402D8
:100050000C9454020C94B60E0C9454020C9454025A
:100060000C9454020C9454020C9454020C945402B8
:100070000C9454020C9454020C9454020C945402A8
:100080000C9454020C9454020C9454020C94540298
:100090000C9454020C9454020C9454020C94540288
:1000A0000C9454020C9454020C94540237033C03F5
:1000B00046033A033F0344034203F404F4042705D0
:1000C00027059205AF06AF06AF06B0052406350634
:1000D0003506160819081C081F08220825082808D4
:1000E000210A480AF10B480AF10B940AB70AF10BEE
:1000F000AC0BBC0B05010980A101850319012AB7CE
:1001000000150126B700950175108100C0050C0986
:1001100001A101850419012AA002150126A002955A
:100120000175108100C005010906A10185060507BA
:1001300019E029E7150025019508750181020507D9
:10014000190029EF1500250195F0750181020508B8
:100150001901290595057501910295017503910114
:10016000C00660FF0961A1010962150026FF009524
:1001700020750881020963150026FF009520750887
:100180009102C005010906A101050719E029E7153B
:100190000025019508750181029501750881010509
:1001A00007190029FF150026FF0095067508810034
:1001B0000508190129059505750191029501750339
:1001C0009101C009025B00030100A0FA09040000CC
:1001D000010301010009211101000122400007056E
:1001E0008103080001090401000203000000092145
:1001F00011010001222200070582032000010705EA
:10020000030320000109040200010300000009218A
:1002100011010001226D0007058403200001120175
:100220000002000000089732744901000102000139
:1002300016034500720067006F0044006F007800ED
:10024000200045005A00000028035A0053004100D6
:10025000200054006500630068006E006F006C00B1
:100260006F006700790020004C006100620073009D
:100270000000040309042E002B002900E1000153B3
:1002800000001E00140004001D0035004D001F007A
:100290001A0016001B0039004C002000080007005F
:1002A000060050002C0021001500090019004F0025
:1002B0004A00220017000A0005000000E0002F009D
:1002C0002F02000026020000E20030003002000091
:1002D00027020000E30023001C000B0011000000B7
:1002E000E400240018000D00100051004B00250010
:1002F0000C000E00360052002800260012000F00ED
:10030000370000072A002700130033003800000FD1
:100310004E002D0031003400E500025300003A0089
:10032000010001000100010000003B00010001008C
:100330000100010001003C00010001000100AC00CF
:1003400001003D00010001000100AE0001003E007F
:10035000010001000100AB0001003F0001000100AD
:100360000100000001000100010000000100000088
:100370000100010001000000010000000100400038
:100380000100010001000000010041000100010026
:100390000100AA0001004200010001000100A900C3
:1003A00001004300010001000100BE000100440003
:1003B000010001000100BD00010045000100010035
:1003C0000100010000000100010001000100010026
:1003D0000000010001000100010001000100010016
:1003E0000100010001000100010001000100010005
:1003F00001000100010001000100010001000100F5
:1004000001000100010001000100000001000100E5
:1004100001000000010000000100010001000000D7
:1004200001000000010001000100010001000000C6
:10043000010053005F005C005900010001005400FE
:1004400060005D005A0062000100550061005E001E
:100450005B0063000100560057002E0058002A0080
:100460000100010001000100010001000000112451
:100470001FBECFEFDAE0DEBFCDBF11E0A0E0B1E0FC
:10048000E2E7FBE302C005900D92A636B107D9F76B
:1004900022E0A6E6B1E001C01D92A439B207E1F75F
:1004A0000E94810F0C94B71D0C94000010926B01F8
:1004B0000E9448192FEF84E39CE021508040904037
:1004C000E1F700C000009AE088E10FB6F894A89523
:1004D000809360000FBE90936000FFCFA7E1B0E073
:1004E000E4E7F2E00C94301B4B8B5C8B6D8B7E8BC6
:1004F0008F8B61111092640286E09E01235F3F4F53
:10050000D901E82F1D92EA95E9F795E0FE0173966F
:10051000D90101900D929A95E1F79C894E895F89E6
:100520007B897D879E876F87598B488BF901DE0118
:10053000179601900D928A95E1F7CE0107960E94D9
:10054000101781113EC086E0FE013796DE0111963C
:1005500001900D928A95E1F7FF81E8856A857B8598
:100560006115710531F0EF3F31F481E0FF3F19F47F
:1005700003C081E001C080E080FD23C02091110212
:1005800030E0C9010196877099274091420250E0FE
:100590008417950779F1F983EA837D836C8396E06C
:1005A000929FD001939FB00D1124AE5EBD4FFE010E
:1005B000319601900D929A95E1F7809311020E9475
:1005C000121516E08091420290911102891709F1EB
:1005D000189FC00111248E5E9D4F0E941017882322
:1005E000C1F08091420290E0019687709927809334
:1005F0004202E8CF10926B010E944819109211023A
:1006000010924202EBE0F2E086E0DF011D928A9553
:10061000E9F76796E3E00C944C1B982F92959F7036
:1006200019F0892F24E001C020E0982F9695969527
:1006300011F02E5F892F982F969509F02F5F822F4A
:100640000895CF93C82F0E940D0356985E98259861
:100650002D9826982E9827982F9890E0FC01319796
:10066000E730F105A8F4EA5AFF4F0C94831C259A51
:100670002D9A0EC0259A2D9A269A2E9A09C0259A4F
:100680002D9A04C0259A2D9A269A2E9A279A2F9A47
:100690008C2FCF910895A5E2B0E0E1E5F3E00C9452
:1006A000281BFC018081918123813481232B31F02F
:1006B0009F3F31F491E08F3F19F403C091E001C0F6
:1006C00090E090FD8AC37F0185E0DE019196019064
:1006D0000D928A95E1F7D70112962C9189A19AA1E2
:1006E000222349F00E94B416182F682F89A19AA1DD
:1006F0000E94CB1803C00E949718182F69A17AA1F5
:10070000812F0E945F128C0190919901F7018281E3
:10071000992309F44DC0811151C3E0916901E3307F
:10072000A0F481E08E0F80936901F0E0EE0FFF1FCF
:10073000E153FE4FD7018D919C919183808382E09C
:100740008983CE0101960E94FB0DBFEFE3EDF0E33C
:10075000B150E040F040E1F700C000008091690135
:10076000833009F02BC310926901E5EDF1E0AFECA5
:10077000B1E08BED91E0318111962C9111973213FC
:100780002EC030812C9132132AC0329612968E17C9
:100790009F0789F784E0898381E080939A018EEF37
:1007A0008A8310929901CE0101960E94FB0D06C327
:1007B00090919A019923C1F0811102C087E001C094
:1007C00086E08983D7018C918A8311968C918B83E3
:1007D0008EEF8C83CE0101960E94FB0D05C083E055
:1007E000898310929A01DBCF0F3ABDE51B07D1F543
:1007F000F70182818823B1F190919E0181E0890FF8
:100800008770987F853020F4892B80939E0102C0E9
:1008100090939E0180919E018770FFEF8F9FC00192
:10082000112495958795959587959927909389009B
:100830008093880090938B0080938A0090938D0022
:1008400080938C0040919E0150919F016091A00186
:100850007091A1018FE090E00E94FA1B8091B0019D
:100860000E942103F7018281882309F46BC00C35B3
:100870002DE5120709F461C058F401159CE519072C
:1008800099F00F3D1C4509F05DC00E9401144BC05A
:100890000E35BDE51B0709F448C008F450C0093AFD
:1008A0001D4509F440C04EC010926B010E944819CA
:1008B0002FEF84E39CE0215080409040E1F700C09E
:1008C0000000F89481E08093E00080E28093D800FB
:1008D0001092C900AFE1BEE41197F1F700C000002B
:1008E0001DBA109268001CBC10BE1FBA10927A008C
:1008F00010926E0010926F001092710010927200B0
:100900001092C9001092BC0014B817B81AB81DB8DC
:1009100010BA1092BC0015B818B81BB81EB811BA9E
:100920000C94003F4BC20E9456028091E70182FB6B
:10093000882780F991E0892703C081E001C080E029
:100940000E94F614D70112968C9112970D911C916A
:10095000882349F0C8010E94B416D82E682FC80118
:100960000E94CB1804C0C8010E949718D82EB80165
:100970008D2D0E945F120E947812B82E192F982E8A
:10098000D70112960C9112971596AC90A2949FE005
:10099000A922809143028770B9F00023A9F0812F2A
:1009A000807F803421F080E28B0D883068F0809168
:1009B000E70182FF09C082E00E94D91480914302BE
:1009C0008770DD24D3948111D12CC12EC2948FE085
:1009D000C8228C2D90E08C30910508F0C0C1FC013C
:1009E000E35AFF4F0C94831C812F807F1F70882354
:1009F00011F01295107F0023B9F0112309F49DC165
:100A000080E28B0D883010F0911006C080916B0150
:100A1000182B10936B0105C080916402182B109362
:100A200064020E94841489C18B2D0E946D191123C8
:100A300009F495C180E28B0D883080F1992071F125
:100A40001095809164021823109364022AC0812FAC
:100A5000807F1F70803211F01295107F8B2D9920AE
:100A600021F0B1E09B16D9F147C08091E70182FDEA
:100A70001BC0002369F0112339F080916B01182B02
:100A800010936B010E94841480E00E94991967C141
:100A900080E00E946D19112309F461C1812F0E9429
:100AA0007D140E9484145BC1002381F08091650253
:100AB000AA2051F0E1E0AE1207C0182B181709F474
:100AC0004EC1109365024BC1812B10C0AA2021F0AA
:100AD000F1E0AF1609F443C10E9477141FC0002350
:100AE00041F021E02A1508F43AC1812F0E946319D0
:100AF00036C1A11034C112C0002319F0AA20A9F3F5
:100B00001CC1AA2059F0893309F026C18FEF97EE56
:100B1000A3E081509040A040E1F71CC1812F0E94CA
:100B20005C191DC1812F86958695837019F08130DF
:100B300061F015C1002321F08B2D912F937002C01D
:100B400080E090E00E945E0F10C1002321F08B2D09
:100B5000912F937002C080E090E00E94480F05C181
:100B6000812F8370A9F50111FEC04B2D429546954A
:100B70004770440F440F8B2D8F7090E09C01042E22
:100B800001C0220F0A94EAF7B4FE08C08FE090E09B
:100B900001C0880F4A95EAF7809501C080E016955C
:100BA00016951370123069F088F490916602113036
:100BB00019F0822B892302C0922B892B0E944319A2
:100BC000D2C0822B909166028927F8CF822BF6CF74
:100BD000002319F0812F817001C08695882309F4C4
:100BE000C2C04B2D429546954770440F440F8B2D44
:100BF0008F7090E09C01042E01C0220F0A94EAF746
:100C0000B4FE08C08FE090E001C0880F4A95EAF773
:100C1000809501C080E0169516951370123059F03A
:100C200078F49091B001113019F0822B892309C01A
:100C3000922B892B06C0822B9091B001892701C08D
:100C4000822B0E9400198FC01F70002339F0812F62
:100C50000E9437198B2D0E94631985C08B2D0E942D
:100C60005C19812F0E942A197EC08B2DB2EF9B1632
:100C700069F1B91538F0E0EF9E1659F0F1EF9F16C3
:100C800001F157C023EF921641F194EF9916A9F0A4
:100C900050C0002369F0A11062C01F7181E090E094
:100CA00001C0880F1A95EAF79091B00189271FC0FB
:100CB000A1E0AA1508F453C0F0CF8091E70182FDAE
:100CC00019C0002329F0812F8F7126C00023D9F38A
:100CD000812F8F710E942A1942C0002339F01F71A1
:100CE00081E001C0880F1A95EAF701C080E00E94F8
:100CF000001935C0002399F01F71812F0E94371908
:100D00008091E70182FF07C0B8E01B9FC00111245A
:100D1000836080934302812F0E94371920C081E0B5
:100D20000E94D914E1E0EA15D0F482E00E94D914BF
:100D300016C0002321F0AA2031F28B2DA6CEAA20C6
:100D400039F2893349F4FFEF27EE83E0F150204078
:100D50008040E1F700C000008B2D0E946D1988EFE4
:100D60008C0D843010F40E94740FDD20B1F080915E
:100D7000430280FD12C0D70112961C92859585957D
:100D800085950E943719C7010E944B038091430249
:100D90008595859585950E942A1985E0F701DE01E4
:100DA000119601900D928A95E1F709811A81C80187
:100DB0000E949718B8010E945F120FC080914302F1
:100DC000877059F0F7018281882339F08091E7011B
:100DD00082FF03C082E00E94D914A596EBE00C9438
:100DE000441B80E290E0909318018093170180915A
:100DF000680181110EC00E94391A81E08093680158
:100E00002FEF83ED90E3215080409040E1F700C048
:100E1000000064E670E080E40E943F1A909318019D
:100E200080931701892B09F04EC064E670E080E0E2
:100E30000E94B41A9093180180931701892B09F02E
:100E400042C064E670E080E00E94B41A90931801FA
:100E500080931701892BB9F564E670E08FE30E9457
:100E6000B41A9093180180931701892B61F50E94A1
:100E7000091B64E670E080E40E943F1A9093180119
:100E800080931701892BF9F464E670E08CE00E94EE
:100E9000B41A9093180180931701892BA1F464E68A
:100EA00070E080E00E94B41A9093180180931701BB
:100EB000892B49F464E670E08FE30E94B41A9093A2
:100EC0001801809317010E94091B80911701089552
:100ED000CF93DF9356985E9825982D9826982E9854
:100EE00027982F98C8E8D0E08FEF90E09983888307
:100EF000AAE8B0E011969C938E93ECE8F0E0918321
:100F00008083259A2D9A2FEF80E792E02150804030
:100F10009040E1F700C00000269A2E9A2FEF80E75C
:100F200092E0215080409040E1F700C00000279AF5
:100F30002F9A2FEF80E792E0215080409040E1F718
:100F400000C0000025982D982FEF80E792E02150F7
:100F500080409040E1F700C0000026982E982FEFC7
:100F600080E792E0215080409040E1F700C000000F
:100F700027982F9880919E0187702FEF829FC00144
:100F800011249595879595958795992799838883B9
:100F900011969C938E939183808356985E982598A2
:100FA0002D9826982E9827982F98DF91CF91089505
:100FB000CF93E82F873080F5809117019091180129
:100FC000892B09F047C0CE2F64E670E080E40E94D0
:100FD0003F1A9093180180931701892BD1F464E68E
:100FE00070E082E10E94B41A909318018093170177
:100FF000892B79F481E090E001C0880FCA95EAF767
:1010000064E670E080950E94B41A90931801809372
:1010100017010E94091B1EC090E0FC013797E730C2
:10102000F105C0F4E759FF4F0C94831C209A2898CF
:1010300011C0219A29980EC0229A2A980BC0239A8F
:101040002B9808C0529A5A9805C0539A5B9802C0D0
:101050003E9A4698CF9108952098289821982998EB
:1010600022982A9823982B9852985A9853985B98CC
:101070003E9846980895CF93873040F580911701A8
:1010800090911801892B59F564E670E081E40E9483
:101090003F1A9093180180931701892B11F0C0E03B
:1010A00011C084E690E00E94E41A97FF05C0909377
:1010B000180180931701F3CFC82FC0951092180123
:1010C000109217010E94091B8C2F0AC09FB18FB18B
:1010D000807F869586959370892B809501C080E0EE
:1010E000CF9108958098889A8198899A84988C9A4B
:1010F00085988D9A86988E9A87988F9A0895809170
:10110000910187FF11C08091E80082FD05C08091A8
:101110009B018111F8CF11C08091E8008B770BC043
:1011200080919B01882349F08091E80080FFF8CFEF
:101130008091E8008E778093E8000895982F97308B
:1011400068F59093E900981739F07091EC002091C0
:10115000ED005091F00003C0242F762F50E021FDC8
:1011600002C09F5FECCF3091EB003E7F3093EB00ED
:101170003091ED003D7F3093ED003091EB00316018
:101180003093EB007093EC002093ED005093F0004F
:101190002091EE0027FDE5CF80E008958F708093C9
:1011A000E90081E008952091970130919801261778
:1011B000370748F06115710539F42091E8002E7762
:1011C0002093E80001C0B901FC0120E06115710520
:1011D00079F180919B018823F1F18530F1F18091C3
:1011E000E80083FD3CC08091E80082FD2EC0809124
:1011F000E80080FFEBCF2091F3008091F20090E0B7
:10120000922B6115710551F08830910538F42191C8
:101210002093F100615071090196F3CF21E0089706
:1012200009F020E08091E8008E778093E800CECF2F
:101230002111CFCF0AC080919B01882361F08530B6
:1012400061F08091E80083FD0AC08091E80082FF90
:10125000F2CF80E0089582E0089583E0089581E070
:1012600008950895BC0184E00E948C0E0895BC018D
:1012700083E00E948C0E0895AAE2B0E0E2E4F9E077
:101280000C94301BE1E9F1E089E991E02091F10053
:1012900021938E179F07D1F780919201833009F433
:1012A00063C030F4813071F0823009F49FC0B6C061
:1012B0008A3009F48BC08B3009F46EC0893009F094
:1012C000ADC020C080919101813A09F0A7C0809102
:1012D000E800877F8093E8008091950190919601C6
:1012E000892B21F460E28EE691E003C060E080E0AB
:1012F00090E070E00E94D3088091E8008B778093A3
:10130000E8008CC080919101813209F087C0809102
:10131000950190919601009719F0029709F07EC00F
:101320008091E800877F8093E8008091E80082FD4B
:1013300005C080919B018111F8CF70C02091F3000E
:101340008091F20090E0922B029731F48091F100AD
:10135000813011F0863021F48091F10080936D018D
:101360008091E8008B7756C080919101813A09F015
:1013700055C08091950190919601892B09F04EC03E
:101380008091E800877F8093E8008091E80080FFEB
:10139000FCCF80910A0139C0809191018132F1F531
:1013A0008091950190919601892BC1F58091E8007B
:1013B000877F8093E8000E947F088091930180934B
:1013C0000A0110926B010E94481928C08091910176
:1013D000813221F58091E800877F8093E8000E94A8
:1013E0007F088091940180936C0118C080919101D5
:1013F000813AA1F48091E800877F8093E800809192
:10140000E80080FFFCCF80916C018093F100809117
:10141000E8008E778093E8000E947F088091E800C2
:1014200083FFDFC18091910190919201492F50E09B
:101430004A30510508F0D5C1FA01E059FF4F0C942C
:10144000831C803821F0823809F0CBC108C080911C
:101450008E0190918F01992389F082600FC0809155
:1014600095018F70873008F0BCC18093E9008091AE
:10147000EB0085FB882780F91092E9009091E80045
:10148000977F9093E8008093F1001092F10070C173
:10149000282F2D7F09F0A5C1882319F0823061F033
:1014A000A0C180919301813009F09BC1933009F074
:1014B00080E080938F012EC08091930181112AC01A
:1014C000809195018F702FEF280F263008F089C189
:1014D0008093E9002091EB0020FF1CC0933021F4A1
:1014E0008091EB00806214C09091EB00906190932A
:1014F000EB0021E030E0A90102C0440F551F8A959E
:10150000E2F74093EA001092EA008091EB008860D5
:101510008093EB001092E9008091E800877F809330
:10152000E8000E947F085DC181115BC110919301A9
:101530001F778091E3008078812B8093E300809176
:10154000E800877F8093E8000E947F088091E80090
:1015500080FFFCCF8091E30080688093E30011114D
:1015600002C082E001C083E080939B013AC18058B1
:10157000823008F036C120919301309194012C3DC6
:1015800053E0350779F583E08A838AE289834FB790
:10159000F894DE01139620E03EE051E2E32FF0E004
:1015A00050935700E49120FF03C0E295EF703F5F36
:1015B000EF708E2F90E0EA3010F0C79601C0C09611
:1015C0008D939D932F5F243149F74FBF8091E800A1
:1015D000877F8093E8006AE270E0CE0101960E9466
:1015E000D308B4C08091950190919601432F55275F
:1015F00043305105A9F068F44130510509F400C1A8
:101600004230510509F0EDC08BE590E0E3ECF1E0EC
:101610004BC04132510529F14232510589F1E1C0F7
:10162000C901992781309105A1F058F0029709F07E
:10163000D8C0E0E3F2E0E4918E2F90E0E0E3F2E046
:1016400030C0E2E7F2E0E4918E2F90E0E2E7F2E0D2
:1016500028C0E8E4F2E0E4918E2F90E0E8E4F2E0C4
:1016600020C08330910508F0BCC0880F991FFC0191
:10167000EE5DFE4F0190F081E02D89E090E014C016
:101680008330910508F0ADC0FC01EE0FFF1FE45E52
:10169000FE4F0190F081E02DDC01A75EBE4F8C91E2
:1016A00090E0009709F49DC02091E800277F2093E7
:1016B000E80020919701309198012817390708F424
:1016C000C90140E0009789F120919B01222309F490
:1016D0003DC02530D9F12091E80023FD37C020918D
:1016E000E80022FD2FC02091E80020FFEBCF4091C1
:1016F000F3002091F20030E0342B009759F02830AD
:10170000310540F444914093F100319601972F5FE9
:101710003F4FF3CF41E02830310509F040E0209100
:10172000E8002E772093E800CDCF4111CDCF0AC03D
:1017300080919B01882351F0853041F08091E80031
:1017400083FD04C08091E80082FFF2CF8091E80021
:101750008B778093E80045C0803809F042C08091C3
:10176000E800877F8093E800809190018093F100EA
:101770008091E8008E77D3CE811133C080919301A0
:10178000909194019927029764F58091E800877FF2
:101790008093E80010919301109390010E947F08BC
:1017A000111106C08091E30087FD02C081E001C0F5
:1017B00084E080939B0142E061EC81E00E949E08FE
:1017C00042E261EC84E00E949E0842E261EC82E029
:1017D0000E949E0842E260EC83E00E949E08809195
:1017E0009B018091E80083FF10C08091E800877F13
:1017F0008093E8008091EB0080628093EB0005C04D
:1018000082E190E0EEE1F2E04FCFAA96E3E00C94A3
:101810004C1B1F920F920FB60F9211242F933F93E0
:101820004F935F936F937F938F939F93AF93BF93E8
:10183000CF93DF93EF93FF93C091E900CF70809136
:10184000EC00D82FD17080FDD0E81092E900809193
:10185000F000877F8093F00078940E943C091092FA
:10186000E9008091F00088608093F000CD2BCF706C
:10187000C093E900FF91EF91DF91CF91BF91AF91BC
:101880009F918F917F916F915F914F913F912F9198
:101890000F900FBE0F901F901895E8EDF0E080813B
:1018A0008E7F80831092E2001092DA001092E100A5
:1018B000A0EEB0E08C9181608C9380818F778083E3
:1018C00019BCA7EDB0E08C918E7F8C9380818F7EC8
:1018D000808310926A010895A0E0B0E0E2E7FCE0A6
:1018E0000C942B1BC8EDD0E088818F7E8883E7EDB8
:1018F000F0E080818160808384E082BF81E080931A
:101900006A0188818E7F888302EE10E0F8011082E0
:101910001092DA0081EEC82ED12CF6011082888157
:101920008F77888388818068888388818F7D88838A
:1019300019BC10929B011092900110928F0110928D
:101940008E0190EEE92EF12CF70180818B7F808350
:1019500088818160888342E060E080E00E949E0888
:10196000F60180818E7F8083F80180818160808391
:10197000808188608083F70180818E7F8083888169
:1019800080618883CDB7DEB7E8E00C94471B1F92D7
:101990000F920FB60F9211242F933F934F935F93A3
:1019A0006F937F938F939F93AF93BF93EF93FF9327
:1019B0008091E10082FF09C08091E20082FF05C0B2
:1019C0008091E1008B7F8093E1008091DA0080FFBD
:1019D0002AC08091D80080FF26C08091DA008E7FD7
:1019E0008093DA008091D90080FF18C080E189BD22
:1019F00082E189BD09B400FEFDCF81E080939B01A7
:101A000080916A0181110FC00E944D0C0E946C0CE4
:101A10008091E20084608093E20005C019BC1092BE
:101A20009B0110926A018091E10080FF17C08091B4
:101A3000E20080FF13C08091E2008E7F8093E2007D
:101A40008091E20080618093E2008091D800806202
:101A50008093D80019BC85E080939B018091E100C0
:101A600084FF30C08091E20084FF2CC080E189BDFA
:101A700082E189BD09B400FEFDCF8091D8008F7D41
:101A80008093D8008091E1008F7E8093E100809167
:101A9000E2008F7E8093E2008091E200816080937B
:101AA000E20080919001882311F084E007C08091CA
:101AB000E30087FD02C081E001C083E080939B01C9
:101AC00080919B018091E10083FF27C08091E2001B
:101AD00083FF23C08091E100877F8093E10082E053
:101AE00080939B01109290018091E1008E7F809302
:101AF000E1008091E2008E7F8093E2008091E2001D
:101B000080618093E20042E060E080E00E949E08F5
:101B10008091F00088608093F000FF91EF91BF9179
:101B2000AF919F918F917F916F915F914F913F9175
:101B30002F910F900FBE0F901F9018952091E400E9
:101B40003091E50095E64091EC00842F817040FFD4
:101B500023C08091E80080FD1DC080919B018823F7
:101B600099F0853099F08091EB0085FD11C040918E
:101B7000E4005091E5002417350729F3915011F046
:101B80009A01E1CF84E0089582E0089583E008950A
:101B900081E0089580E008954091E80042FFDDCFA4
:101BA0000895EF92FF920F931F93CF93DF937C01E1
:101BB0008B010E949E0D811119C0E70101151105CD
:101BC000A1F08091E80085FD0AC08091E8008E7741
:101BD0008093E8000E949E0D882381F307C08991BD
:101BE0008093F10001501109E9CF80E0CDB7DEB755
:101BF000E6E00C94491BCF9320919B01243029F5FA
:101C0000C091E900CF703091EC00232F217030FD9E
:101C100020E8C22B22E02093E9002091E80020FF79
:101C200011C040E050E060E270E00E94D10D8823D6
:101C300021F01092990110929A018091E8008E771C
:101C40008093E800CF70C093E900CF910895089584
:101C500080916D010895CF93DF9320910A01222393
:101C600039F02091E60127FF03C060E224E002C0C2
:101C700068E021E02093E9002FEF3091E800215047
:101C800035FD06C035ED3A95F1F700002111F5CF8D
:101C90002091E80025FF1DC0EC0180910A0181110F
:101CA00005C040E050E068E070E003C070E040E054
:101CB00050E0CE010E94D10D8091E8008E77809394
:101CC000E80080E2FE01AEE6B1E001900D928A9557
:101CD000E1F7DF91CF910895CF93DF930E94A41B8A
:101CE00066E070E00E946F1CD82F0E94A41B6EE07B
:101CF00070E00E946F1CC82F6D2F782F80E00E942B
:101D00005F120497C59718F48D2F9C2F02C00E9474
:101D10006C0EDF91CF9108958093E8017093EA01F2
:101D20006093E90180919B018430F9F48093E9008C
:101D30008FEF9091E800815095FD06C095ED9A9542
:101D4000F1F700008111F5CF8091E80085FF0DC00B
:101D500040E050E063E070E088EE91E00E94D10D39
:101D60008091E8008E778093E800089578941F9220
:101D70000F920FB60F9211248F939F93AF93BF933F
:101D80008091E2019091E301A091E401B091E5011D
:101D90000196A11DB11D8093E2019093E301A093F0
:101DA000E401B093E501BF91AF919F918F910F90A6
:101DB0000FBE0F901F9018959C014FB7F89480911B
:101DC000E2019091E301A091E401B091E5014FBFE0
:101DD000821B930B08952FB7F8948091E2019091A4
:101DE000E301A091E401B091E5012FBF08951F9296
:101DF0000F920FB60F9211248F939F93AF93BF93BF
:101E00008091E101811113C08091E2019091E30181
:101E1000A091E401B091E5014196A11DB11D80930F
:101E2000E2019093E301A093E401B093E501BF9137
:101E3000AF919F918F910F900FBE0F901F901895AB
:101E400020910A012223C9F02091E60127FF15C045
:101E5000262F2695269526952E31C8F4FC01E20FF3
:101E6000F11D677081E090E001C0880F6A95EAF784
:101E700080959281892382830895FC0106962281B0
:101E8000621301C012823196E817F907C1F708956D
:101E90002091DF013091E0012817390771F090930C
:101EA000E0018093DF01E091DD01F091DE013097E8
:101EB00021F00084F185E02D099508952091DB0142
:101EC0003091DC012817390771F09093DC01809381
:101ED000DB01E091DD01F091DE01309721F0068019
:101EE000F781E02D09950895E091DD01F091DE0183
:101EF000309729F00190F081E02D0995089580E058
:101F00000895ACE5B0E0E7E8FFE00C94291B85B745
:101F1000806885BF85B7806885BF84B7877F84BFA9
:101F20000FB6F894A8958091600088618093600056
:101F3000109260000FBE90E080E80FB6F894809396
:101F40006100909361000FBE8AE192E19093670176
:101F5000809366010E944D0C0E946C0C8091E200FF
:101F600084608093E200789480919B018823A1F0A3
:101F70001091E9001F709091EC00892F817090FD05
:101F800080E8182B1092E9008091E80083FD0E9400
:101F90003C091F701093E90082E084BD93E095BD79
:101FA0009AEF97BD80936E000E94F10690E09093A7
:101FB0001801809317010E942C080E947208E2EA1F
:101FC000F1E0A1EBB1E011921D9221E0E03BF207BC
:101FD000D1F78EE090E00E94891C80939C01909341
:101FE0009D01FC010E961192E817F907E1F789EAC5
:101FF0008093800089E08093810024982C983F98FA
:102000008AB18F7C8AB96E98479A8BB180638BB9FD
:10201000769A8FE090E00E94CC1B60939E017093B3
:102020009F018093A0019093A10167708FEF689F3B
:10203000B00111247595679575956795772770930D
:1020400089006093880070938B0060938A0070937E
:102050008D0060938C000E94680780E090E00E94F1
:10206000D21B883E9E4F11F00E94011482E090E046
:102070000E94C41B8093BF0184E090E00E94C41BB7
:10208000182F82E290E00E94C41B212F30E0382BF1
:102090003093E7012093E60183E090E00E94C41BA7
:1020A0000E9443198091B0010E9421038BE091E0CE
:1020B0009093DE018093DD0188E1C82ED12C90E45D
:1020C000E92E80919B01853009F054C000E112E1B6
:1020D00080919B01853009F047C080919B0184303D
:1020E00009F11092E1010FB6F894A895C092600032
:1020F0000FBEE092600083B7817F846083BF83B7A7
:10210000816083BF7894889583B78E7F83BF0FB635
:10211000F894A89580916000886180936000109287
:1021200060000FBE80918F01882391F20E94F1061A
:1021300090E090931801809317010E942C080E9450
:102140007208E1EBF1E0119221E0EF3BF207D9F7E1
:102150000E948515E1EBF1E08191811153C181E08D
:10216000EF3BF807C9F7B4CF10926B010E944819F2
:102170000E94740F0E948515882359F08FB7F89438
:102180004091E2015091E3016091E4017091E50119
:102190008FBFE0ECF1E0A1EBB1E000E010E0302F08
:1021A0002D9191919227A1F180E0FF24F394492F82
:1021B0004F2151F164968FAF649765963FAF659755
:1021C0002F2181E009F480E066968FAF66970E9428
:1021D000EB0E8160782F68969FAF8EAF68976496FC
:1021E0004FAD649765965FAD659766966FAD6697E0
:1021F00068968FAD68970E946E02F801E054FE4F1A
:102200008081F826F0822AC08F5FFF0C863079F635
:102210000F5F1F4F0E30110509F0C1CF8FEF699688
:102220008FAF69976A968FAF6A976B961FAE6B9761
:102230000E94EB0E8160782F6D969FAF8EAF6D97E9
:1022400069964FAD69976A965FAD6A976B966FAD69
:102250006B976D968FAD6D970E946E020E94740F02
:102260009091CE0189138093CE0180919B0184309F
:1022700009F027CF83E08093E9008091E80082FF96
:1022800020CF8091E80085FF22C00E949E0D811121
:102290001CC000E210E05E01E1E2AE0EB11C08C01D
:1022A0008091F100F50181935F010150110969F0FE
:1022B0008091E80085FDF4CF8091E8008B778093D2
:1022C000E8000E949E0D882399F391E001C090E000
:1022D0008091E8008B778093E800992309F4F1CE90
:1022E00089A18130E9F158F1823021F0843009F47C
:1022F0007DC0E7CE8BA19AA19093CF018093D001AE
:102300008DA19CA19093D1018093D2018FA19EA118
:102310009093D3018093D40142E150E063E270E0F6
:10232000CE018F5B9F4F0E94B41B84E0898381E0C4
:1023300080939A018EEF8A83109299010CC01982C2
:102340008CE0E8E2F1E0DE01129601900D928A95B0
:10235000E1F78EEF8D87CE0101960E94FB0DB1CE85
:1023600005ED11E00E946C0EF801819391938F01AD
:10237000F1E00B3D1F07B1F781E089839091D50112
:102380009A839091D6019B839091D7019C839091E1
:10239000D8019D839091D9019E839091DA019F830A
:1023A0009EEF988780939901CE0101960E94FB0DC4
:1023B00042E150E063E270E0CE0101960E94B41B5E
:1023C000FE01319682E183301CF09189928B01C02D
:1023D000128A815031978F3FB1F742E150E063E2BA
:1023E00070E0CE0101960E94D81B6BCE80919A01BD
:1023F000882309F466CE80E00E9400198AA10E9419
:1024000037195FCE09BD19BD09B400FEFDCF80911B
:10241000D8008F7D8093D8008091E0008260809307
:10242000E0008091E00081FDFCCF10926B010E94E2
:1024300048194ECE80E008959091E60192FF0DC0BC
:10244000282F2871283019F4877F846006C0282F30
:102450002471243011F48B7F886093FF0DC0282FE6
:102460002871283119F4877E846106C0282F2471D1
:10247000243111F48B7E88612091E70120FF0DC08B
:10248000382F3871383019F4877F816006C0382FB3
:102490003171313011F48E7F886021FF0DC0282FFB
:1024A0002871283119F4877E816106C0282F217197
:1024B000213111F48E7E886194FD877E08957E30EF
:1024C000A0F4663090F494E5899FF001112486E031
:1024D000789FE00DF11D1124E60FF11DEE0FFF1F97
:1024E000EA58FD4F85919491089580E090E0089519
:1024F000CF93DF938238910569F1B0F48133910570
:1025000009F46FC048F48932910509F465C08A3234
:10251000910509F46BC08AC08533910509F457C051
:1025200089339105B9F082C0833E910571F138F489
:10253000803E9105B1F0823E910511F177C0863E53
:102540009105B9F1873E9105C9F1843E910509F0E5
:102550006DC024C02091E60120FD53C021FD51C073
:1025600065C08091E60180FD46C08091E70180FF53
:1025700048C08091E60184FD3FC183EE90E03EC1FA
:102580008091E60182FF3AC0F4CF8091E60182FD9E
:1025900035C08091E70180FD34C0EBCF8091E70129
:1025A00081FF35C08091E60184FD26C187EE90E071
:1025B00025C18091E60183FF27C0F4CF8091E60119
:1025C00083FD22C08091E70181FD21C0EBCF809186
:1025D000E60185FD1FC021C08091E60185FD1DC07B
:1025E00019C08091E60186FD1BC01DC08091E601E7
:1025F00086FD19C015C089E390E000C182EE90E02D
:10260000FDC080EE90E0FAC086EE90E0F7C084EE68
:1026100090E0F4C089E290E0F1C085E390E0EEC084
:102620008AE290E0EBC081E390E0E8C0811532E5FA
:10263000930708F069C0811541E5940728F0982FA9
:102640008827816F906ADAC0883E910568F5803EE0
:10265000910508F0D3C0883A9105B8F4853A910500
:1026600048F0855AE82FF0E0EC5CFE4F808190E066
:102670009064C4C08130910509F4BBC008F4BCC0AB
:102680008430910508F4B8C0B9C08F3B910508F0BB
:10269000B3C0885AE82FF0E0EE0FFF1FE95CFE4F51
:1026A000808191819464AAC0811520E59207F0F0A1
:1026B0009C0174E0369527957A95E1F7922F9370F7
:1026C000482F437021E030E002C0220F331F4A95AB
:1026D000E2F73C68392B8F70982F9695969540E2DB
:1026E000949FC0011124822B932B88C0811530E464
:1026F000930718F09F70906A81C09C013A9521154C
:102700003F4108F47BC078C0EC01C11586E5D807CD
:10271000E8F5C11525E5D20748F08C2F0E941C1260
:102720008F7190E0982F8827906268C0C11534E5BA
:10273000D30728F09C2F8827846F906A5FC0AE0172
:10274000437055272C2F26952695C115D34578F42F
:1027500081E090E002C0880F991F4A95E2F740E2BD
:10276000249F90011124822B932B9C6847C081E009
:1027700090E002C0880F991F4A95E2F740E2249F3B
:1027800090011124822B932B9A6838C0C1152AE539
:10279000D207F8F4C11539E5D30790F08C2F8F706C
:1027A0000E941C1294E0D695C7959A95E1F7CF70D8
:1027B000D0E0DC2FCC27D0699E01282BC9011EC098
:1027C000C11548E5D407C0F09C2F8827806F906A18
:1027D00015C0CE0190568115904270F48D2F8F71E7
:1027E0000E941C12282F2F71CE0199279062922BE4
:1027F00005C081E090E002C080E090E0DF91CF91E1
:10280000089568EE7EEF80E090E00E94061C60E094
:1028100082E090E00E94E81B60E083E090E00E948C
:10282000E81B1092660260E084E090E00E94E81BE2
:1028300064E082E290E00E94E81B60E085E090E0C6
:102840000E94E81B60E086E090E00E94E81B6FEFCA
:1028500087E090E00E94E81B40E050E0BA0188E089
:1028600090E00E94FA1B60E08DE090E00E94E81B7F
:1028700040E050E0BA0188E190E00E94FA1B60E07D
:1028800087E190E00E94E81B40E050E0BA018CE153
:1028900090E00E94FA1B60E070E080E290E00E940D
:1028A000061C40E050E0BA0188E190E00E94FA1B6B
:1028B00010929E0110929F011092A0011092A1010E
:1028C00084E080939E0140919E0150919F01609110
:1028D000A0017091A1018FE090E00E94FA1B40E0FE
:1028E00050E0BA0183E190E00E94FA1B08958091C4
:1028F00065028111109265020895809590916B0197
:10290000892380936B01089590916B0180916402FB
:10291000982B9093EB01809165028823D9F0892B45
:102920008093EB0180910A01882331F08091E601C8
:1029300087FF02C08EE101C086E0EDEEF1E090E09D
:10294000815028F021912223D9F39F5FF9CF911173
:102950000E94771440E250E064E472E08BEE91E074
:102960000E94AA1D892B21F180E2EBEEF1E0A4E4A4
:10297000B2E001900D928A95E1F7E091DD01F091CE
:10298000DE013097A9F080910A01882359F08091E7
:10299000E60187FF07C08091EB018093EC0186E0A0
:1029A0008093EB010280F381E02D8BEE91E009959D
:1029B0000895209143028095822380934302982FAB
:1029C000977099F430E0482F082E000C550B24170F
:1029D000350759F09091E70192FF07C085958595DD
:1029E00085950E942A19109243020895CF93C091B1
:1029F000E701C2FB992790F9981791F080FBC2F983
:102A0000C093E7016091E60184E090E00E94E81B3A
:102A10006C2F82E290E00E94E81B82E00E94D914B1
:102A2000CF9108958091420290911102891719F077
:102A30008F5F8770FBCF08950F931F93CF93DF9322
:102A40008091100282958F7009F05AC080910D021A
:102A5000882309F455C080914202109111026091BF
:102A60000B0270910C02C0910E02D0910F0291E006
:102A70006F3F09F090E0292F06E0811709F440C06C
:102A8000209721F07F3F21F030E003C031E001C00A
:102A9000322F90E030FD31C0089FF001099FF00D0A
:102AA0001124DF01AE5EBD4F11963C911197371393
:102AB00024C03C91361321C012963C9112973111DB
:102AC0001CC013964D915C9114974C1B5D0B483CB8
:102AD000510598F4809110028F70806180931002EC
:102AE000E95EFD4F80818F70806180838BE092E092
:102AF0000E944B030E94121503C001968770BDCF40
:102B0000DF91CF911F910F910895A0E0B0E0EBE825
:102B1000F5E10C942A1B8091170190911801892BE3
:102B200091F0809167028F5F8093670281110BC0E3
:102B30000E94F10690E09093180180931701892B71
:102B400011F40E94680702EA11E07801B12CC0E09C
:102B500087E0C82ECC0E8C2F0E94D8078C2D0E94A7
:102B6000D8078C2F0E943B088F73F701908189173B
:102B700021F08083DD24D39401C0D12C8C2D0E94C0
:102B80003B088F73F7019781891719F0878381E0DC
:102B900001C080E0D82ABD280E942C08CF5FFFEF3B
:102BA000EF1AFF0AC730A1F6C0916B02CC23C9F11E
:102BB0000E94EB0E2091690230916A02AC01421B27
:102BC000530B9A0190936A02809369024F3F51051B
:102BD00009F020F4452B09F4B0C002C02FEF30E01B
:102BE00010926B0210926802E0919C01F0919D019D
:102BF000AF01425F5F4F90E030E08081882341F079
:102C0000281718F010829C2F03C0821B80833C2F52
:102C10003196E417F50789F730936B0290936802B9
:102C20008CC0BB2009F480C00E94EB0E90936A0216
:102C300080936902E0919C01F0919D0180916B026B
:102C4000A1EBB1E09F01225F3F4F4EE1E801999176
:102C50008E015C91591731F05081511103C04083AE
:102C60009C9381E031961196E217F30779F78093F0
:102C70006B022091990180916D0290916E02222346
:102C8000C9F1892B31F425982D9826982E982798EC
:102C90002F9880916D0290916E029170892B79F43A
:102CA00080916C02882319F026982E9802C0269AEB
:102CB0002E9A90916C0281E0892780936C0280911A
:102CC0006D0290916E028130984750F010929901F8
:102CD0008091B0010E94210310926E0210926D0249
:102CE00080916D0290916E02019690936E02809396
:102CF0006D020AC0892B41F010926E0210926D0293
:102D00008091B0010E9421030E94740F81FF03C0D3
:102D1000279A2F9A16C08091B0010E940D0383302C
:102D200081F027982F980DC080E090916802992338
:102D300009F49FCF81117ECF77CFB1107BCF81E097
:102D4000F4CF8B2DCDB7DEB7E9E00C94461B80E0C5
:102D500090E00E945E0F80E090E00E94480F109289
:102D600064020E9484140895CF92DF92FF920F9321
:102D70001F93CF93DF936C010091B00180916602A5
:102D8000082BC7E0D0E010E0C8010C2E02C09595DA
:102D900087950A94E2F780FD04C02197A8F7F12CEB
:102DA00009C0FC2EB6018C2F0E945F120E9478127F
:102DB000019799F38F2DDF91CF911F910F91FF9084
:102DC000DF90CF900895CF93DF93EC010E94B4166B
:102DD000BE010E945F120E947812DF91CF91089588
:102DE000FC01808191810E94E31692959F7096303C
:102DF00079F010F4925001C09A50923068F4803FFC
:102E000069F018F4883E40F409C0843F29F406C0F4
:102E1000883E20F0813F11F080E0089581E0089520
:102E2000A1E1B0E0E6E1F7E10C94281B8C0185E01C
:102E3000F801DE011D9601900D928A95E1F7F801E7
:102E4000E28090910B0260910C0240910E02509131
:102E50000F024115510531F06F3F31F481E09F3F82
:102E600019F403C081E001C080E0F82FF1709F2EBB
:102E700080FD1BC1F80130812181C380D4808BE0AB
:102E8000A82E82E0B82EF0900D02F601E41BF50B9F
:102E9000FF2009F4C7C080911002E83CF10508F05A
:102EA00092C0482F407F09F051C0621311C09313A4
:102EB0000FC0FE2CE1100CC08F7080618093100257
:102EC000C5010E944B0380911002F80185832AC13D
:102ED000C114D10431F02F3F31F481E03F3F19F4A8
:102EE00003C081E001C080E080FD03C081E08E2549
:102EF00002C080E090E0F82FF170FF2E80FF1CC030
:102F0000809142024091110256E0841709F4E8C012
:102F100090E0589FF001599FF00D1124EE5EFD4F97
:102F20006181261306C06081631303C06281E612CB
:102F300003C001968770E9CFFE2CEE2009F4F2C0A1
:102F40008091100281608093100249C0621306C014
:102F5000931304C0E11002C0F80186C0C8010E94AA
:102F6000F016882351F1EE2041F120911002822FBA
:102F700082958F7090E0029774F080910B0290918F
:102F80000C0298878F831986DB86CA862C87CE0130
:102F900007960E944B0386E0F801ABE0B2E0019097
:102FA0000D928A95E1F70E941C150AC06217C9F0BC
:102FB000C8010E94F01681111EC0C8010E944B0377
:102FC000FF24F394AFC0482F407F81F78BE092E05D
:102FD0000E944B0386E0F50111928A95E9F7F12CE6
:102FE000A1C09313E5CFE110E3CFF8018583C801B9
:102FF0000E944B0354C0EE2001F320911002822F57
:1030000082958F7090E0029734F280910B0290913C
:103010000C029A8389831B82DD82CC822E83CE01AF
:103020000196B7CFE83CF105D0F5FE2CEE2029F251
:10303000621327C0931325C02091100220FD18C0F1
:10304000822F82958F70482F50E04115510581F0F5
:10305000F80125834F30510541F08F5F982F9295ED
:10306000907F822F8F70892B8583C8010E944B032C
:1030700086E0F801ABE0B2E001900D928A95E1F7AD
:1030800051C0C8010E94F016811185CF80911002B5
:10309000816080931002C8010E944B0343C086E008
:1030A000F50111928A95E9F73DC0EE2009F485CF2C
:1030B000C8010E94F016F82E882309F47ECF86E01E
:1030C000F801ABE0B2E001900D928A95E1F78091B2
:1030D0000B0290910C020E94E3160E941C1522C064
:1030E0003D872E878D859E850E94E316292F229588
:1030F0002F70223028F49F7039F0811105C00BC069
:10310000243028F49F7049F4805E883020F0C80194
:103110000E944B039F2CF92C05C0F8019581907FEC
:1031200099F7F9CF8F2D6196EBE00C94441B292F72
:103130009E3078F5863068F590E036E0239F800D6C
:10314000911D1124682F677023E0969587952A9525
:10315000E1F7FC01EE0FFF1FE80FF91FE159FD4FEA
:1031600040E050E080E0219130E0062E02C036952C
:1031700027950A94E2F721703327042E01C0220F0D
:103180000A94EAF7822B4F5F5F4F4330510559F79E
:10319000089580E00895292F9E3088F5863078F5CF
:1031A00090E036E0239F800D911D1124282F277079
:1031B00051E001C0550F2A95EAF723E096958795CF
:1031C0002A95E1F7FC01EE0FFF1FE80FF91FE15907
:1031D000FD4F20E030E070E04081CB01022E02C0C4
:1031E000969587950A94E2F78170819584278523C7
:1031F000842781932F5F3F4F2330310569F708956E
:10320000A0E2B0E0E6E0F9E10C94301B0E9421035B
:10321000182F80919A018823A9F02FEF80E792E080
:10322000215080409040E1F700C0000085E0898394
:10323000812F0E940D038A838EEF8B83CE0101962E
:103240000E94FB0D1093B0010E94A716A096E3E028
:103250000C944C1B21E030E001C0220F8A95EAF764
:1032600020958091B00182230E940019089521E0E9
:1032700030E001C0220F8A95EAF78091B001822BDD
:103280000E9400190895809366020E94A71608956F
:1032900080910A01882331F08091E60187FF02C006
:1032A0008EE101C086E0EDEEF1E0DF011D928A952E
:1032B000E9F70E94A7160895882321F00E947D1443
:1032C0000E9484140895882339F090916B01892B12
:1032D00080936B010E9484140895882349F1682F1C
:1032E0008CEF860F813A28F48BEE91E00E94200F3C
:1032F0000CC080E2860F883058F4677081E001C00E
:10330000880F6A95EAF70E947D140E94841408953C
:103310008BE5860F833028F480E090E00E945E0FFA
:103320000895685A673120F480E090E00E94480FC9
:103330000895CF93882309F49AC0C82F8CEF8C0F7F
:10334000813A08F05EC080910A018823E1F0809103
:10335000E60187FF18C0EC2FE695E695E695F0E0CC
:10336000E551FE4F8281282F30E04C2F477081E0DD
:1033700090E002C0880F991F4A95E2F782239323B9
:10338000892B59F411C0EDEEF1E08191C81729F0B5
:1033900081E0E33FF807C9F707C06C2F8BEE91E09F
:1033A0000E94200F0E94841480910A018823C9F092
:1033B0008091E60187FF15C0AC2FA695A695A6952E
:1033C000B0E0A551BE4FC77081E090E001C0880F0A
:1033D000CA95EAF712969C911297892B12968C93B4
:1033E00020C0ADEEB1E0EFEF80E09D91C917C9F0CC
:1033F000EF3F19F4911101C0E82F8F5F8630A9F7D4
:103400002DC080E28C0F883078F4C77081E090E0A6
:1034100001C0880FCA95EAF790916B01892B8093C0
:103420006B010E94841423C0EBE5EC0FE33040F401
:10343000F0E0EC5CFE4F808190E00E945E0F17C0D0
:10344000C85AC731A0F4EC2FF0E0EE0FFF1FE95C83
:10345000FE4F808191810E94480F09C0EF3F09F320
:103460000E2E000CFF0BE551FE4FC283DACFCF9139
:1034700008951092B9008CE08093B8000895A0E000
:10348000B0E0E5E4FAE10C94281BB82EEB010E94B1
:10349000EB0E6C01C431D10558F0CF3F8FEFD80748
:1034A00059F0CE0164E170E00E940D1B7B0107C062
:1034B000EE24E394F12C03C025E0E22EF12C84E805
:1034C000A82E94EA992E1092BC009092BC000E9403
:1034D000EB0E8C018091BC0087FD08C00E94EB0EB2
:1034E000801B910B8E159F05A8F32AC08091B9000F
:1034F000887F883041F08091B900887F803119F051
:103500000FEF1FEF1FC0B092BB00A092BC000E9443
:10351000EB0E8C018091BC0087FD08C00E94EB0E71
:10352000801B910B8E159F05A8F30AC08091B900EE
:10353000887F883111F0803419F700E010E00EC068
:103540000EEF1FEFCF3F8FEFD80709F4BCCFC601B6
:103550000E94DC0E8C179D0708F4B5CFC801CDB7CB
:10356000DEB7EBE00C94441B0F931F93CF93DF93D4
:10357000EB018093BB0084E88093BC000E94EB0EBB
:103580008C018091BC0087FD0EC0CF3F8FEFD80724
:10359000C1F30E94EB0E801B910B8C179D0788F3E3
:1035A0008EEF9FEF0CC02091B900287F81E090E062
:1035B000283211F480E090E0919581959109DF9196
:1035C000CF911F910F9108950F931F93CF93DF9386
:1035D000EC0184E88093BC000E94EB0E8C0180918A
:1035E000BC0087FD0EC0CF3F8FEFD807C1F30E940C
:1035F000EB0E801B910B8C179D0788F38EEF9FEFCE
:1036000003C08091BB0090E0DF91CF911F910F919B
:10361000089584E98093BC000895AA1BBB1B51E167
:1036200007C0AA1FBB1FA617B70710F0A61BB70B32
:10363000881F991F5A95A9F780959095BC01CD01D7
:1036400008952F923F924F925F926F927F928F9246
:103650009F92AF92BF92CF92DF92EF92FF920F9321
:103660001F93CF93DF93CDB7DEB7CA1BDB0B0FB62B
:10367000F894DEBF0FBECDBF09942A8839884888E8
:103680005F846E847D848C849B84AA84B984C8847E
:10369000DF80EE80FD800C811B81AA81B981CE0F75
:1036A000D11D0FB6F894DEBF0FBECDBFED0108955A
:1036B0008F929F92AF92BF92CF92DF92EF92FF9242
:1036C000CF93DF93EC01688179818A819B816115B9
:1036D00071058105910521F464E279ED8BE597E0B0
:1036E0002DE133EF41E050E00E940C1C49015A01EA
:1036F0009B01AC01A7EAB1E40E942B1C6B017C0189
:10370000ACEEB4EFA50194010E94391CDC01CB01A1
:103710008C0D9D1DAE1DBF1DB7FF03C00197A109F4
:10372000B04888839983AA83BB839F77DF91CF9129
:10373000FF90EF90DF90CF90BF90AF909F908F90D1
:1037400008950E94581B089580E091E00E94581B44
:103750000895A0E0B0E08093000190930101A09350
:103760000201B09303010895DC01CB01FC01F9993A
:10377000FECF06C0F2BDE1BDF89A319600B40D92BD
:1037800041505040B8F70895F999FECF92BD81BDE0
:10379000F89A992780B50895A6E1B0E044E050E09A
:1037A0000C94B61BA8E1B0E042E050E00C94B61BCC
:1037B000DC01A40FB51F4150504048F0CB01840FED
:1037C000951F2E910E94E91B41505040D0F708955B
:1037D000262FF999FECF92BD81BDF89A019700B4CA
:1037E000021639F01FBA20BD0FB6F894FA9AF99A6A
:1037F0000FBE08950396272F0E94E91B0E94E81B25
:10380000252F0E94E91B242F0C94E91B0196272FDA
:103810000E94E91B0C94E81B052E97FB1EF40094F4
:103820000E94231C57FD07D00E943E1C07FC03D0BA
:103830004EF40C94231C50954095309521953F4FA4
:103840004F4F5F4F089590958095709561957F4F8C
:103850008F4F9F4F08950E94601CA59F900DB49FAD
:10386000900DA49F800D911D11240895B7FF0C9415
:103870002B1C0E942B1C821B930B0895A1E21A2E75
:10388000AA1BBB1BFD010DC0AA1FBB1FEE1FFF1F04
:10389000A217B307E407F50720F0A21BB30BE40B54
:1038A000F50B661F771F881F991F1A9469F760959B
:1038B0007095809590959B01AC01BD01CF01089555
:1038C000A29FB001B39FC001A39F700D811D112461
:1038D000911DB29F700D811D1124911D089597FBBC
:1038E000072E16F4009407D077FD09D00E940D1B17
:1038F00007FC05D03EF4909581959F4F08957095F3
:1039000061957F4F0895EE0FFF1F0590F491E02D14
:1039100009940F931F93CF93DF938230910510F496
:1039200082E090E0E0919202F091930220E030E09A
:10393000A0E0B0E0309719F14081518102811381FC
:1039400048175907C8F08417950769F4109731F0A4
:1039500012960C93129713961C9327C00093920211
:103960001093930222C02115310519F04217530715
:1039700018F49A01BD01EF01DF01F801DBCF211539
:103980003105F9F0281B390B2430310580F48A8188
:103990009B816115710521F0FB019383828304C033
:1039A0009093930280939202FE01329644C0FE01EE
:1039B000E20FF31F819391932250310939832883B9
:1039C0003AC02091900230919102232B41F4209132
:1039D00006013091070130939102209390022091CB
:1039E0000401309105012115310541F42DB73EB791
:1039F0004091080150910901241B350BE091900280
:103A0000F0919102E217F307A0F42E1B3F0B281749
:103A1000390778F0AC014E5F5F4F2417350748F047
:103A20004E0F5F1F509391024093900281939193A8
:103A300002C0E0E0F0E0CF01DF91CF911F910F9144
:103A40000895CF93DF93009709F481C0FC0132976A
:103A500013821282A0919202B0919302109781F486
:103A600020813181820F931F209190023091910229
:103A70002817390751F5F0939102E093900267C03F
:103A8000ED0120E030E0CE17DF0740F44A815B8192
:103A90009E0141155105F1F0EA01F5CFD383C283B0
:103AA00040815181840F951FC817D90759F4888127
:103AB0009981840F951F0296918380838A819B81CF
:103AC000938382832115310529F4F0939302E093C7
:103AD00092023DC0E901FB83EA8349915991C40FE9
:103AE000D51FEC17FD0761F480819181840F951F2C
:103AF0000296E90199838883828193819B838A83DB
:103B0000E0E0F0E012968D919C911397009719F0E8
:103B1000FD01DC01F7CF8D919C9111979D012E5FE6
:103B20003F4F820F931F20919002309191022817EE
:103B3000390769F4309729F4109293021092920297
:103B400002C013821282B0939102A0939002DF917F
:103B5000CF910895FB01DC0104C08D910190801983
:103B600021F441505040C8F7881B990B0895F894F0
:023B7000FFCF85
:103B72000100000000009402200001280E2B0E27F5
:103B82000E370932093109200040226D830161019B
:103B9200F400D501EE010E026F4C4C4B512F6745DC
:103BA200706A3300818283E200E900EA00B500B660
:103BB20000B700CD008301CC008A0192019401215B
:103BC20002230224022502260227022A02B300B49B
:063BD200006F007000000E
:00000001FF
