:100000000C9437020C9454020C9454020C94540235
:100010000C9454020C9454020C9454020C94540208
:100020000C9454020C9454020C94D80A0C941A0A9E
:100030000C94BB1B0C9454020C9454020C94540268
:100040000C9454020C9454020C9454020C945402D8
:100050000C9454020C947A1B0C9454020C94540289
:100060000C9454020C9454020C9454020C945402B8
:100070000C9454020C9454020C9454020C945402A8
:100080000C9454020C9454020C9454020C94540298
:100090000C9454020C9454020C9454020C94540288
:1000A0000C9454020C9454020C9454029A049A0432
:1000B000C904C90433054E064E064E064F05C30556
:1000C000D405D40532085908020A5908020AA508BD
:1000D000C808020ABD09CD09510E560E600E540E15
:1000E000590E5E0E5C0E8A0F8D0F900F930F960FB8
:1000F000990F9C0F05010980A101850319012AB7F9
:1001000000150126B700950175108100C0050C0986
:1001100001A101850419012AA002150126A002955A
:100120000175108100C005010906A10185060507BA
:1001300019E029E7150025019508750181020507D9
:10014000190029EF1500250195F0750181020508B8
:100150001901290595057501910295017503910114
:10016000C00660FF0961A1010962150026FF009524
:1001700020750881020963150026FF009520750887
:100180009102C005010906A101050719E029E7153B
:100190000025019508750181029501750881010509
:1001A00007190029FF150026FF0095067508810034
:1001B0000508190129059505750191029501750339
:1001C0009101C009025B00030100A0FA09040000CC
:1001D000010301010009211101000122400007056E
:1001E0008103080001090401000203000000092145
:1001F00011010001222200070582032000010705EA
:10020000030320000109040200010300000009218A
:1002100011010001226D0007058403200001120175
:100220000002000000089732744901000102000139
:1002300016034500720067006F0044006F007800ED
:10024000200045005A00000028035A0053004100D6
:10025000200054006500630068006E006F006C00B1
:100260006F006700790020004C006100620073009D
:100270000000040309042E002B002900E1000151B5
:1002800000001E00140004001D0035004D001F007A
:100290001A0016001B0039002C002000080007007F
:1002A000060050004C0021001500090019004F0005
:1002B0004A00220017000A0005000000E000005775
:1002C0002F02000026020000E20001573002000069
:1002D00027020000E70023001C000B0011000000B3
:1002E000E400240018000D00100052004B0025000F
:1002F0000C000E00360051002A00260012000F00EC
:1003000037002F002800270013003300380030008A
:100310004E002D0031003400E500015100003A008C
:10032000010001000100010000003B001E021E0050
:100330000100010001003C001F021F000100AE008F
:1003400001003D00200220000100AC0001003E0041
:10035000210221000100AB0001003F002202220027
:1003600001000000095D0100010000000100000023
:10037000005C0100010000000100000001004000DD
:100380002302230001000000010041002402240098
:100390000100A90001004200250225000100AA0079
:1003A0000100430026022600010001000100440074
:1003B00027022700010001000100450001000100A3
:1003C0000100010000000100010001000100010026
:1003D0000000010001000100010001000100010016
:1003E0000100010001000100010001000100010005
:1003F00001000100010001000100010001000100F5
:1004000001000100010001000100000001000100E5
:1004100001000000010000000100010001000000D7
:1004200001000000010001000100010001000000C6
:10043000010053005F005C005900010001005400FE
:1004400060005D005A0001006200550061005E001E
:100450005B0063000100560057002E0058002A0080
:100460000100010001000100010001000000112451
:100470001FBECFEFDAE0DEBFCDBF11E0A0E0B1E0FC
:10048000E2E9F0E402C005900D92A439B107D9F772
:1004900022E0A4E9B1E001C01D92A83CB207E1F757
:1004A0000E9487140C9447200C940000A5E2B0E051
:1004B000ECE5F2E00C94B81DFC0180819181238170
:1004C0003481232B31F09F3F31F491E08F3F19F4B9
:1004D00003C091E001C090E090FD1EC47F0185E063
:1004E000DE01919601900D928A95E1F7D70112965F
:1004F0002C9189A19AA1222349F00E947517182FE7
:10050000682F89A19AA10E948C1903C00E945819D2
:10051000182F69A17AA1812F0E9438108C01F70150
:100520008281811108C09091C601D70112968C91E9
:10053000911142C08EC08091190190911A010196CB
:1005400091F34BE1C42E41E0D42EA12CB12C99247F
:1005500093948091190190911A018A159B051CF3BF
:10056000F6018681882309F181859285801791079C
:1005700039F48091B1029091B20280179107A9F0ED
:10058000D6011F969C921F971C961C930E931B9747
:1005900051968C91811103C0C6010E94451CC60171
:1005A00006960E94641C1092B302BFEFAB1ABB0AFE
:1005B000E6E1CE0ED11CCDCF81119FC3E091960113
:1005C000E330A0F481E08E0F80939601F0E0EE0F0F
:1005D000FF1FEC57FD4FD7018D919C919183808334
:1005E00082E08983CE0101960E940C0CBFEFE3EDFF
:1005F000F0E3B150E040F040E1F700C0000080912E
:100600009601833009F079C310929601EAE8F2E08E
:10061000A4E8B2E080E992E0318111962C91119723
:1006200032132EC030812C9132132AC0329612968A
:100630008E179F0789F784E0898381E08093C70143
:100640008EEF8A831092C601CE0101960E940C0C97
:1006500054C39091C7019923C1F0811102C087E072
:1006600001C086E08983D7018C918A8311968C9191
:100670008B838EEF8C83CE0101960E940C0C05C0FB
:1006800083E089831092C701DBCFF70122810F3A03
:10069000FDE51F07D1F5222309F489C0909153028B
:1006A00081E0890F8770987F853020F4892B8093B3
:1006B000530202C090935302809153028770BFEFA0
:1006C0008B9FC001112495958795959587959927BE
:1006D000909389008093880090938B0080938A0088
:1006E00090938D0080938C0040915302509154025E
:1006F00060915502709156028FE090E00E948A1E30
:10070000809165020E943B0E52C0C80197558F3FF1
:10071000910511F008F04BC04091190150911A0158
:100720004817590724F490931A018093190136E170
:10073000389F5001399FB00C1124F501E55EFE4F42
:100740006F01208BD70112969C918681992329F104
:10075000128701878F5F86830E94AF1BF601968701
:1007600085878091470287839091B3028091980199
:10077000892B80870190F081E02DC5018F5D9E4F10
:10078000309731F0D60154966D917C91559709952B
:100790001093B2020093B1020AC0882341F081890C
:1007A000882329F0C5018F5D9E4F0E94641CD701EC
:1007B00012968C91882309F46EC00C35FDE51F0755
:1007C00009F464C060F401158CE51807A9F00F3D29
:1007D0009CE5190709F05FC00E94DA114CC00E3584
:1007E000ADE51A0709F44AC008F452C0093AEDE52C
:1007F0001E0709F440C04FC0109298010E94091AC8
:10080000FFEF24E38CE0F15020408040E1F700C08E
:100810000000F89481E08093E00080E28093D800AB
:100820001092C900AFE1BEE41197F1F700C00000DB
:100830001DBA109268001CBC10BE1FBA10927A003C
:1008400010926E0010926F00109271001092720060
:100850001092C9001092BC0014B817B81AB81DB88D
:1008600010BA1092BC0015B818B81BB81EB811BA4F
:100870000C94003F42C20E94230E3FC28091C002EE
:1008800082FB882780F991E0892703C081E001C0BD
:1008900080E00E94D612F7018281008111818823B5
:1008A00049F0C8010E947517D82E682FC8010E9410
:1008B0008C1904C0C8010E945819D82EB8018D2D7A
:1008C0000E9438100E9451108C01982ED701129668
:1008D000DC9012971596CC90C2949FE0C92280912B
:1008E00026028770B9F0DD20A9F0812F807F803447
:1008F00021F080E2800F883068F08091C00282FF92
:1009000009C082E00E94B912809126028770BB2440
:10091000B3948111B12CA12EA2948FE0A8228A2D2C
:1009200090E08C30910508F0B9C1FC01EA5AFF4F04
:100930000C94131F812F807F1F70882311F0129554
:10094000107FDD20B9F0112309F496C180E2800FF9
:10095000883010F0911006C080919801182B1093E8
:10096000980105C08091B302182B1093B3020E9426
:10097000641282C1802F0E943F1A112309F48EC194
:10098000005E812F083060F1992051F10E945612CB
:1009900029C0812F807F1F70803211F01295107F47
:1009A000992021F0B1E09B16D9F147C08091C00297
:1009B00082FD1BC0DD2069F0112339F08091980180
:1009C000182B109398010E94641280E00E946B1A09
:1009D00065C180E00E943F1A112309F45FC1812F95
:1009E0000E945D120E94641259C1DD2081F0809145
:1009F0004702CC2051F0E1E0CE1207C0182B1817A7
:100A000009F44CC11093470249C1812B10C0CC207E
:100A100021F0F1E0CF1609F441C10E9450121FC02D
:100A2000DD2041F021E02C1508F438C1812F0E940F
:100A3000351A34C1C11032C112C0DD2019F0CC20EA
:100A4000A9F31AC1CC2059F0093309F024C18FEF62
:100A500097EEA3E081509040A040E1F71AC1812FAA
:100A60000E942E1A1BC1812F86958695837019F0DE
:100A7000813059F013C1DD2019F0C801937002C014
:100A800080E090E00E94221C0FC1DD2019F0C80117
:100A9000937002C080E090E00E940C1C05C1812F81
:100AA0008370A9F5D110FEC0402F4295469547703E
:100AB000440F440F802F8F7090E09C01042E01C0E2
:100AC000220F0A94EAF704FF08C08FE090E001C00B
:100AD000880F4A95EAF7809501C080E01695169533
:100AE0001370123069F088F490914802113019F0B7
:100AF000822B892302C0922B892B0E94041AD2C018
:100B0000822B909148028927F8CF822BF6CFDD20E7
:100B100019F0812F817001C08695882309F4C2C025
:100B2000402F429546954770440F440F802F8F7099
:100B300090E09C01042E01C0220F0A94EAF704FF02
:100B400008C08FE090E001C0880F4A95EAF78095D1
:100B500001C080E0169516951370123059F078F4A4
:100B600090916502113019F0822B892309C0922BD4
:100B7000892B06C0822B90916502892701C0822BA8
:100B80000E94C1198FC01F70DD2039F0812F0E9493
:100B9000F819802F0E94351A85C0802F0E942E1AC6
:100BA000812F0E94EB197EC0802FB2EF9B1669F156
:100BB000B91538F0E0EF9E1659F0F1EF9F1601F1EC
:100BC00057C023EF921641F194EF9916A9F050C047
:100BD000DD2069F0C11062C01F7181E090E001C0AA
:100BE000880F1A95EAF79091650289271DC0A1E048
:100BF000AC1508F453C0F0CF8091C00282FD19C03B
:100C0000DD2029F0812F8F7126C0DD20D9F3812FBF
:100C10008F710E94EB1942C0DD2049F01F7181E005
:100C200001C0880F1A95EAF70E94C11937C080E009
:100C3000FBCFDD2099F01F71812F0E94F819809160
:100C4000C00282FF07C0B8E01B9FC001112483606F
:100C500080932602812F0E94F81920C081E00E9413
:100C6000B912E1E0EC15D0F482E00E94B91216C08E
:100C7000DD2021F0CC2031F2802FA8CECC2039F21B
:100C8000893349F4FFEF27EE83E0F15020408040A4
:100C9000E1F700C00000802F0E943F1A88EF8A0D04
:100CA000843010F40E94381CBB20B1F080912602E1
:100CB00080FD12C0D70112961C9285958595859569
:100CC0000E94F819C7010E9456028091260285955C
:100CD000859585950E94EB1985E0F701DE01119657
:100CE00001900D928A95E1F709811A81C8010E944D
:100CF0005819B8010E9438100FC0809126028770E1
:100D000059F0F7018281882339F08091C00282FF77
:100D100003C082E00E94B912A596EBE00C94D41DAA
:100D20008091BE0187FF11C08091E80082FD05C05F
:100D30008091C8018111F8CF11C08091E8008B77B4
:100D40000BC08091C801882349F08091E80080FFA2
:100D5000F8CF8091E8008E778093E8000895982F6F
:100D6000973068F59093E900981739F07091EC008E
:100D70002091ED005091F00003C0242F762F50E019
:100D800021FD02C09F5FECCF3091EB003E7F30939E
:100D9000EB003091ED003D7F3093ED003091EB00A2
:100DA00031603093EB007093EC002093ED00509392
:100DB000F0002091EE0027FDE5CF80E008958F70D0
:100DC0008093E90081E008952091C4013091C5012C
:100DD0002617370748F06115710539F42091E800AE
:100DE0002E772093E80001C0B901FC0120E06115D5
:100DF000710579F18091C8018823F1F18530F1F115
:100E00008091E80083FD3CC08091E80082FD2EC007
:100E10008091E80080FFEBCF2091F3008091F200F9
:100E200090E0922B6115710551F08830910538F4EE
:100E300021912093F100615071090196F3CF21E0D7
:100E4000089709F020E08091E8008E778093E80011
:100E5000CECF2111CFCF0AC08091C801882361F085
:100E6000853061F08091E80083FD0AC08091E80040
:100E700082FFF2CF80E0089582E0089583E0089534
:100E800081E008950895BC0184E00E94501B0895FC
:100E9000BC0183E00E94501B0895AAE2B0E0E3E5A4
:100EA000F7E00C94C01DEEEBF1E086EC91E02091B0
:100EB000F10021938E179F07D1F78091BF018330F6
:100EC00009F463C030F4813071F0823009F49FC0BE
:100ED000B6C08A3009F48BC08B3009F46EC08930FB
:100EE00009F0ADC020C08091BE01813A09F0A7C0D1
:100EF0008091E800877F8093E8008091C201909103
:100F0000C301892B21F460E28BE991E003C060E02A
:100F100080E090E070E00E94E4068091E8008B772A
:100F20008093E8008CC08091BE01813209F087C0B7
:100F30008091C2019091C301009719F0029709F0C6
:100F40007EC08091E800877F8093E8008091E80070
:100F500082FD05C08091C8018111F8CF70C0209139
:100F6000F3008091F20090E0922B029731F480918F
:100F7000F100813011F0863021F48091F1008093EE
:100F80009A018091E8008B7756C08091BE01813A2A
:100F900009F055C08091C2019091C301892B09F0DD
:100FA0004EC08091E800877F8093E8008091E80040
:100FB00080FFFCCF80910A0139C08091BE0181324F
:100FC000F1F58091C2019091C301892BC1F5809107
:100FD000E800877F8093E8000E9490068091C0011E
:100FE00080930A01109298010E94091A28C08091EA
:100FF000BE01813221F58091E800877F8093E8006F
:101000000E9490068091C1018093990118C080913F
:10101000BE01813AA1F48091E800877F8093E800C7
:101020008091E80080FFFCCF809199018093F100CE
:101030008091E8008E778093E8000E94900680916E
:10104000E80083FFDFC18091BE019091BF01492F6D
:1010500050E04A30510508F0D5C1FA01EE59FF4F72
:101060000C94131F803821F0823809F0CBC108C0DE
:101070008091BB019091BC01992389F082600FC0DF
:101080008091C2018F70873008F0BCC18093E90065
:101090008091EB0085FB882780F91092E900909100
:1010A000E800977F9093E8008093F1001092F100A0
:1010B00070C1282F2D7F09F0A5C1882319F0823037
:1010C00061F0A0C18091C001813009F09BC19330D3
:1010D00009F080E08093BC012EC08091C001811195
:1010E0002AC08091C2018F702FEF280F263008F0A0
:1010F00089C18093E9002091EB0020FF1CC0933050
:1011000021F48091EB00806214C09091EB0090611B
:101110009093EB0021E030E0A90102C0440F551F7D
:101120008A95E2F74093EA001092EA008091EB0082
:1011300088608093EB001092E9008091E800877F3F
:101140008093E8000E9490065DC181115BC11091FF
:10115000C0011F778091E3008078812B8093E300AA
:101160008091E800877F8093E8000E94900680913C
:10117000E80080FFFCCF8091E30080688093E3006B
:10118000111102C082E001C083E08093C8013AC11E
:101190008058823008F036C12091C0013091C101E1
:1011A0002C3D53E0350779F583E08A838AE2898311
:1011B0004FB7F894DE01139620E03EE051E2E32FB2
:1011C000F0E050935700E49120FF03C0E295EF70E8
:1011D0003F5FEF708E2F90E0EA3010F0C79601C0AD
:1011E000C0968D939D932F5F243149F74FBF809117
:1011F000E800877F8093E8006AE270E0CE01019604
:101200000E94E406B4C08091C2019091C301432FB3
:10121000552743305105A9F068F44130510509F4D0
:1012200000C14230510509F0EDC08BE590E0E3ECE0
:10123000F1E04BC04132510529F14232510589F1AB
:10124000E1C0C901992781309105A1F058F00297BA
:1012500009F0D8C0E0E3F2E0E4918E2F90E0E0E303
:10126000F2E030C0E2E7F2E0E4918E2F90E0E2E7B6
:10127000F2E028C0E8E4F2E0E4918E2F90E0E8E4A8
:10128000F2E020C08330910508F0BCC0880F991FA0
:10129000FC01E05BFE4F0190F081E02D89E090E0E1
:1012A00014C08330910508F0ADC0FC01EE0FFF1FA4
:1012B000E65BFE4F0190F081E02DDC01A95BBE4FA3
:1012C0008C9190E0009709F49DC02091E800277F61
:1012D0002093E8002091C4013091C50128173907F7
:1012E00008F4C90140E0009789F12091C801222348
:1012F00009F43DC02530D9F12091E80023FD37C025
:101300002091E80022FD2FC02091E80020FFEBCFC4
:101310004091F3002091F20030E0342B009759F017
:101320002830310540F444914093F1003196019703
:101330002F5F3F4FF3CF41E02830310509F040E007
:101340002091E8002E772093E800CDCF4111CDCF3A
:101350000AC08091C801882351F0853041F0809106
:10136000E80083FD04C08091E80082FFF2CF809105
:10137000E8008B778093E80045C0803809F042C0D0
:101380008091E800877F8093E8008091BD01809381
:10139000F1008091E8008E77D3CE811133C0809127
:1013A000C0019091C1019927029764F58091E800EE
:1013B000877F8093E8001091C0011093BD010E94C7
:1013C0009006111106C08091E30087FD02C081E004
:1013D00001C084E08093C80142E061EC81E00E949A
:1013E000AF0642E261EC84E00E94AF0642E261ECAB
:1013F00082E00E94AF0642E260EC83E00E94AF060A
:101400008091C8018091E80083FF10C08091E800BE
:10141000877F8093E8008091EB0080628093EB00EF
:1014200005C082E190E0EEE1F2E04FCFAA96E3E062
:101430000C94DC1D1F920F920FB60F9211242F9364
:101440003F934F935F936F937F938F939F93AF934C
:10145000BF93CF93DF93EF93FF93C091E900CF70D9
:101460008091EC00D82FD17080FDD0E81092E90077
:101470008091F000877F8093F00078940E944D0760
:101480001092E9008091F00088608093F000CD2BED
:10149000CF70C093E900FF91EF91DF91CF91BF91A1
:1014A000AF919F918F917F916F915F914F913F91FC
:1014B0002F910F900FBE0F901F901895E8EDF0E060
:1014C00080818E7F80831092E2001092DA00109269
:1014D000E100A0EEB0E08C9181608C9380818F77E9
:1014E000808319BCA7EDB0E08C918E7F8C938081B6
:1014F0008F7E8083109297010895A0E0B0E0E3E82A
:10150000FAE00C94BB1DC8EDD0E088818F7E888303
:10151000E7EDF0E080818160808384E082BF81E03C
:101520008093970188818E7F888302EE10E0F80116
:1015300010821092DA0081EEC82ED12CF6011082B2
:1015400088818F77888388818068888388818F7D70
:10155000888319BC1092C8011092BD011092BC0181
:101560001092BB0190EEE92EF12CF70180818B7F68
:10157000808388818160888342E060E080E00E940F
:10158000AF06F60180818E7F8083F80180818160C3
:101590008083808188608083F70180818E7F808353
:1015A000888180618883CDB7DEB7E8E00C94D71DD1
:1015B0001F920F920FB60F9211242F933F934F93C8
:1015C0005F936F937F938F939F93AF93BF93EF93AB
:1015D000FF938091E10082FF09C08091E20082FFC9
:1015E00005C08091E1008B7F8093E1008091DA005B
:1015F00080FF2AC08091D80080FF26C08091DA0049
:101600008E7F8093DA008091D90080FF18C080E13E
:1016100089BD82E189BD09B400FEFDCF81E08093E0
:10162000C8018091970181110FC00E945E0A0E943B
:101630007D0A8091E20084608093E20005C019BCBD
:101640001092C801109297018091E10080FF17C0AD
:101650008091E20080FF13C08091E2008E7F809332
:10166000E2008091E20080618093E2008091D800E6
:1016700080628093D80019BC85E08093C801809176
:10168000E10084FF30C08091E20084FF2CC080E143
:1016900089BD82E189BD09B400FEFDCF8091D800EB
:1016A0008F7D8093D8008091E1008F7E8093E10050
:1016B0008091E2008F7E8093E2008091E200816061
:1016C0008093E2008091BD01882311F084E007C07F
:1016D0008091E30087FD02C081E001C083E0809338
:1016E000C8018091C8018091E10083FF27C08091EB
:1016F000E20083FF23C08091E100877F8093E100B7
:1017000082E08093C8011092BD018091E1008E7F3C
:101710008093E1008091E2008E7F8093E2008091CF
:10172000E20080618093E20042E060E080E00E949D
:10173000AF068091F00088608093F000FF91EF91F8
:10174000BF91AF919F918F917F916F915F914F91D9
:101750003F912F910F900FBE0F901F9018952091E1
:10176000E4003091E50095E64091EC00842F817013
:1017700040FF23C08091E80080FD1DC08091C8011A
:10178000882399F0853099F08091EB0085FD11C098
:101790004091E4005091E5002417350729F391505A
:1017A00011F09A01E1CF84E0089582E0089583E08A
:1017B000089581E0089580E008954091E80042FF97
:1017C000DDCF0895EF92FF920F931F93CF93DF9396
:1017D0007C018B010E94AF0B811119C0E70101153B
:1017E0001105A1F08091E80085FD0AC08091E80014
:1017F0008E778093E8000E94AF0B882381F307C0A7
:1018000089918093F10001501109E9CF80E0CDB7B3
:10181000DEB7E6E00C94D91DCF932091C8012430A7
:1018200029F5C091E900CF703091EC00232F217091
:1018300030FD20E8C22B22E02093E9002091E8004F
:1018400020FF11C040E050E060E270E00E94E20B37
:10185000882321F01092C6011092C7018091E80000
:101860008E778093E800CF70C093E900CF91089500
:101870009C013A9521153F4130F5BC0166277270F5
:10188000AC01442754709C012227387094FF0FC08C
:1018900090FF02C080E101C080E0672B09F0806208
:1018A000452B09F08064232B79F080680895892FF7
:1018B0008170672B09F08260452B09F08460232B2F
:1018C00019F08860089580E00895FC0180818130DE
:1018D00041F49185911114C09285992389F082E099
:1018E0000895823041F48185811107C0828581117C
:1018F00006C083E0089586E0089585E0089584E0B9
:101900000895CF93DF93EC010E943F1ACE01805ED1
:101910009109089710F0209731F4CE010E94380CFD
:101920000E942E1A05C0CE010E94380C0E941D1A7A
:10193000DF91CF9108958FE39CE90197F1F700C003
:1019400000008091CD01833021F0853011F081308D
:1019500021F480E390E00E94810C1092CD01089563
:101960008FE39CE90197F1F700C000008091CB0163
:10197000833021F0853011F0813021F48FE290E046
:101980000E94810C1092CB010895CF93DF93EC015C
:10199000805E9109089710F0209731F4CE010E94E3
:1019A000380C0E94351A05C0CE010E94380C0E94E6
:1019B000241A8C2F0E946B1ADF91CF910895CF9338
:1019C000DF93EC010E94C50CC933D10549F42FEF18
:1019D00087EE93E0215080409040E1F700C0000086
:1019E000CE010E94810CDF91CF910895CF93DF93B8
:1019F000EC018881833061F480E390E00E94DF0C89
:101A000080E390E00E94DF0C80E390E00E94DF0C16
:101A10008881843020F080E390E00E94DF0CDF9129
:101A2000CF910895CF93DF93EC018881833061F4E7
:101A30008FE290E00E94DF0C8FE290E00E94DF0CCA
:101A40008FE290E00E94DF0C8881843020F08FE2EA
:101A500090E00E94DF0CDF91CF9108950E94650C09
:101A60008093CD01823049F018F4813099F00895C7
:101A7000833039F0853051F0089584E00E94C11917
:101A8000089580E390E00E94C50C04C080E390E0DC
:101A90000E94DF0C80E390E00E94C50C08950E9434
:101AA000650C8093CB01823049F018F4813099F0B5
:101AB0000895833039F0853051F0089582E00E9416
:101AC000C11908958FE290E00E94C50C04C08FE216
:101AD00090E00E94DF0C8FE290E00E94C50C089518
:101AE000A7E1B0E0E6E7FDE00C94C01D4B8B5C8BFA
:101AF0006D8B7E8B8F8B61111092B30286E09E01FD
:101B0000235F3F4FD901E82F1D92EA95E9F795E051
:101B1000FE017396D90101900D929A95E1F79C8987
:101B20004E895F897B897D879E876F87598B488B1C
:101B3000F901DE01179601900D928A95E1F7CE0129
:101B400007960E94D11781113EC086E0FE013796AC
:101B5000DE01119601900D928A95E1F7FF81E885EB
:101B60006A857B856115710531F0EF3F31F481E0C5
:101B7000FF3F19F403C081E001C080E080FD23C075
:101B80002091F40130E0C9010196877099274091B6
:101B9000250250E08417950779F1F983EA837D8364
:101BA0006C8396E0929FD001939FB00D1124AB50AF
:101BB000BE4FFE01319601900D929A95E1F7809308
:101BC000F4010E94F21216E0809125029091F40136
:101BD000891709F1189FC00111248B509E4F0E9454
:101BE000D1178823C1F08091250290E0019687707B
:101BF000992780932502E8CF109298010E94091A34
:101C00001092F40110922502EEEEF1E086E0DF0181
:101C10001D928A95E9F76796E3E00C94DC1D982FF6
:101C200092959F7019F0892F24E001C020E0982F31
:101C30009695969511F02E5F892F982F969509F01D
:101C40002F5F822F0895109298010E94091A2FEF9A
:101C500084E39CE0215080409040E1F700C0000008
:101C60009AE088E10FB6F894A895809360000FBEC3
:101C700090936000FFCFCF93C82F0E940F0E56980D
:101C80005E9825982D9826982E9827982F9890E062
:101C9000FC013197E730F105A8F4E459FF4F0C94AB
:101CA000131F259A2D9A0EC0259A2D9A269A2E9AA0
:101CB00009C0259A2D9A04C0259A2D9A269A2E9A03
:101CC000279A2F9A8C2FCF91089580E290E09093DD
:101CD0001801809317018091C90181110EC00E94E3
:101CE000C91C81E08093C9012FEF83ED90E321505F
:101CF00080409040E1F700C0000064E670E080E4BE
:101D00000E94CF1C9093180180931701892B09F032
:101D10004EC064E670E080E00E94441D909318017C
:101D200080931701892B09F042C064E670E080E0DF
:101D30000E94441D9093180180931701892BB9F5D7
:101D400064E670E08FE30E94441D90931801809335
:101D50001701892B61F50E94991D64E670E080E40B
:101D60000E94CF1C9093180180931701892BF9F4DE
:101D700064E670E08CE00E94441D9093180180930B
:101D80001701892BA1F464E670E080E00E94441DF5
:101D90009093180180931701892B49F464E670E051
:101DA0008FE30E94441D90931801809317010E94B5
:101DB000991D809117010895CF93DF9356985E98EF
:101DC00025982D9826982E9827982F98C8E8D0E027
:101DD0008FEF90E099838883AAE8B0E011969C93F6
:101DE0008E93ECE8F0E091838083259A2D9A2FEF73
:101DF00080E792E0215080409040E1F700C0000071
:101E0000269A2E9A2FEF80E792E021508040904052
:101E1000E1F700C00000279A2F9A2FEF80E792E0A9
:101E2000215080409040E1F700C0000025982D9897
:101E30002FEF80E792E0215080409040E1F700C012
:101E4000000026982E982FEF80E792E021508040E6
:101E50009040E1F700C0000027982F98809153022E
:101E600087702FEF829FC0011124959587959595D6
:101E7000879599279983888311969C938E93918354
:101E8000808356985E9825982D9826982E982798A6
:101E90002F98DF91CF910895CF93E82F873080F569
:101EA0008091170190911801892B09F047C0CE2F1E
:101EB00064E670E080E40E94CF1C90931801809348
:101EC0001701892BD1F464E670E082E10E94441D81
:101ED0009093180180931701892B79F481E090E0A9
:101EE00001C0880FCA95EAF764E670E080950E9409
:101EF000441D90931801809317010E94991D1EC0E4
:101F000090E0FC013797E730F105C0F4ED58FF4F42
:101F10000C94131F209A289811C0219A29980EC05A
:101F2000229A2A980BC0239A2B9808C0529A5A9842
:101F300005C0539A5B9802C03E9A4698CF91089587
:101F4000209828982198299822982A9823982B98A5
:101F500052985A9853985B983E9846980895CF9314
:101F6000873040F58091170190911801892B59F520
:101F700064E670E081E40E94CF1C90931801809386
:101F80001701892B11F0C0E011C084E690E00E9497
:101F9000741D97FF05C09093180180931701F3CF2C
:101FA000C82FC09510921801109217010E94991D18
:101FB0008C2F0AC09FB18FB1807F869586959370D4
:101FC000892B809501C080E0CF9108958098889AF0
:101FD0008198899A84988C9A85988D9A86988E9AF9
:101FE00087988F9A089580E008959091BF0292FF9C
:101FF0000DC0282F2871283019F4877F846006C00F
:10200000282F2471243011F48B7F886093FF0DC03A
:10201000282F2871283119F4877E846106C0282F63
:102020002471243111F48B7E88612091C00220FF3D
:102030000DC0382F3871383019F4877F816006C0A1
:10204000382F3171313011F48E7F886021FF0DC03F
:10205000282F2871283119F4877E816106C0282F26
:102060002171213111F48E7E886194FD877E08955F
:102070007E30A0F4663090F494E5899FF00111243D
:1020800086E0789FE00DF11D1124E60FF11DEE0FA3
:10209000FF1FEA58FD4F85919491089580E090E0EC
:1020A0000895CF93DF938238910569F1B0F48133BD
:1020B000910509F46FC048F48932910509F465C0AF
:1020C0008A32910509F46BC08AC08533910509F401
:1020D00057C089339105B9F082C0833E910571F1F3
:1020E00038F4803E9105B1F0823E910511F177C040
:1020F000863E9105B9F1873E9105C9F1843E91056F
:1021000009F06DC024C02091BF0220FD53C021FD05
:1021100051C065C08091BF0280FD46C08091C00261
:1021200080FF48C08091BF0284FD3FC183EE90E0F4
:102130003EC18091BF0282FF3AC0F4CF8091BF02BE
:1021400082FD35C08091C00280FD34C0EBCF80910C
:10215000C00281FF35C08091BF0284FD26C187EE99
:1021600090E025C18091BF0283FF27C0F4CF80910A
:10217000BF0283FD22C08091C00281FD21C0EBCF50
:102180008091BF0285FD1FC021C08091BF0285FDE7
:102190001DC019C08091BF0286FD1BC01DC080916B
:1021A000BF0286FD19C015C089E390E000C182EE30
:1021B00090E0FDC080EE90E0FAC086EE90E0F7C0BF
:1021C00084EE90E0F4C089E290E0F1C085E390E015
:1021D000EEC08AE290E0EBC081E390E0E8C08115B8
:1021E00032E5930708F069C0811541E5940728F0AE
:1021F000982F8827816F906ADAC0883E910568F52C
:10220000803E910508F0D3C0883A9105B8F4853A2C
:10221000910548F0855AE82FF0E0EA5AFE4F808198
:1022200090E09064C4C08130910509F4BBC008F40B
:10223000BCC08430910508F4B8C0B9C08F3B91058B
:1022400008F0B3C0885AE82FF0E0EE0FFF1FE75AFE
:10225000FE4F808191819464AAC0811520E5920788
:10226000F0F09C0174E0369527957A95E1F7922F6E
:102270009370482F437021E030E002C0220F331FDB
:102280004A95E2F73C68392B8F70982F9695969572
:1022900040E2949FC0011124822B932B88C08115AA
:1022A00030E4930718F09F70906A81C09C013A95C2
:1022B00021153F4108F47BC078C0EC01C11586E5CB
:1022C000D807E8F5C11525E5D20748F08C2F0E9404
:1022D000F50F8F7190E0982F8827906268C0C11524
:1022E00034E5D30728F09C2F8827846F906A5FC05D
:1022F000AE01437055272C2F26952695C115D34541
:1023000078F481E090E002C0880F991F4A95E2F7C7
:1023100040E2249F90011124822B932B9C6847C09C
:1023200081E090E002C0880F991F4A95E2F740E2F1
:10233000249F90011124822B932B9A6838C0C115D9
:102340002AE5D207F8F4C11539E5D30790F08C2FB0
:102350008F700E94F50F94E0D695C7959A95E1F796
:10236000CF70D0E0DC2FCC27D0699E01282BC9018B
:102370001EC0C11548E5D407C0F09C2F8827806F88
:10238000906A15C0CE0190568115904270F48D2F41
:102390008F710E94F50F282F2F71CE01992790621F
:1023A000922B05C081E090E002C080E090E0DF91D8
:1023B000CF91089568EE7EEF80E090E00E94961E37
:1023C00060E082E090E00E94781E60E083E090E0B0
:1023D0000E94781E1092480260E084E090E00E9423
:1023E000781E64E082E290E00E94781E60E085E062
:1023F00090E00E94781E60E086E090E00E94781EE7
:102400006FEF87E090E00E94781E40E050E0BA0154
:1024100088E090E00E948A1E60E08DE090E00E94DB
:10242000781E40E050E0BA0188E190E00E948A1EE8
:1024300060E087E190E00E94781E40E050E0BA0141
:102440008CE190E00E948A1E60E070E080E290E003
:102450000E94961E40E050E0BA0188E190E00E94A0
:102460008A1E10925302109254021092550210923A
:10247000560284E0809353024091530250915402DB
:1024800060915502709156028FE090E00E948A1E82
:1024900040E050E0BA0183E190E00E948A1E089576
:1024A0008091470281111092470208958095909182
:1024B000B30289238093B302089580959091980187
:1024C0008923809398010895909198018091B30297
:1024D000982B9093CE01809147028823D9F0892BC5
:1024E0008093CE0180910A01882331F08091BF0250
:1024F00087FF02C08EE101C086E0E0EDF1E090E0F0
:10250000815028F021912223D9F39F5FF9CF9111B7
:102510000E94501240E250E067E272E08EEC91E0DF
:102520000E943A20892B21F180E2EEECF1E0A7E253
:10253000B2E001900D928A95E1F7E091B602F09138
:10254000B7023097A9F080910A01882359F0809151
:10255000BF0287FF07C08091CE018093CF0186E044
:102560008093CE010280F381E02D8EEC91E00995FD
:102570000895209126028095822380932602982F29
:10258000977099F430E0482F082E000C550B241753
:10259000350759F09091C00292FF07C08595859547
:1025A00085950E94EB19109226020895CF93C09151
:1025B000C002C2FB992790F9981791F080FBC2F9ED
:1025C000C093C0026091BF0284E090E00E94781E38
:1025D0006C2F82E290E00E94781E82E00E94B91285
:1025E000CF910895809125029091F401891719F0F7
:1025F0008F5F8770FBCF08950F931F93CF93DF9367
:102600008091F30182958F7009F05AC08091F0019A
:10261000882309F455C0809125021091F40160913E
:10262000EE017091EF01C091F101D091F20191E0C2
:102630006F3F09F090E0292F06E0811709F440C0B0
:10264000209721F07F3F21F030E003C031E001C04E
:10265000322F90E030FD31C0089FF001099FF00D4E
:102660001124DF01AB50BE4F11963C9111973713E7
:1026700024C03C91361321C012963C91129731111F
:102680001CC013964D915C9114974C1B5D0B483CFC
:10269000510598F48091F3018F7080618093F3016C
:1026A000E650FE4F80818F70806180838EEE91E0D6
:1026B0000E9456020E94F21203C001968770BDCF9D
:1026C000DF91CF911F910F910895A0E0B0E0EBE66C
:1026D000F3E10C94BA1D8091170190911801892B98
:1026E00091F0809149028F5F8093490281110BC064
:1026F0000E94650E90E09093180180931701892B3A
:1027000011F40E94DC0E07E512E07801B12CC0E064
:1027100087E0C82ECC0E8C2F0E944C0F8C2D0E946F
:102720004C0F8C2F0E94AF0F8F73F7019081891788
:1027300021F08083DD24D39401C0D12C8C2D0E9404
:10274000AF0F8F73F7019781891719F0878381E0A5
:1027500001C080E0D82ABD280E94A00FCF5FFFEF04
:10276000EF1AFF0AC730A1F6C0914D02CC23C9F180
:102770000E94AF1B20914B0230914C02AC01421BD6
:10278000530B9A0190934C0280934B024F3F51059B
:1027900009F020F4452B09F4B0C002C02FEF30E05F
:1027A00010924D0210924A02E0915102F0915202B1
:1027B000AF01425F5F4F90E030E08081882341F0BD
:1027C000281718F010829C2F03C0821B80833C2F97
:1027D0003196E417F50789F730934D0290934A023A
:1027E0008CC0BB2009F480C00E94AF1B90934C02A8
:1027F00080934B02E0915102F091520280914D0280
:10280000A6E6B2E09F01225F3F4F4EE1E8019991B9
:102810008E015C91591731F05081511103C04083F2
:102820009C9381E031961196E217F30779F7809334
:102830004D022091C60180914F02909150022223B7
:10284000C9F1892B31F425982D9826982E98279830
:102850002F9880914F02909150029170892B79F4BA
:1028600080914E02882319F026982E9802C0269A4D
:102870002E9A90914E0281E0892780934E0280919A
:102880004F02909150028130984750F01092C6014B
:10289000809165020E943B0E1092500210924F02EE
:1028A00080914F0290915002019690935002809334
:1028B0004F020AC0892B41F01092500210924F0231
:1028C000809165020E943B0E0E94381C81FF03C06C
:1028D000279A2F9A16C0809165020E940F0E8330AE
:1028E00081F027982F980DC080E090914A0299239B
:1028F00009F49FCF81117ECF77CFB1107BCF81E0DC
:10290000F4CF8B2DCDB7DEB7E9E00C94D61DACE546
:10291000B0E0EDE8F4E10C94B61D85B7806885BFA2
:1029200085B7806885BF84B7877F84BF0FB6F8946A
:10293000A89580916000886180936000109260008B
:102940000FBE90E080E80FB6F894809361009093FA
:1029500061000FBE83EF9FE09093950180939401F7
:102960000E945E0A0E947D0A8091E200846080934A
:10297000E20078948091C8018823A1F01091E900C9
:102980001F709091EC00892F817090FD80E8182BCA
:102990001092E9008091E80083FD0E944D071F70AE
:1029A0001093E90082E084BD93E095BD9AEF97BD56
:1029B00080936E000E94650E90E0909318018093C2
:1029C00017010E94A00F0E94E60FE7E5F2E0A6E6DD
:1029D000B2E011921D9222E0E536F207D1F78EE0C7
:1029E00090E00E94191F8093510290935202FC01C3
:1029F0000E961192E817F907E1F789EA80938000B3
:102A000089E08093810024982C983F988AB18F7C2C
:102A10008AB96E98479A8BB180638BB9769A8FE0AA
:102A200090E00E945C1E6093530270935402809366
:102A300055029093560267708FEF689FB001112482
:102A4000759567957595679577277093890060935D
:102A5000880070938B0060938A0070938D00609360
:102A60008C000E94DC0E80E090E00E94621E883E96
:102A70009E4F11F00E94DA1182E090E00E94541EF5
:102A80008093740284E090E00E94541E182F82E22A
:102A900090E00E94541E212F30E0382B3093C0026A
:102AA0002093BF0283E090E00E94541E0E94041A0B
:102AB000809165020E943B0E8BE091E09093B702FB
:102AC0008093B60228E1C22ED12C30E4E32E80910F
:102AD000C801853009F054C000E112E18091C801BD
:102AE000853009F047C08091C801843009F1109207
:102AF000BA020FB6F894A895C09260000FBEE0929B
:102B0000600083B7817F846083BF83B7816083BFA8
:102B10007894889583B78E7F83BF0FB6F894A89575
:102B200080916000886180936000109260000FBE09
:102B30008091BC01882391F20E94650E90E09093F1
:102B40001801809317010E94A00F0E94E60FE6E68D
:102B5000F2E0119222E0E437F207D9F70E94651300
:102B6000E6E6F2E0819181119BC182E0E437F8074B
:102B7000C9F7B4CF109298010E94091A0E94381C1C
:102B80000E946513882359F08FB7F8944091BB02D7
:102B90005091BC026091BD027091BE028FBFE5E70B
:102BA000F2E0A6E6B2E000E010E0302F2D91919126
:102BB0009227A1F180E0FF24F394492F4F2151F196
:102BC00064968FAF649765963FAF65972F2181E03C
:102BD00009F480E066968FAF66970E94AF1B816014
:102BE000782F68969FAF8EAF689764964FAD6497C5
:102BF00065965FAD659766966FAD669768968FAD83
:102C000068970E94700DF801EB58FD4F8081F826FF
:102C1000F0822AC08F5FFF0C863079F60F5F1F4F5E
:102C20000E30110509F0C1CF8FEF69968FAF69970C
:102C30006A968FAF6A976B961FAE6B970E94AF1B19
:102C40008160782F6D969FAF8EAF6D9769964FAD6F
:102C500069976A965FAD6A976B966FAD6B976D9645
:102C60008FAD6D970E94700D8091190190911A019E
:102C7000019641F1F12C96E1792E1BC07A9CF0016E
:102C80007B9CF00D1124E55EFE4F828893888114B1
:102C9000910419F488EC882E912C7A9C80017B9CFD
:102CA000100D1124055E1E4FF8018681811113C09D
:102CB000F394AF2CB12C8091190190911A018A15CF
:102CC0009B05E4F60E94381C909183028917D9F085
:102CD0008093830218C0858596850E94A01B881664
:102CE000990630F7F8018189811103C0C8010E945B
:102CF000451C7A9CC0017B9C900D11248F5D9E4FDA
:102D00000E94641CD5CF8091C801843009F0DFCEC9
:102D100083E08093E9008091E80082FFD8CE809123
:102D2000E80085FF22C00E94AF0B81111CC000E2A9
:102D300010E05E01F1E2AF0EB11C08C08091F1001D
:102D4000F50181935F010150110969F08091E8005C
:102D500085FDF4CF8091E8008B778093E8000E9496
:102D6000AF0B882399F391E001C090E08091E800D7
:102D70008B778093E800992309F4A9CE89A181304B
:102D8000E9F158F1823021F0843009F47DC09FCE02
:102D90008BA19AA190938402809385028DA19CA11E
:102DA00090938602809387028FA19EA190938802C0
:102DB0008093890242E150E063E270E0CE018F5BD4
:102DC0009F4F0E94441E84E0898381E08093C70165
:102DD0008EEF8A831092C6010CC019828CE0E7E85E
:102DE000F1E0DE01129601900D928A95E1F78EEFE7
:102DF0008D87CE0101960E940C0C69CE0AE812E084
:102E00000E94A91CF801819391938F01F2E000398F
:102E10001F07B1F781E0898390918A029A8390918C
:102E20008B029B8390918C029C8390918D029D8359
:102E300090918E029E8390918F029F839EEF988740
:102E40008093C601CE0101960E940C0C42E150E035
:102E500063E270E0CE0101960E94441EFE013196AD
:102E600082E183301CF09189928B01C0128A8150DB
:102E700031978F3FB1F742E150E063E270E0CE015D
:102E800001960E94681E23CE8091C701882309F411
:102E90001ECE80E00E94C1198AA10E94F81917CEA7
:102EA00009BD19BD09B400FEFDCF8091D8008F7D0A
:102EB0008093D8008091E00082608093E000809150
:102EC000E00081FDFCCF109298010E94091A06CE05
:102ED00080E090E00E94221C80E090E00E940C1CA8
:102EE0001092B3020E9464120895CF92DF92FF9273
:102EF0000F931F93CF93DF936C0100916502809134
:102F00004802082BC7E0D0E010E0C8010C2E02C038
:102F1000959587950A94E2F780FD04C02197A8F75C
:102F2000F12C09C0FC2EB6018C2F0E9438100E9493
:102F30005110019799F38F2DDF91CF911F910F9130
:102F4000FF90DF90CF900895CF93DF93EC010E9424
:102F50007517BE010E9438100E945110DF91CF9169
:102F60000895FC01808191810E94A41792959F7021
:102F7000963079F010F4925001C09A50923068F473
:102F8000803F69F018F4883E40F409C0843F29F47A
:102F900006C0883E20F0813F11F080E0089581E076
:102FA0000895A1E1B0E0E7EDF7E10C94B81D8C01C4
:102FB00085E0F801DE011D9601900D928A95E1F7FA
:102FC000F801E2809091EE016091EF014091F101F2
:102FD0005091F2014115510531F06F3F31F481E01C
:102FE0009F3F19F403C081E001C080E0F82FF17029
:102FF0009F2E80FD1BC1F80130812181C380D480C8
:103000008EEEA82E81E0B82EF090F001F601E41BC0
:10301000F50BFF2009F4C7C08091F301E83CF105EE
:1030200008F092C0482F407F09F051C0621311C0D0
:1030300093130FC0FE2CE1100CC08F708061809341
:10304000F301C5010E9456028091F301F8018583C6
:103050002AC1C114D10431F02F3F31F481E03F3F48
:1030600019F403C081E001C080E080FD03C081E06D
:103070008E2502C080E090E0F82FF170FF2E80FFD7
:103080001CC0809125024091F40156E0841709F498
:10309000E8C090E0589FF001599FF00D1124EB50CB
:1030A000FE4F6181261306C06081631303C06281F5
:1030B000E61203C001968770E9CFFE2CEE2009F4DA
:1030C000F2C08091F30181608093F30149C06213E3
:1030D00006C0931304C0E11002C0F80186C0C80105
:1030E0000E94B117882351F1EE2041F12091F301A4
:1030F000822F82958F7090E0029774F08091EE019C
:103100009091EF0198878F831986DB86CA862C877A
:10311000CE0107960E94560286E0F801AEEEB1E0BD
:1031200001900D928A95E1F70E94FC120AC0621785
:10313000C9F0C8010E94B11781111EC0C8010E94C8
:103140005602FF24F394AFC0482F407F81F78EEEE4
:1031500091E00E94560286E0F50111928A95E9F706
:10316000F12CA1C09313E5CFE110E3CFF8018583E3
:10317000C8010E94560254C0EE2001F32091F301D1
:10318000822F82958F7090E0029734F28091EE0149
:103190009091EF019A8389831B82DD82CC822E83FA
:1031A000CE010196B7CFE83CF105D0F5FE2CEE201C
:1031B00029F2621327C0931325C02091F30120FD4B
:1031C00018C0822F82958F70482F50E0411551050D
:1031D00081F0F80125834F30510541F08F5F982F22
:1031E0009295907F822F8F70892B8583C8010E94D2
:1031F000560286E0F801AEEEB1E001900D928A959C
:10320000E1F751C0C8010E94B117811185CF8091AB
:10321000F30181608093F301C8010E94560243C00C
:1032200086E0F50111928A95E9F73DC0EE2009F498
:1032300085CFC8010E94B117F82E882309F47ECFEC
:1032400086E0F801AEEEB1E001900D928A95E1F7CB
:103250008091EE019091EF010E94A4170E94FC1250
:1032600022C03D872E878D859E850E94A417292F19
:1032700022952F70223028F49F7039F0811105C0FB
:103280000BC0243028F49F7049F4805E883020F011
:10329000C8010E9456029F2CF92C05C0F8019581A7
:1032A000907F99F7F9CF8F2D6196EBE00C94D41DA8
:1032B000292F9E3078F5863068F590E036E0239F20
:1032C000800D911D1124682F677023E096958795D6
:1032D0002A95E1F7FC01EE0FFF1FE80FF91FE057F9
:1032E000FD4F40E050E080E0219130E0062E02C02A
:1032F000369527950A94E2F721703327042E01C0F2
:10330000220F0A94EAF7822B4F5F5F4F433051053B
:1033100059F7089580E00895292F9E3088F586306A
:1033200078F590E036E0239F800D911D1124282F21
:10333000277051E001C0550F2A95EAF723E09695D2
:1033400087952A95E1F7FC01EE0FFF1FE80FF91FA3
:10335000E057FD4F20E030E070E04081CB01022ECD
:1033600002C0969587950A94E2F78170819584272B
:103370008523842781932F5F3F4F2330310569F7E1
:103380000895A0E2B0E0E7ECF9E10C94C01D0E94C2
:103390003B0E182F8091C7018823A9F02FEF80E7FB
:1033A00092E0215080409040E1F700C0000085E0AD
:1033B0008983812F0E940F0E8A838EEF8B83CE012B
:1033C00001960E940C0C109365020E946817A0964B
:1033D000E3E00C94DC1D21E030E001C0220F8A956F
:1033E000EAF720958091650282230E94C119089511
:1033F00021E030E001C0220F8A95EAF78091650252
:10340000822B0E94C1190895809348020E94681778
:10341000089580910A01882331F08091BF0287FFCF
:1034200002C08EE101C086E0E0EDF1E0DF011D9217
:103430008A95E9F70E9468170895882321F00E9471
:1034400056120E9464120895882339F09091B302B5
:10345000892B8093B3020E9464120895882321F07F
:103460000E945D120E9464120895882339F09091A1
:103470009801892B809398010E94641208958823F3
:1034800049F1682F8CEF860F813A28F48EEC91E099
:103490000E94E41B0CC080E2860F883058F46770ED
:1034A00081E001C0880F6A95EAF70E945D120E94D0
:1034B000641208958BE5860F833028F480E090E055
:1034C0000E94221C0895685A673120F480E090E041
:1034D0000E940C1C0895CF93882309F49AC0C82F2A
:1034E0008CEF8C0F813A08F05EC080910A0188232E
:1034F000E1F08091BF0287FF18C0EC2FE695E695BA
:10350000E695F0E0E253FE4F8281282F30E04C2F09
:10351000477081E090E002C0880F991F4A95E2F75A
:1035200082239323892B59F411C0E0EDF1E08191BE
:10353000C81729F081E0E63DF807C9F707C06C2FEE
:103540008EEC91E00E94E41B0E94641280910A01BB
:103550008823C9F08091BF0287FF15C0AC2FA695C4
:10356000A695A695B0E0A253BE4FC77081E090E04B
:1035700001C0880FCA95EAF712969C911297892B81
:1035800012968C9320C0A0EDB1E0EFEF80E09D910A
:10359000C917C9F0EF3F19F4911101C0E82F8F5FEF
:1035A0008630A9F72DC080E28C0F883078F4C77080
:1035B00081E090E001C0880FCA95EAF790919801E8
:1035C000892B809398010E94641223C0EBE5EC0FD5
:1035D000E33040F4F0E0EA5AFE4F808190E00E9430
:1035E000221C17C0C85AC731A0F4EC2FF0E0EE0F30
:1035F000FF1FE75AFE4F808191810E940C1C09C079
:10360000EF3F09F30E2E000CFF0BE253FE4FC28377
:10361000DACFCF910895089580919A010895CF93BC
:10362000DF9320910A01222339F02091BF0227FF66
:1036300003C060E224E002C068E021E02093E900DA
:103640002FEF3091E800215035FD06C035ED3A9559
:10365000F1F700002111F5CF2091E80025FF1DC0F2
:10366000EC0180910A01811105C040E050E068E062
:1036700070E003C070E040E050E0CE010E94E20B39
:103680008091E8008E778093E80080E2FE01ABE94C
:10369000B1E001900D928A95E1F7DF91CF91089505
:1036A0008093C1027093C3026093C2028091C801EB
:1036B0008430F9F48093E9008FEF9091E800815015
:1036C00095FD06C095ED9A95F1F700008111F5CFB3
:1036D0008091E80085FF0DC040E050E063E070E0BD
:1036E00081EC92E00E94E20B8091E8008E7780935B
:1036F000E800089578941F920F920FB60F9211244C
:103700008F939F93AF93BF938091BB029091BC0224
:10371000A091BD02B091BE020196A11DB11D809382
:10372000BB029093BC02A093BD02B093BE02BF91B6
:10373000AF919F918F910F900FBE0F901F90189592
:103740009C014FB7F8948091BB029091BC02A0916C
:10375000BD02B091BE024FBF821B930B08952FB7DD
:10376000F8948091BB029091BC02A091BD02B091EF
:10377000BE022FBF08951F920F920FB60F92112411
:103780008F939F93AF93BF938091BA02811113C01F
:103790008091BB029091BC02A091BD02B091BE028B
:1037A0004196A11DB11D8093BB029093BC02A093D2
:1037B000BD02B093BE02BF91AF919F918F910F90C8
:1037C0000FBE0F901F90189520910A012223C9F077
:1037D0002091BF0227FF15C0262F269526952695F6
:1037E0002E31C8F4FC01E20FF11D677081E090E01A
:1037F00001C0880F6A95EAF78095928189238283B8
:103800000895FC0106962281621301C0128231964E
:10381000E817F907C1F708952091B8023091B9026D
:103820002817390771F09093B9028093B802E0919C
:10383000B602F091B702309721F00084F185E02DB7
:10384000099508952091B4023091B50228173907DF
:1038500071F09093B5028093B402E091B602F091BA
:10386000B702309721F00680F781E02D0995089581
:10387000E091B602F091B702309729F00190F08103
:10388000E02D0995089580E00895CF93DF93EC0132
:1038900081E0898B909198018F81892B8093980189
:1038A0009091B3028885892B8093B3020E946412A1
:1038B000EA81FB81CE010696309719F06C897D89EB
:1038C0000995DF91CF910895EF92FF920F931F9387
:1038D000CF93DF93FC012285211136C0EC01E380F8
:1038E000F480F7E5FF1A26E12E9DC0012F9D900D73
:1038F0001124DC01A55EBE4F1496ED91FC91159745
:103900008F5D9E4F309729F054966D917C9155971D
:10391000099586E18E9D80018F9D100D1124055E15
:103920001E4FF80187810E945D12F80180850E9478
:1039300056120E946412188219861B861E821D82EE
:103940001092B2021092B102CDB7DEB7E6E00C944D
:10395000D91DCF93DF930E94341E66E070E00E9471
:10396000FF1ED82F0E94341E6EE070E00E94FF1EE2
:10397000C82F6D2F782F80E00E9438100497C597CC
:1039800018F48D2F9C2F02C00E94A91CDF91CF91AB
:1039900008951092B9008CE08093B8000895A0E0DB
:1039A000B0E0E5EDFCE10C94B81DB82EEB010E94EF
:1039B000AF1B6C01C431D10558F0CF3F8FEFD80752
:1039C00059F0CE0164E170E00E949D1D7B0107C0AB
:1039D000EE24E394F12C03C025E0E22EF12C84E8E0
:1039E000A82E94EA992E1092BC009092BC000E94DE
:1039F000AF1B8C018091BC0087FD08C00E94AF1BEB
:103A0000801B910B8E159F05A8F32AC08091B900E9
:103A1000887F883041F08091B900887F803119F02B
:103A20000FEF1FEF1FC0B092BB00A092BC000E941E
:103A3000AF1B8C018091BC0087FD08C00E94AF1BAA
:103A4000801B910B8E159F05A8F30AC08091B900C9
:103A5000887F883111F0803419F700E010E00EC043
:103A60000EEF1FEFCF3F8FEFD80709F4BCCFC60191
:103A70000E94A01B8C179D0708F4B5CFC801CDB7D5
:103A8000DEB7EBE00C94D41D0F931F93CF93DF931D
:103A9000EB018093BB0084E88093BC000E94AF1BC5
:103AA0008C018091BC0087FD0EC0CF3F8FEFD807FF
:103AB000C1F30E94AF1B801B910B8C179D0788F3ED
:103AC0008EEF9FEF0CC02091B900287F81E090E03D
:103AD000283211F480E090E0919581959109DF9171
:103AE000CF911F910F9108950F931F93CF93DF9361
:103AF000EC0184E88093BC000E94AF1B8C01809194
:103B0000BC0087FD0EC0CF3F8FEFD807C1F30E94E6
:103B1000AF1B801B910B8C179D0788F38EEF9FEFD7
:103B200003C08091BB0090E0DF91CF911F910F9176
:103B3000089584E98093BC000895AA1BBB1B51E142
:103B400007C0AA1FBB1FA617B70710F0A61BB70B0D
:103B5000881F991F5A95A9F780959095BC01CD01B2
:103B600008952F923F924F925F926F927F928F9221
:103B70009F92AF92BF92CF92DF92EF92FF920F93FC
:103B80001F93CF93DF93CDB7DEB7CA1BDB0B0FB606
:103B9000F894DEBF0FBECDBF09942A8839884888C3
:103BA0005F846E847D848C849B84AA84B984C88459
:103BB000DF80EE80FD800C811B81AA81B981CE0F50
:103BC000D11D0FB6F894DEBF0FBECDBFED01089535
:103BD0008F929F92AF92BF92CF92DF92EF92FF921D
:103BE000CF93DF93EC01688179818A819B81611594
:103BF00071058105910521F464E279ED8BE597E08B
:103C00002DE133EF41E050E00E949C1E49015A0132
:103C10009B01AC01A7EAB1E40E94BB1E6B017C01D1
:103C2000ACEEB4EFA50194010E94C91EDC01CB01EA
:103C30008C0D9D1DAE1DBF1DB7FF03C00197A109CF
:103C4000B04888839983AA83BB839F77DF91CF9104
:103C5000FF90EF90DF90CF90BF90AF909F908F90AC
:103C600008950E94E81D089580E091E00E94E81DFB
:103C70000895A0E0B0E08093000190930101A0932B
:103C80000201B09303010895DC01CB01FC01F99915
:103C9000FECF06C0F2BDE1BDF89A319600B40D9298
:103CA00041505040B8F70895F999FECF92BD81BDBB
:103CB000F89A992780B50895A6E1B0E044E050E075
:103CC0000C94461EA8E1B0E042E050E00C94461E81
:103CD000DC01A40FB51F4150504048F0CB01840FC8
:103CE000951F2E910E94791E41505040D0F70895A3
:103CF000262FF999FECF92BD81BDF89A019700B4A5
:103D0000021639F01FBA20BD0FB6F894FA9AF99A44
:103D10000FBE08950396272F0E94791E0E94781ED9
:103D2000252F0E94791E242F0C94791E0196272F8F
:103D30000E94791E0C94781E052E97FB1EF40094A9
:103D40000E94B31E57FD07D00E94CE1E07FC03D071
:103D50004EF40C94B31E50954095309521953F4FED
:103D60004F4F5F4F089590958095709561957F4F67
:103D70008F4F9F4F08950E94F01EA59F900DB49FF6
:103D8000900DA49F800D911D11240895B7FF0C94F0
:103D9000BB1E0E94BB1E821B930B0895A1E21A2E2C
:103DA000AA1BBB1BFD010DC0AA1FBB1FEE1FFF1FDF
:103DB000A217B307E407F50720F0A21BB30BE40B2F
:103DC000F50B661F771F881F991F1A9469F7609576
:103DD0007095809590959B01AC01BD01CF01089530
:103DE000A29FB001B39FC001A39F700D811D11243C
:103DF000911DB29F700D811D1124911D089597FB97
:103E0000072E16F4009407D077FD09D00E949D1D5F
:103E100007FC05D03EF4909581959F4F08957095CD
:103E200061957F4F0895EE0FFF1F0590F491E02DEF
:103E300009940F931F93CF93DF938230910510F471
:103E400082E090E0E091C602F091C70220E030E00D
:103E5000A0E0B0E0309719F14081518102811381D7
:103E600048175907C8F08417950769F4109731F07F
:103E700012960C93129713961C9327C00093C602B8
:103E80001093C70222C02115310519F042175307BC
:103E900018F49A01BD01EF01DF01F801DBCF211514
:103EA0003105F9F0281B390B2430310580F48A8163
:103EB0009B816115710521F0FB019383828304C00E
:103EC0009093C7028093C602FE01329644C0FE0161
:103ED000E20FF31F81939193225031093983288394
:103EE0003AC02091C4023091C502232B41F42091A5
:103EF0000601309107013093C5022093C40220913E
:103F00000401309105012115310541F42DB73EB76B
:103F10004091080150910901241B350BE091C40226
:103F2000F091C502E217F307A0F42E1B3F0B2817F0
:103F3000390778F0AC014E5F5F4F2417350748F022
:103F40004E0F5F1F5093C5024093C402819391931B
:103F500002C0E0E0F0E0CF01DF91CF911F910F911F
:103F60000895CF93DF93009709F481C0FC01329745
:103F700013821282A091C602B091C702109781F4F9
:103F800020813181820F931F2091C4023091C5029C
:103F90002817390751F5F093C502E093C40267C0B2
:103FA000ED0120E030E0CE17DF0740F44A815B816D
:103FB0009E0141155105F1F0EA01F5CFD383C2838B
:103FC00040815181840F951FC817D90759F4888102
:103FD0009981840F951F0296918380838A819B81AA
:103FE000938382832115310529F4F093C702E0936E
:103FF000C6023DC0E901FB83EA8349915991C40F90
:10400000D51FEC17FD0761F480819181840F951F06
:104010000296E90199838883828193819B838A83B5
:10402000E0E0F0E012968D919C911397009719F0C3
:10403000FD01DC01F7CF8D919C9111979D012E5FC1
:104040003F4F820F931F2091C4023091C502281761
:10405000390769F4309729F41092C7021092C6020A
:1040600002C013821282B093C502A093C402DF91F2
:10407000CF910895FB01DC0104C08D91019080195E
:1040800021F441505040C8F7881B990B0895F894CB
:02409000FFCF60
:10409200010000000000C8022000010C1B0F1B0BD6
:1040A2001B4807430742072000FFFF120D4F0DB0C8
:1040B2000C000000000000000000000000000000F2
:1040C20000F60C2E0D9B0C0000000000000000000A
:1040D2000000000000000040226D83016101F40035
:1040E200D501EE010E02818283E200E900EA00B509
:1040F20000B600B700CD008301CC008A0192019482
:10410200012102230224022502260227022A02B3E7
:1041120000B4006F00700033777937722F615178E5
:0441220057470000FB
:00000001FF
